{
	"tipjar.sol": {
		"tips": {
			"abi": [
				{
					"inputs": [],
					"stateMutability": "nonpayable",
					"type": "constructor"
				},
				{
					"inputs": [
						{
							"internalType": "address payable",
							"name": "walletAddress",
							"type": "address"
						},
						{
							"internalType": "string",
							"name": "name",
							"type": "string"
						},
						{
							"internalType": "uint256",
							"name": "percent",
							"type": "uint256"
						}
					],
					"name": "addWaitress",
					"outputs": [],
					"stateMutability": "nonpayable",
					"type": "function"
				},
				{
					"inputs": [],
					"name": "addtips",
					"outputs": [],
					"stateMutability": "payable",
					"type": "function"
				},
				{
					"inputs": [],
					"name": "distributeBalance",
					"outputs": [],
					"stateMutability": "nonpayable",
					"type": "function"
				},
				{
					"inputs": [],
					"name": "getTotalPercent",
					"outputs": [
						{
							"internalType": "uint256",
							"name": "",
							"type": "uint256"
						}
					],
					"stateMutability": "view",
					"type": "function"
				},
				{
					"inputs": [
						{
							"internalType": "address",
							"name": "walletAddress",
							"type": "address"
						}
					],
					"name": "removeWaitress",
					"outputs": [],
					"stateMutability": "nonpayable",
					"type": "function"
				},
				{
					"inputs": [],
					"name": "viewWaitress",
					"outputs": [
						{
							"components": [
								{
									"internalType": "address payable",
									"name": "walletAddress",
									"type": "address"
								},
								{
									"internalType": "string",
									"name": "name",
									"type": "string"
								},
								{
									"internalType": "uint256",
									"name": "percent",
									"type": "uint256"
								}
							],
							"internalType": "struct tips.Waitress[]",
							"name": "",
							"type": "tuple[]"
						}
					],
					"stateMutability": "view",
					"type": "function"
				},
				{
					"inputs": [],
					"name": "viewtips",
					"outputs": [
						{
							"internalType": "uint256",
							"name": "",
							"type": "uint256"
						}
					],
					"stateMutability": "view",
					"type": "function"
				},
				{
					"inputs": [
						{
							"internalType": "uint256",
							"name": "",
							"type": "uint256"
						}
					],
					"name": "waitress",
					"outputs": [
						{
							"internalType": "address payable",
							"name": "walletAddress",
							"type": "address"
						},
						{
							"internalType": "string",
							"name": "name",
							"type": "string"
						},
						{
							"internalType": "uint256",
							"name": "percent",
							"type": "uint256"
						}
					],
					"stateMutability": "view",
					"type": "function"
				}
			],
			"devdoc": {
				"kind": "dev",
				"methods": {},
				"version": 1
			},
			"evm": {
				"assembly": "    /* \"tipjar.sol\":198:3303  contract tips {... */\n  mstore(0x40, 0x80)\n    /* \"tipjar.sol\":393:444  constructor() {... */\n  callvalue\n  dup1\n  iszero\n  tag_1\n  jumpi\n  revert(0x00, 0x00)\ntag_1:\n  pop\n    /* \"tipjar.sol\":426:436  msg.sender */\n  caller\n    /* \"tipjar.sol\":418:423  owner */\n  0x00\n  0x00\n    /* \"tipjar.sol\":418:436  owner = msg.sender */\n  0x0100\n  exp\n  dup2\n  sload\n  dup2\n  0xffffffffffffffffffffffffffffffffffffffff\n  mul\n  not\n  and\n  swap1\n  dup4\n  0xffffffffffffffffffffffffffffffffffffffff\n  and\n  mul\n  or\n  swap1\n  sstore\n  pop\n    /* \"tipjar.sol\":198:3303  contract tips {... */\n  dataSize(sub_0)\n  dup1\n  dataOffset(sub_0)\n  0x00\n  codecopy\n  0x00\n  return\nstop\n\nsub_0: assembly {\n        /* \"tipjar.sol\":198:3303  contract tips {... */\n      mstore(0x40, 0x80)\n      jumpi(tag_1, lt(calldatasize, 0x04))\n      shr(0xe0, calldataload(0x00))\n      dup1\n      0x7943da69\n      gt\n      tag_10\n      jumpi\n      dup1\n      0x7943da69\n      eq\n      tag_6\n      jumpi\n      dup1\n      0xb499b79a\n      eq\n      tag_7\n      jumpi\n      dup1\n      0xe83a1b00\n      eq\n      tag_8\n      jumpi\n      dup1\n      0xec066e3a\n      eq\n      tag_9\n      jumpi\n      jump(tag_1)\n    tag_10:\n      dup1\n      0x2a08deda\n      eq\n      tag_2\n      jumpi\n      dup1\n      0x369a489d\n      eq\n      tag_3\n      jumpi\n      dup1\n      0x3c8e3b52\n      eq\n      tag_4\n      jumpi\n      dup1\n      0x6e7301fd\n      eq\n      tag_5\n      jumpi\n    tag_1:\n      revert(0x00, 0x00)\n        /* \"tipjar.sol\":607:700  function viewtips() public view returns(uint) {... */\n    tag_2:\n      callvalue\n      dup1\n      iszero\n      tag_11\n      jumpi\n      revert(0x00, 0x00)\n    tag_11:\n      pop\n      tag_12\n      tag_13\n      jump\t// in\n    tag_12:\n      mload(0x40)\n      tag_14\n      swap2\n      swap1\n      tag_15\n      jump\t// in\n    tag_14:\n      mload(0x40)\n      dup1\n      swap2\n      sub\n      swap1\n      return\n        /* \"tipjar.sol\":2009:2593  function removeWaitress(address walletAddress) public onlyOwner {... */\n    tag_3:\n      callvalue\n      dup1\n      iszero\n      tag_16\n      jumpi\n      revert(0x00, 0x00)\n    tag_16:\n      pop\n      tag_17\n      0x04\n      dup1\n      calldatasize\n      sub\n      dup2\n      add\n      swap1\n      tag_18\n      swap2\n      swap1\n      tag_19\n      jump\t// in\n    tag_18:\n      tag_20\n      jump\t// in\n    tag_17:\n      stop\n        /* \"tipjar.sol\":966:1182  function getTotalPercent() public view returns(uint) {... */\n    tag_4:\n      callvalue\n      dup1\n      iszero\n      tag_21\n      jumpi\n      revert(0x00, 0x00)\n    tag_21:\n      pop\n      tag_22\n      tag_23\n      jump\t// in\n    tag_22:\n      mload(0x40)\n      tag_24\n      swap2\n      swap1\n      tag_15\n      jump\t// in\n    tag_24:\n      mload(0x40)\n      dup1\n      swap2\n      sub\n      swap1\n      return\n        /* \"tipjar.sol\":563:599  function addtips() payable public {} */\n    tag_5:\n      tag_25\n      tag_26\n      jump\t// in\n    tag_25:\n      stop\n        /* \"tipjar.sol\":2601:3099  function distributeBalance() public {... */\n    tag_6:\n      callvalue\n      dup1\n      iszero\n      tag_27\n      jumpi\n      revert(0x00, 0x00)\n    tag_27:\n      pop\n      tag_28\n      tag_29\n      jump\t// in\n    tag_28:\n      stop\n        /* \"tipjar.sol\":1190:2001  function addWaitress(address payable walletAddress, string memory name, uint percent) public onlyOwner {... */\n    tag_7:\n      callvalue\n      dup1\n      iszero\n      tag_30\n      jumpi\n      revert(0x00, 0x00)\n    tag_30:\n      pop\n      tag_31\n      0x04\n      dup1\n      calldatasize\n      sub\n      dup2\n      add\n      swap1\n      tag_32\n      swap2\n      swap1\n      tag_33\n      jump\t// in\n    tag_32:\n      tag_34\n      jump\t// in\n    tag_31:\n      stop\n        /* \"tipjar.sol\":708:805  function viewWaitress() public view returns(Waitress[] memory) {... */\n    tag_8:\n      callvalue\n      dup1\n      iszero\n      tag_35\n      jumpi\n      revert(0x00, 0x00)\n    tag_35:\n      pop\n      tag_36\n      tag_37\n      jump\t// in\n    tag_36:\n      mload(0x40)\n      tag_38\n      swap2\n      swap1\n      tag_39\n      jump\t// in\n    tag_38:\n      mload(0x40)\n      dup1\n      swap2\n      sub\n      swap1\n      return\n        /* \"tipjar.sol\":358:384  Waitress[] public waitress */\n    tag_9:\n      callvalue\n      dup1\n      iszero\n      tag_40\n      jumpi\n      revert(0x00, 0x00)\n    tag_40:\n      pop\n      tag_41\n      0x04\n      dup1\n      calldatasize\n      sub\n      dup2\n      add\n      swap1\n      tag_42\n      swap2\n      swap1\n      tag_43\n      jump\t// in\n    tag_42:\n      tag_44\n      jump\t// in\n    tag_41:\n      mload(0x40)\n      tag_45\n      swap4\n      swap3\n      swap2\n      swap1\n      tag_46\n      jump\t// in\n    tag_45:\n      mload(0x40)\n      dup1\n      swap2\n      sub\n      swap1\n      return\n        /* \"tipjar.sol\":607:700  function viewtips() public view returns(uint) {... */\n    tag_13:\n        /* \"tipjar.sol\":647:651  uint */\n      0x00\n        /* \"tipjar.sol\":671:692  address(this).balance */\n      selfbalance\n        /* \"tipjar.sol\":664:692  return address(this).balance */\n      swap1\n      pop\n        /* \"tipjar.sol\":607:700  function viewtips() public view returns(uint) {... */\n      swap1\n      jump\t// out\n        /* \"tipjar.sol\":2009:2593  function removeWaitress(address walletAddress) public onlyOwner {... */\n    tag_20:\n        /* \"tipjar.sol\":506:511  owner */\n      0x00\n      0x00\n      swap1\n      sload\n      swap1\n      0x0100\n      exp\n      swap1\n      div\n      0xffffffffffffffffffffffffffffffffffffffff\n      and\n        /* \"tipjar.sol\":492:511  msg.sender == owner */\n      0xffffffffffffffffffffffffffffffffffffffff\n      and\n        /* \"tipjar.sol\":492:502  msg.sender */\n      caller\n        /* \"tipjar.sol\":492:511  msg.sender == owner */\n      0xffffffffffffffffffffffffffffffffffffffff\n      and\n      eq\n        /* \"tipjar.sol\":484:535  require(msg.sender == owner, \"Only owner can call\") */\n      tag_49\n      jumpi\n      mload(0x40)\n      0x08c379a000000000000000000000000000000000000000000000000000000000\n      dup2\n      mstore\n      0x04\n      add\n      tag_50\n      swap1\n      tag_51\n      jump\t// in\n    tag_50:\n      mload(0x40)\n      dup1\n      swap2\n      sub\n      swap1\n      revert\n    tag_49:\n        /* \"tipjar.sol\":2088:2094  uint i */\n      0x00\n        /* \"tipjar.sol\":2097:2098  0 */\n      0x00\n        /* \"tipjar.sol\":2088:2098  uint i = 0 */\n      swap1\n      pop\n        /* \"tipjar.sol\":2084:2586  for(uint i = 0; i < waitress.length; i++){... */\n    tag_53:\n        /* \"tipjar.sol\":2104:2112  waitress */\n      0x01\n        /* \"tipjar.sol\":2104:2119  waitress.length */\n      dup1\n      sload\n      swap1\n      pop\n        /* \"tipjar.sol\":2100:2101  i */\n      dup2\n        /* \"tipjar.sol\":2100:2119  i < waitress.length */\n      lt\n        /* \"tipjar.sol\":2084:2586  for(uint i = 0; i < waitress.length; i++){... */\n      iszero\n      tag_54\n      jumpi\n        /* \"tipjar.sol\":2172:2185  walletAddress */\n      dup2\n        /* \"tipjar.sol\":2143:2185  waitress[i].walletAddress == walletAddress */\n      0xffffffffffffffffffffffffffffffffffffffff\n      and\n        /* \"tipjar.sol\":2143:2151  waitress */\n      0x01\n        /* \"tipjar.sol\":2152:2153  i */\n      dup3\n        /* \"tipjar.sol\":2143:2154  waitress[i] */\n      dup2\n      sload\n      dup2\n      lt\n      tag_56\n      jumpi\n      tag_57\n      tag_58\n      jump\t// in\n    tag_57:\n    tag_56:\n      swap1\n      0x00\n      mstore\n      keccak256(0x00, 0x20)\n      swap1\n      0x03\n      mul\n      add\n        /* \"tipjar.sol\":2143:2168  waitress[i].walletAddress */\n      0x00\n      add\n      0x00\n      swap1\n      sload\n      swap1\n      0x0100\n      exp\n      swap1\n      div\n      0xffffffffffffffffffffffffffffffffffffffff\n      and\n        /* \"tipjar.sol\":2143:2185  waitress[i].walletAddress == walletAddress */\n      0xffffffffffffffffffffffffffffffffffffffff\n      and\n      sub\n        /* \"tipjar.sol\":2140:2575  if(waitress[i].walletAddress == walletAddress){... */\n      tag_60\n      jumpi\n        /* \"tipjar.sol\":2291:2297  uint j */\n      0x00\n        /* \"tipjar.sol\":2300:2301  i */\n      dup2\n        /* \"tipjar.sol\":2291:2301  uint j = i */\n      swap1\n      pop\n        /* \"tipjar.sol\":2286:2405  for (uint j = i; j < waitress.length - 1; j++) {... */\n    tag_61:\n        /* \"tipjar.sol\":2325:2326  1 */\n      0x01\n        /* \"tipjar.sol\":2307:2315  waitress */\n      dup1\n        /* \"tipjar.sol\":2307:2322  waitress.length */\n      dup1\n      sload\n      swap1\n      pop\n        /* \"tipjar.sol\":2307:2326  waitress.length - 1 */\n      tag_64\n      swap2\n      swap1\n      tag_65\n      jump\t// in\n    tag_64:\n        /* \"tipjar.sol\":2303:2304  j */\n      dup2\n        /* \"tipjar.sol\":2303:2326  j < waitress.length - 1 */\n      lt\n        /* \"tipjar.sol\":2286:2405  for (uint j = i; j < waitress.length - 1; j++) {... */\n      iszero\n      tag_62\n      jumpi\n        /* \"tipjar.sol\":2370:2378  waitress */\n      0x01\n        /* \"tipjar.sol\":2383:2384  1 */\n      dup1\n        /* \"tipjar.sol\":2379:2380  j */\n      dup3\n        /* \"tipjar.sol\":2379:2384  j + 1 */\n      tag_66\n      swap2\n      swap1\n      tag_67\n      jump\t// in\n    tag_66:\n        /* \"tipjar.sol\":2370:2385  waitress[j + 1] */\n      dup2\n      sload\n      dup2\n      lt\n      tag_68\n      jumpi\n      tag_69\n      tag_58\n      jump\t// in\n    tag_69:\n    tag_68:\n      swap1\n      0x00\n      mstore\n      keccak256(0x00, 0x20)\n      swap1\n      0x03\n      mul\n      add\n        /* \"tipjar.sol\":2356:2364  waitress */\n      0x01\n        /* \"tipjar.sol\":2365:2366  j */\n      dup3\n        /* \"tipjar.sol\":2356:2367  waitress[j] */\n      dup2\n      sload\n      dup2\n      lt\n      tag_71\n      jumpi\n      tag_72\n      tag_58\n      jump\t// in\n    tag_72:\n    tag_71:\n      swap1\n      0x00\n      mstore\n      keccak256(0x00, 0x20)\n      swap1\n      0x03\n      mul\n      add\n        /* \"tipjar.sol\":2356:2385  waitress[j] = waitress[j + 1] */\n      0x00\n      dup3\n      add\n      0x00\n      swap1\n      sload\n      swap1\n      0x0100\n      exp\n      swap1\n      div\n      0xffffffffffffffffffffffffffffffffffffffff\n      and\n      dup2\n      0x00\n      add\n      exp(0x0100, 0x00)\n      dup2\n      sload\n      dup2\n      0xffffffffffffffffffffffffffffffffffffffff\n      mul\n      not\n      and\n      swap1\n      dup4\n      0xffffffffffffffffffffffffffffffffffffffff\n      and\n      mul\n      or\n      swap1\n      sstore\n      pop\n      0x01\n      dup3\n      add\n      dup2\n      0x01\n      add\n      swap1\n      dup2\n      tag_74\n      swap2\n      swap1\n      tag_75\n      jump\t// in\n    tag_74:\n      pop\n      0x02\n      dup3\n      add\n      sload\n      dup2\n      0x02\n      add\n      sstore\n      swap1\n      pop\n      pop\n        /* \"tipjar.sol\":2328:2331  j++ */\n      dup1\n      dup1\n      0x01\n      add\n      swap2\n      pop\n      pop\n        /* \"tipjar.sol\":2286:2405  for (uint j = i; j < waitress.length - 1; j++) {... */\n      jump(tag_61)\n    tag_62:\n      pop\n        /* \"tipjar.sol\":2423:2431  waitress */\n      0x01\n        /* \"tipjar.sol\":2423:2437  waitress.pop() */\n      dup1\n      sload\n      dup1\n      tag_76\n      jumpi\n      tag_77\n      tag_78\n      jump\t// in\n    tag_77:\n    tag_76:\n      0x01\n      swap1\n      sub\n      dup2\n      dup2\n      swap1\n      0x00\n      mstore\n      keccak256(0x00, 0x20)\n      swap1\n      0x03\n      mul\n      add\n      0x00\n      0x00\n      dup3\n      add\n      exp(0x0100, 0x00)\n      dup2\n      sload\n      swap1\n      0xffffffffffffffffffffffffffffffffffffffff\n      mul\n      not\n      and\n      swap1\n      sstore\n      0x01\n      dup3\n      add\n      0x00\n      tag_80\n      swap2\n      swap1\n      tag_81\n      jump\t// in\n    tag_80:\n      0x02\n      dup3\n      add\n      0x00\n      swap1\n      sstore\n      pop\n      pop\n      swap1\n      sstore\n        /* \"tipjar.sol\":2456:2463  return; */\n      pop\n      jump(tag_52)\n        /* \"tipjar.sol\":2140:2575  if(waitress[i].walletAddress == walletAddress){... */\n    tag_60:\n        /* \"tipjar.sol\":2121:2124  i++ */\n      dup1\n      dup1\n      0x01\n      add\n      swap2\n      pop\n      pop\n        /* \"tipjar.sol\":2084:2586  for(uint i = 0; i < waitress.length; i++){... */\n      jump(tag_53)\n    tag_54:\n      pop\n        /* \"tipjar.sol\":546:547  _ */\n    tag_52:\n        /* \"tipjar.sol\":2009:2593  function removeWaitress(address walletAddress) public onlyOwner {... */\n      pop\n      jump\t// out\n        /* \"tipjar.sol\":966:1182  function getTotalPercent() public view returns(uint) {... */\n    tag_23:\n        /* \"tipjar.sol\":1013:1017  uint */\n      0x00\n        /* \"tipjar.sol\":1030:1040  uint total */\n      0x00\n        /* \"tipjar.sol\":1043:1044  0 */\n      0x00\n        /* \"tipjar.sol\":1030:1044  uint total = 0 */\n      swap1\n      pop\n        /* \"tipjar.sol\":1059:1065  uint i */\n      0x00\n        /* \"tipjar.sol\":1068:1069  0 */\n      0x00\n        /* \"tipjar.sol\":1059:1069  uint i = 0 */\n      swap1\n      pop\n        /* \"tipjar.sol\":1055:1152  for(uint i = 0; i < waitress.length; i++) {... */\n    tag_83:\n        /* \"tipjar.sol\":1075:1083  waitress */\n      0x01\n        /* \"tipjar.sol\":1075:1090  waitress.length */\n      dup1\n      sload\n      swap1\n      pop\n        /* \"tipjar.sol\":1071:1072  i */\n      dup2\n        /* \"tipjar.sol\":1071:1090  i < waitress.length */\n      lt\n        /* \"tipjar.sol\":1055:1152  for(uint i = 0; i < waitress.length; i++) {... */\n      iszero\n      tag_84\n      jumpi\n        /* \"tipjar.sol\":1121:1129  waitress */\n      0x01\n        /* \"tipjar.sol\":1130:1131  i */\n      dup2\n        /* \"tipjar.sol\":1121:1132  waitress[i] */\n      dup2\n      sload\n      dup2\n      lt\n      tag_86\n      jumpi\n      tag_87\n      tag_58\n      jump\t// in\n    tag_87:\n    tag_86:\n      swap1\n      0x00\n      mstore\n      keccak256(0x00, 0x20)\n      swap1\n      0x03\n      mul\n      add\n        /* \"tipjar.sol\":1121:1140  waitress[i].percent */\n      0x02\n      add\n      sload\n        /* \"tipjar.sol\":1112:1140  total += waitress[i].percent */\n      dup3\n      tag_89\n      swap2\n      swap1\n      tag_67\n      jump\t// in\n    tag_89:\n      swap2\n      pop\n        /* \"tipjar.sol\":1092:1095  i++ */\n      dup1\n      dup1\n      0x01\n      add\n      swap2\n      pop\n      pop\n        /* \"tipjar.sol\":1055:1152  for(uint i = 0; i < waitress.length; i++) {... */\n      jump(tag_83)\n    tag_84:\n      pop\n        /* \"tipjar.sol\":1169:1174  total */\n      dup1\n        /* \"tipjar.sol\":1162:1174  return total */\n      swap2\n      pop\n      pop\n        /* \"tipjar.sol\":966:1182  function getTotalPercent() public view returns(uint) {... */\n      swap1\n      jump\t// out\n        /* \"tipjar.sol\":563:599  function addtips() payable public {} */\n    tag_26:\n      jump\t// out\n        /* \"tipjar.sol\":2601:3099  function distributeBalance() public {... */\n    tag_29:\n        /* \"tipjar.sol\":2648:2665  uint totalBalance */\n      0x00\n        /* \"tipjar.sol\":2668:2689  address(this).balance */\n      selfbalance\n        /* \"tipjar.sol\":2648:2689  uint totalBalance = address(this).balance */\n      swap1\n      pop\n        /* \"tipjar.sol\":2723:2724  0 */\n      0x00\n        /* \"tipjar.sol\":2708:2720  totalBalance */\n      dup2\n        /* \"tipjar.sol\":2708:2724  totalBalance > 0 */\n      gt\n        /* \"tipjar.sol\":2700:2737  require(totalBalance > 0, \"No Money\") */\n      tag_92\n      jumpi\n      mload(0x40)\n      0x08c379a000000000000000000000000000000000000000000000000000000000\n      dup2\n      mstore\n      0x04\n      add\n      tag_93\n      swap1\n      tag_94\n      jump\t// in\n    tag_93:\n      mload(0x40)\n      dup1\n      swap2\n      sub\n      swap1\n      revert\n    tag_92:\n        /* \"tipjar.sol\":2774:2775  0 */\n      0x00\n        /* \"tipjar.sol\":2756:2764  waitress */\n      0x01\n        /* \"tipjar.sol\":2756:2771  waitress.length */\n      dup1\n      sload\n      swap1\n      pop\n        /* \"tipjar.sol\":2756:2775  waitress.length > 0 */\n      gt\n        /* \"tipjar.sol\":2748:2797  require(waitress.length > 0, \"No Waitress added\") */\n      tag_95\n      jumpi\n      mload(0x40)\n      0x08c379a000000000000000000000000000000000000000000000000000000000\n      dup2\n      mstore\n      0x04\n      add\n      tag_96\n      swap1\n      tag_97\n      jump\t// in\n    tag_96:\n      mload(0x40)\n      dup1\n      swap2\n      sub\n      swap1\n      revert\n    tag_95:\n        /* \"tipjar.sol\":2814:2820  uint j */\n      0x00\n        /* \"tipjar.sol\":2823:2824  0 */\n      0x00\n        /* \"tipjar.sol\":2814:2824  uint j = 0 */\n      swap1\n      pop\n        /* \"tipjar.sol\":2810:3092  for(uint j = 0; j < waitress.length; j++){... */\n    tag_98:\n        /* \"tipjar.sol\":2830:2838  waitress */\n      0x01\n        /* \"tipjar.sol\":2830:2845  waitress.length */\n      dup1\n      sload\n      swap1\n      pop\n        /* \"tipjar.sol\":2826:2827  j */\n      dup2\n        /* \"tipjar.sol\":2826:2845  j < waitress.length */\n      lt\n        /* \"tipjar.sol\":2810:3092  for(uint j = 0; j < waitress.length; j++){... */\n      iszero\n      tag_99\n      jumpi\n        /* \"tipjar.sol\":2866:2887  uint distributeAmount */\n      0x00\n        /* \"tipjar.sol\":2929:2932  100 */\n      0x64\n        /* \"tipjar.sol\":2906:2914  waitress */\n      0x01\n        /* \"tipjar.sol\":2915:2916  j */\n      dup4\n        /* \"tipjar.sol\":2906:2917  waitress[j] */\n      dup2\n      sload\n      dup2\n      lt\n      tag_101\n      jumpi\n      tag_102\n      tag_58\n      jump\t// in\n    tag_102:\n    tag_101:\n      swap1\n      0x00\n      mstore\n      keccak256(0x00, 0x20)\n      swap1\n      0x03\n      mul\n      add\n        /* \"tipjar.sol\":2906:2925  waitress[j].percent */\n      0x02\n      add\n      sload\n        /* \"tipjar.sol\":2891:2903  totalBalance */\n      dup5\n        /* \"tipjar.sol\":2891:2925  totalBalance * waitress[j].percent */\n      tag_104\n      swap2\n      swap1\n      tag_105\n      jump\t// in\n    tag_104:\n        /* \"tipjar.sol\":2890:2932  (totalBalance * waitress[j].percent) / 100 */\n      tag_106\n      swap2\n      swap1\n      tag_107\n      jump\t// in\n    tag_106:\n        /* \"tipjar.sol\":2866:2932  uint distributeAmount = (totalBalance * waitress[j].percent) / 100 */\n      swap1\n      pop\n        /* \"tipjar.sol\":2984:2985  0 */\n      0x00\n        /* \"tipjar.sol\":2965:2981  distributeAmount */\n      dup2\n        /* \"tipjar.sol\":2965:2985  distributeAmount > 0 */\n      gt\n        /* \"tipjar.sol\":2961:3081  if (distributeAmount > 0) {... */\n      iszero\n      tag_108\n      jumpi\n        /* \"tipjar.sol\":3006:3065  _transferFunds(waitress[j].walletAddress, distributeAmount) */\n      tag_109\n        /* \"tipjar.sol\":3021:3029  waitress */\n      0x01\n        /* \"tipjar.sol\":3030:3031  j */\n      dup4\n        /* \"tipjar.sol\":3021:3032  waitress[j] */\n      dup2\n      sload\n      dup2\n      lt\n      tag_110\n      jumpi\n      tag_111\n      tag_58\n      jump\t// in\n    tag_111:\n    tag_110:\n      swap1\n      0x00\n      mstore\n      keccak256(0x00, 0x20)\n      swap1\n      0x03\n      mul\n      add\n        /* \"tipjar.sol\":3021:3046  waitress[j].walletAddress */\n      0x00\n      add\n      0x00\n      swap1\n      sload\n      swap1\n      0x0100\n      exp\n      swap1\n      div\n      0xffffffffffffffffffffffffffffffffffffffff\n      and\n        /* \"tipjar.sol\":3048:3064  distributeAmount */\n      dup3\n        /* \"tipjar.sol\":3006:3020  _transferFunds */\n      tag_113\n        /* \"tipjar.sol\":3006:3065  _transferFunds(waitress[j].walletAddress, distributeAmount) */\n      jump\t// in\n    tag_109:\n        /* \"tipjar.sol\":2961:3081  if (distributeAmount > 0) {... */\n    tag_108:\n        /* \"tipjar.sol\":2851:3092  {... */\n      pop\n        /* \"tipjar.sol\":2847:2850  j++ */\n      dup1\n      dup1\n      0x01\n      add\n      swap2\n      pop\n      pop\n        /* \"tipjar.sol\":2810:3092  for(uint j = 0; j < waitress.length; j++){... */\n      jump(tag_98)\n    tag_99:\n      pop\n        /* \"tipjar.sol\":2637:3099  {... */\n      pop\n        /* \"tipjar.sol\":2601:3099  function distributeBalance() public {... */\n      jump\t// out\n        /* \"tipjar.sol\":1190:2001  function addWaitress(address payable walletAddress, string memory name, uint percent) public onlyOwner {... */\n    tag_34:\n        /* \"tipjar.sol\":506:511  owner */\n      0x00\n      0x00\n      swap1\n      sload\n      swap1\n      0x0100\n      exp\n      swap1\n      div\n      0xffffffffffffffffffffffffffffffffffffffff\n      and\n        /* \"tipjar.sol\":492:511  msg.sender == owner */\n      0xffffffffffffffffffffffffffffffffffffffff\n      and\n        /* \"tipjar.sol\":492:502  msg.sender */\n      caller\n        /* \"tipjar.sol\":492:511  msg.sender == owner */\n      0xffffffffffffffffffffffffffffffffffffffff\n      and\n      eq\n        /* \"tipjar.sol\":484:535  require(msg.sender == owner, \"Only owner can call\") */\n      tag_115\n      jumpi\n      mload(0x40)\n      0x08c379a000000000000000000000000000000000000000000000000000000000\n      dup2\n      mstore\n      0x04\n      add\n      tag_116\n      swap1\n      tag_51\n      jump\t// in\n    tag_116:\n      mload(0x40)\n      dup1\n      swap2\n      sub\n      swap1\n      revert\n    tag_115:\n        /* \"tipjar.sol\":1488:1505  uint currentTotal */\n      0x00\n        /* \"tipjar.sol\":1508:1525  getTotalPercent() */\n      tag_118\n        /* \"tipjar.sol\":1508:1523  getTotalPercent */\n      tag_23\n        /* \"tipjar.sol\":1508:1525  getTotalPercent() */\n      jump\t// in\n    tag_118:\n        /* \"tipjar.sol\":1488:1525  uint currentTotal = getTotalPercent() */\n      swap1\n      pop\n        /* \"tipjar.sol\":1570:1573  100 */\n      0x64\n        /* \"tipjar.sol\":1559:1566  percent */\n      dup3\n        /* \"tipjar.sol\":1544:1556  currentTotal */\n      dup3\n        /* \"tipjar.sol\":1544:1566  currentTotal + percent */\n      tag_119\n      swap2\n      swap1\n      tag_67\n      jump\t// in\n    tag_119:\n        /* \"tipjar.sol\":1544:1573  currentTotal + percent <= 100 */\n      gt\n      iszero\n        /* \"tipjar.sol\":1536:1604  require(currentTotal + percent <= 100, \"Total percent exceeds 100%\") */\n      tag_120\n      jumpi\n      mload(0x40)\n      0x08c379a000000000000000000000000000000000000000000000000000000000\n      dup2\n      mstore\n      0x04\n      add\n      tag_121\n      swap1\n      tag_122\n      jump\t// in\n    tag_121:\n      mload(0x40)\n      dup1\n      swap2\n      sub\n      swap1\n      revert\n    tag_120:\n        /* \"tipjar.sol\":1736:1742  uint i */\n      0x00\n        /* \"tipjar.sol\":1745:1746  0 */\n      0x00\n        /* \"tipjar.sol\":1736:1746  uint i = 0 */\n      swap1\n      pop\n        /* \"tipjar.sol\":1732:1879  for(uint i = 0; i < waitress.length; i++) {... */\n    tag_123:\n        /* \"tipjar.sol\":1752:1760  waitress */\n      0x01\n        /* \"tipjar.sol\":1752:1767  waitress.length */\n      dup1\n      sload\n      swap1\n      pop\n        /* \"tipjar.sol\":1748:1749  i */\n      dup2\n        /* \"tipjar.sol\":1748:1767  i < waitress.length */\n      lt\n        /* \"tipjar.sol\":1732:1879  for(uint i = 0; i < waitress.length; i++) {... */\n      iszero\n      tag_124\n      jumpi\n        /* \"tipjar.sol\":1826:1839  walletAddress */\n      dup5\n        /* \"tipjar.sol\":1797:1839  waitress[i].walletAddress != walletAddress */\n      0xffffffffffffffffffffffffffffffffffffffff\n      and\n        /* \"tipjar.sol\":1797:1805  waitress */\n      0x01\n        /* \"tipjar.sol\":1806:1807  i */\n      dup3\n        /* \"tipjar.sol\":1797:1808  waitress[i] */\n      dup2\n      sload\n      dup2\n      lt\n      tag_126\n      jumpi\n      tag_127\n      tag_58\n      jump\t// in\n    tag_127:\n    tag_126:\n      swap1\n      0x00\n      mstore\n      keccak256(0x00, 0x20)\n      swap1\n      0x03\n      mul\n      add\n        /* \"tipjar.sol\":1797:1822  waitress[i].walletAddress */\n      0x00\n      add\n      0x00\n      swap1\n      sload\n      swap1\n      0x0100\n      exp\n      swap1\n      div\n      0xffffffffffffffffffffffffffffffffffffffff\n      and\n        /* \"tipjar.sol\":1797:1839  waitress[i].walletAddress != walletAddress */\n      0xffffffffffffffffffffffffffffffffffffffff\n      and\n      sub\n        /* \"tipjar.sol\":1789:1867  require(waitress[i].walletAddress != walletAddress, \"Waitress already exists\") */\n      tag_129\n      jumpi\n      mload(0x40)\n      0x08c379a000000000000000000000000000000000000000000000000000000000\n      dup2\n      mstore\n      0x04\n      add\n      tag_130\n      swap1\n      tag_131\n      jump\t// in\n    tag_130:\n      mload(0x40)\n      dup1\n      swap2\n      sub\n      swap1\n      revert\n    tag_129:\n        /* \"tipjar.sol\":1769:1772  i++ */\n      dup1\n      dup1\n      0x01\n      add\n      swap2\n      pop\n      pop\n        /* \"tipjar.sol\":1732:1879  for(uint i = 0; i < waitress.length; i++) {... */\n      jump(tag_123)\n    tag_124:\n      pop\n        /* \"tipjar.sol\":1940:1948  waitress */\n      0x01\n        /* \"tipjar.sol\":1954:1992  Waitress(walletAddress, name, percent) */\n      mload(0x40)\n      dup1\n      0x60\n      add\n      0x40\n      mstore\n      dup1\n        /* \"tipjar.sol\":1963:1976  walletAddress */\n      dup7\n        /* \"tipjar.sol\":1954:1992  Waitress(walletAddress, name, percent) */\n      0xffffffffffffffffffffffffffffffffffffffff\n      and\n      dup2\n      mstore\n      0x20\n      add\n        /* \"tipjar.sol\":1978:1982  name */\n      dup6\n        /* \"tipjar.sol\":1954:1992  Waitress(walletAddress, name, percent) */\n      dup2\n      mstore\n      0x20\n      add\n        /* \"tipjar.sol\":1984:1991  percent */\n      dup5\n        /* \"tipjar.sol\":1954:1992  Waitress(walletAddress, name, percent) */\n      dup2\n      mstore\n      pop\n        /* \"tipjar.sol\":1940:1993  waitress.push(Waitress(walletAddress, name, percent)) */\n      swap1\n      dup1\n      0x01\n      dup2\n      sload\n      add\n      dup1\n      dup3\n      sstore\n      dup1\n      swap2\n      pop\n      pop\n      0x01\n      swap1\n      sub\n      swap1\n      0x00\n      mstore\n      keccak256(0x00, 0x20)\n      swap1\n      0x03\n      mul\n      add\n      0x00\n      swap1\n      swap2\n      swap1\n      swap2\n      swap1\n      swap2\n      pop\n      0x00\n      dup3\n      add\n      mload\n      dup2\n      0x00\n      add\n      exp(0x0100, 0x00)\n      dup2\n      sload\n      dup2\n      0xffffffffffffffffffffffffffffffffffffffff\n      mul\n      not\n      and\n      swap1\n      dup4\n      0xffffffffffffffffffffffffffffffffffffffff\n      and\n      mul\n      or\n      swap1\n      sstore\n      pop\n      0x20\n      dup3\n      add\n      mload\n      dup2\n      0x01\n      add\n      swap1\n      dup2\n      tag_133\n      swap2\n      swap1\n      tag_134\n      jump\t// in\n    tag_133:\n      pop\n      0x40\n      dup3\n      add\n      mload\n      dup2\n      0x02\n      add\n      sstore\n      pop\n      pop\n        /* \"tipjar.sol\":1293:2001  {... */\n      pop\n        /* \"tipjar.sol\":1190:2001  function addWaitress(address payable walletAddress, string memory name, uint percent) public onlyOwner {... */\n      pop\n      pop\n      pop\n      jump\t// out\n        /* \"tipjar.sol\":708:805  function viewWaitress() public view returns(Waitress[] memory) {... */\n    tag_37:\n        /* \"tipjar.sol\":752:769  Waitress[] memory */\n      0x60\n        /* \"tipjar.sol\":789:797  waitress */\n      0x01\n        /* \"tipjar.sol\":782:797  return waitress */\n      dup1\n      sload\n      dup1\n      0x20\n      mul\n      0x20\n      add\n      mload(0x40)\n      swap1\n      dup2\n      add\n      0x40\n      mstore\n      dup1\n      swap3\n      swap2\n      swap1\n      dup2\n      dup2\n      mstore\n      0x20\n      add\n      0x00\n      swap1\n    tag_136:\n      dup3\n      dup3\n      lt\n      iszero\n      tag_137\n      jumpi\n      dup4\n      dup3\n      swap1\n      0x00\n      mstore\n      keccak256(0x00, 0x20)\n      swap1\n      0x03\n      mul\n      add\n      mload(0x40)\n      dup1\n      0x60\n      add\n      0x40\n      mstore\n      swap1\n      dup2\n      0x00\n      dup3\n      add\n      0x00\n      swap1\n      sload\n      swap1\n      0x0100\n      exp\n      swap1\n      div\n      0xffffffffffffffffffffffffffffffffffffffff\n      and\n      0xffffffffffffffffffffffffffffffffffffffff\n      and\n      0xffffffffffffffffffffffffffffffffffffffff\n      and\n      dup2\n      mstore\n      0x20\n      add\n      0x01\n      dup3\n      add\n      dup1\n      sload\n      tag_139\n      swap1\n      tag_140\n      jump\t// in\n    tag_139:\n      dup1\n      0x1f\n      add\n      0x20\n      dup1\n      swap2\n      div\n      mul\n      0x20\n      add\n      mload(0x40)\n      swap1\n      dup2\n      add\n      0x40\n      mstore\n      dup1\n      swap3\n      swap2\n      swap1\n      dup2\n      dup2\n      mstore\n      0x20\n      add\n      dup3\n      dup1\n      sload\n      tag_141\n      swap1\n      tag_140\n      jump\t// in\n    tag_141:\n      dup1\n      iszero\n      tag_142\n      jumpi\n      dup1\n      0x1f\n      lt\n      tag_143\n      jumpi\n      0x0100\n      dup1\n      dup4\n      sload\n      div\n      mul\n      dup4\n      mstore\n      swap2\n      0x20\n      add\n      swap2\n      jump(tag_142)\n    tag_143:\n      dup3\n      add\n      swap2\n      swap1\n      0x00\n      mstore\n      keccak256(0x00, 0x20)\n      swap1\n    tag_144:\n      dup2\n      sload\n      dup2\n      mstore\n      swap1\n      0x01\n      add\n      swap1\n      0x20\n      add\n      dup1\n      dup4\n      gt\n      tag_144\n      jumpi\n      dup3\n      swap1\n      sub\n      0x1f\n      and\n      dup3\n      add\n      swap2\n    tag_142:\n      pop\n      pop\n      pop\n      pop\n      pop\n      dup2\n      mstore\n      0x20\n      add\n      0x02\n      dup3\n      add\n      sload\n      dup2\n      mstore\n      pop\n      pop\n      dup2\n      mstore\n      0x20\n      add\n      swap1\n      0x01\n      add\n      swap1\n      jump(tag_136)\n    tag_137:\n      pop\n      pop\n      pop\n      pop\n      swap1\n      pop\n        /* \"tipjar.sol\":708:805  function viewWaitress() public view returns(Waitress[] memory) {... */\n      swap1\n      jump\t// out\n        /* \"tipjar.sol\":358:384  Waitress[] public waitress */\n    tag_44:\n      0x01\n      dup2\n      dup2\n      sload\n      dup2\n      lt\n      tag_145\n      jumpi\n      0x00\n      dup1\n      revert\n    tag_145:\n      swap1\n      0x00\n      mstore\n      keccak256(0x00, 0x20)\n      swap1\n      0x03\n      mul\n      add\n      0x00\n      swap2\n      pop\n      swap1\n      pop\n      dup1\n      0x00\n      add\n      0x00\n      swap1\n      sload\n      swap1\n      0x0100\n      exp\n      swap1\n      div\n      0xffffffffffffffffffffffffffffffffffffffff\n      and\n      swap1\n      dup1\n      0x01\n      add\n      dup1\n      sload\n      tag_147\n      swap1\n      tag_140\n      jump\t// in\n    tag_147:\n      dup1\n      0x1f\n      add\n      0x20\n      dup1\n      swap2\n      div\n      mul\n      0x20\n      add\n      mload(0x40)\n      swap1\n      dup2\n      add\n      0x40\n      mstore\n      dup1\n      swap3\n      swap2\n      swap1\n      dup2\n      dup2\n      mstore\n      0x20\n      add\n      dup3\n      dup1\n      sload\n      tag_148\n      swap1\n      tag_140\n      jump\t// in\n    tag_148:\n      dup1\n      iszero\n      tag_149\n      jumpi\n      dup1\n      0x1f\n      lt\n      tag_150\n      jumpi\n      0x0100\n      dup1\n      dup4\n      sload\n      div\n      mul\n      dup4\n      mstore\n      swap2\n      0x20\n      add\n      swap2\n      jump(tag_149)\n    tag_150:\n      dup3\n      add\n      swap2\n      swap1\n      0x00\n      mstore\n      keccak256(0x00, 0x20)\n      swap1\n    tag_151:\n      dup2\n      sload\n      dup2\n      mstore\n      swap1\n      0x01\n      add\n      swap1\n      0x20\n      add\n      dup1\n      dup4\n      gt\n      tag_151\n      jumpi\n      dup3\n      swap1\n      sub\n      0x1f\n      and\n      dup3\n      add\n      swap2\n    tag_149:\n      pop\n      pop\n      pop\n      pop\n      pop\n      swap1\n      dup1\n      0x02\n      add\n      sload\n      swap1\n      pop\n      dup4\n      jump\t// out\n        /* \"tipjar.sol\":3107:3300  function _transferFunds(address payable recipient, uint amount) internal {... */\n    tag_113:\n        /* \"tipjar.sol\":3192:3204  bool success */\n      0x00\n        /* \"tipjar.sol\":3210:3219  recipient */\n      dup3\n        /* \"tipjar.sol\":3210:3224  recipient.call */\n      0xffffffffffffffffffffffffffffffffffffffff\n      and\n        /* \"tipjar.sol\":3232:3238  amount */\n      dup3\n        /* \"tipjar.sol\":3210:3243  recipient.call{value: amount}(\"\") */\n      mload(0x40)\n      tag_153\n      swap1\n      tag_154\n      jump\t// in\n    tag_153:\n      0x00\n      mload(0x40)\n      dup1\n      dup4\n      sub\n      dup2\n      dup6\n      dup8\n      gas\n      call\n      swap3\n      pop\n      pop\n      pop\n      returndatasize\n      dup1\n      0x00\n      dup2\n      eq\n      tag_157\n      jumpi\n      mload(0x40)\n      swap2\n      pop\n      and(add(returndatasize, 0x3f), not(0x1f))\n      dup3\n      add\n      0x40\n      mstore\n      returndatasize\n      dup3\n      mstore\n      returndatasize\n      0x00\n      0x20\n      dup5\n      add\n      returndatacopy\n      jump(tag_156)\n    tag_157:\n      0x60\n      swap2\n      pop\n    tag_156:\n      pop\n        /* \"tipjar.sol\":3191:3243  (bool success, ) = recipient.call{value: amount}(\"\") */\n      pop\n      swap1\n      pop\n        /* \"tipjar.sol\":3262:3269  success */\n      dup1\n        /* \"tipjar.sol\":3254:3290  require(success, \"Transfer failed.\") */\n      tag_158\n      jumpi\n      mload(0x40)\n      0x08c379a000000000000000000000000000000000000000000000000000000000\n      dup2\n      mstore\n      0x04\n      add\n      tag_159\n      swap1\n      tag_160\n      jump\t// in\n    tag_159:\n      mload(0x40)\n      dup1\n      swap2\n      sub\n      swap1\n      revert\n    tag_158:\n        /* \"tipjar.sol\":3180:3300  {... */\n      pop\n        /* \"tipjar.sol\":3107:3300  function _transferFunds(address payable recipient, uint amount) internal {... */\n      pop\n      pop\n      jump\t// out\n    tag_81:\n      pop\n      dup1\n      sload\n      tag_161\n      swap1\n      tag_140\n      jump\t// in\n    tag_161:\n      0x00\n      dup3\n      sstore\n      dup1\n      0x1f\n      lt\n      tag_163\n      jumpi\n      pop\n      jump(tag_162)\n    tag_163:\n      0x1f\n      add\n      0x20\n      swap1\n      div\n      swap1\n      0x00\n      mstore\n      keccak256(0x00, 0x20)\n      swap1\n      dup2\n      add\n      swap1\n      tag_164\n      swap2\n      swap1\n      tag_165\n      jump\t// in\n    tag_164:\n    tag_162:\n      pop\n      jump\t// out\n    tag_165:\n    tag_166:\n      dup1\n      dup3\n      gt\n      iszero\n      tag_167\n      jumpi\n      0x00\n      dup2\n      0x00\n      swap1\n      sstore\n      pop\n      0x01\n      add\n      jump(tag_166)\n    tag_167:\n      pop\n      swap1\n      jump\t// out\n        /* \"#utility.yul\":7:84   */\n    tag_168:\n        /* \"#utility.yul\":44:51   */\n      0x00\n        /* \"#utility.yul\":73:78   */\n      dup2\n        /* \"#utility.yul\":62:78   */\n      swap1\n      pop\n        /* \"#utility.yul\":7:84   */\n      swap2\n      swap1\n      pop\n      jump\t// out\n        /* \"#utility.yul\":90:208   */\n    tag_169:\n        /* \"#utility.yul\":177:201   */\n      tag_245\n        /* \"#utility.yul\":195:200   */\n      dup2\n        /* \"#utility.yul\":177:201   */\n      tag_168\n      jump\t// in\n    tag_245:\n        /* \"#utility.yul\":172:175   */\n      dup3\n        /* \"#utility.yul\":165:202   */\n      mstore\n        /* \"#utility.yul\":90:208   */\n      pop\n      pop\n      jump\t// out\n        /* \"#utility.yul\":214:436   */\n    tag_15:\n        /* \"#utility.yul\":307:311   */\n      0x00\n        /* \"#utility.yul\":345:347   */\n      0x20\n        /* \"#utility.yul\":334:343   */\n      dup3\n        /* \"#utility.yul\":330:348   */\n      add\n        /* \"#utility.yul\":322:348   */\n      swap1\n      pop\n        /* \"#utility.yul\":358:429   */\n      tag_247\n        /* \"#utility.yul\":426:427   */\n      0x00\n        /* \"#utility.yul\":415:424   */\n      dup4\n        /* \"#utility.yul\":411:428   */\n      add\n        /* \"#utility.yul\":402:408   */\n      dup5\n        /* \"#utility.yul\":358:429   */\n      tag_169\n      jump\t// in\n    tag_247:\n        /* \"#utility.yul\":214:436   */\n      swap3\n      swap2\n      pop\n      pop\n      jump\t// out\n        /* \"#utility.yul\":442:517   */\n    tag_170:\n        /* \"#utility.yul\":475:481   */\n      0x00\n        /* \"#utility.yul\":508:510   */\n      0x40\n        /* \"#utility.yul\":502:511   */\n      mload\n        /* \"#utility.yul\":492:511   */\n      swap1\n      pop\n        /* \"#utility.yul\":442:517   */\n      swap1\n      jump\t// out\n        /* \"#utility.yul\":523:640   */\n    tag_171:\n        /* \"#utility.yul\":632:633   */\n      0x00\n        /* \"#utility.yul\":629:630   */\n      0x00\n        /* \"#utility.yul\":622:634   */\n      revert\n        /* \"#utility.yul\":646:763   */\n    tag_172:\n        /* \"#utility.yul\":755:756   */\n      0x00\n        /* \"#utility.yul\":752:753   */\n      0x00\n        /* \"#utility.yul\":745:757   */\n      revert\n        /* \"#utility.yul\":769:895   */\n    tag_173:\n        /* \"#utility.yul\":806:813   */\n      0x00\n        /* \"#utility.yul\":846:888   */\n      0xffffffffffffffffffffffffffffffffffffffff\n        /* \"#utility.yul\":839:844   */\n      dup3\n        /* \"#utility.yul\":835:889   */\n      and\n        /* \"#utility.yul\":824:889   */\n      swap1\n      pop\n        /* \"#utility.yul\":769:895   */\n      swap2\n      swap1\n      pop\n      jump\t// out\n        /* \"#utility.yul\":901:997   */\n    tag_174:\n        /* \"#utility.yul\":938:945   */\n      0x00\n        /* \"#utility.yul\":967:991   */\n      tag_253\n        /* \"#utility.yul\":985:990   */\n      dup3\n        /* \"#utility.yul\":967:991   */\n      tag_173\n      jump\t// in\n    tag_253:\n        /* \"#utility.yul\":956:991   */\n      swap1\n      pop\n        /* \"#utility.yul\":901:997   */\n      swap2\n      swap1\n      pop\n      jump\t// out\n        /* \"#utility.yul\":1003:1125   */\n    tag_175:\n        /* \"#utility.yul\":1076:1100   */\n      tag_255\n        /* \"#utility.yul\":1094:1099   */\n      dup2\n        /* \"#utility.yul\":1076:1100   */\n      tag_174\n      jump\t// in\n    tag_255:\n        /* \"#utility.yul\":1069:1074   */\n      dup2\n        /* \"#utility.yul\":1066:1101   */\n      eq\n        /* \"#utility.yul\":1056:1119   */\n      tag_256\n      jumpi\n        /* \"#utility.yul\":1115:1116   */\n      0x00\n        /* \"#utility.yul\":1112:1113   */\n      0x00\n        /* \"#utility.yul\":1105:1117   */\n      revert\n        /* \"#utility.yul\":1056:1119   */\n    tag_256:\n        /* \"#utility.yul\":1003:1125   */\n      pop\n      jump\t// out\n        /* \"#utility.yul\":1131:1270   */\n    tag_176:\n        /* \"#utility.yul\":1177:1182   */\n      0x00\n        /* \"#utility.yul\":1215:1221   */\n      dup2\n        /* \"#utility.yul\":1202:1222   */\n      calldataload\n        /* \"#utility.yul\":1193:1222   */\n      swap1\n      pop\n        /* \"#utility.yul\":1231:1264   */\n      tag_258\n        /* \"#utility.yul\":1258:1263   */\n      dup2\n        /* \"#utility.yul\":1231:1264   */\n      tag_175\n      jump\t// in\n    tag_258:\n        /* \"#utility.yul\":1131:1270   */\n      swap3\n      swap2\n      pop\n      pop\n      jump\t// out\n        /* \"#utility.yul\":1276:1605   */\n    tag_19:\n        /* \"#utility.yul\":1335:1341   */\n      0x00\n        /* \"#utility.yul\":1384:1386   */\n      0x20\n        /* \"#utility.yul\":1372:1381   */\n      dup3\n        /* \"#utility.yul\":1363:1370   */\n      dup5\n        /* \"#utility.yul\":1359:1382   */\n      sub\n        /* \"#utility.yul\":1355:1387   */\n      slt\n        /* \"#utility.yul\":1352:1471   */\n      iszero\n      tag_260\n      jumpi\n        /* \"#utility.yul\":1390:1469   */\n      tag_261\n      tag_171\n      jump\t// in\n    tag_261:\n        /* \"#utility.yul\":1352:1471   */\n    tag_260:\n        /* \"#utility.yul\":1510:1511   */\n      0x00\n        /* \"#utility.yul\":1535:1588   */\n      tag_262\n        /* \"#utility.yul\":1580:1587   */\n      dup5\n        /* \"#utility.yul\":1571:1577   */\n      dup3\n        /* \"#utility.yul\":1560:1569   */\n      dup6\n        /* \"#utility.yul\":1556:1578   */\n      add\n        /* \"#utility.yul\":1535:1588   */\n      tag_176\n      jump\t// in\n    tag_262:\n        /* \"#utility.yul\":1525:1588   */\n      swap2\n      pop\n        /* \"#utility.yul\":1481:1598   */\n      pop\n        /* \"#utility.yul\":1276:1605   */\n      swap3\n      swap2\n      pop\n      pop\n      jump\t// out\n        /* \"#utility.yul\":1611:1715   */\n    tag_177:\n        /* \"#utility.yul\":1656:1663   */\n      0x00\n        /* \"#utility.yul\":1685:1709   */\n      tag_264\n        /* \"#utility.yul\":1703:1708   */\n      dup3\n        /* \"#utility.yul\":1685:1709   */\n      tag_173\n      jump\t// in\n    tag_264:\n        /* \"#utility.yul\":1674:1709   */\n      swap1\n      pop\n        /* \"#utility.yul\":1611:1715   */\n      swap2\n      swap1\n      pop\n      jump\t// out\n        /* \"#utility.yul\":1721:1859   */\n    tag_178:\n        /* \"#utility.yul\":1802:1834   */\n      tag_266\n        /* \"#utility.yul\":1828:1833   */\n      dup2\n        /* \"#utility.yul\":1802:1834   */\n      tag_177\n      jump\t// in\n    tag_266:\n        /* \"#utility.yul\":1795:1800   */\n      dup2\n        /* \"#utility.yul\":1792:1835   */\n      eq\n        /* \"#utility.yul\":1782:1853   */\n      tag_267\n      jumpi\n        /* \"#utility.yul\":1849:1850   */\n      0x00\n        /* \"#utility.yul\":1846:1847   */\n      0x00\n        /* \"#utility.yul\":1839:1851   */\n      revert\n        /* \"#utility.yul\":1782:1853   */\n    tag_267:\n        /* \"#utility.yul\":1721:1859   */\n      pop\n      jump\t// out\n        /* \"#utility.yul\":1865:2020   */\n    tag_179:\n        /* \"#utility.yul\":1919:1924   */\n      0x00\n        /* \"#utility.yul\":1957:1963   */\n      dup2\n        /* \"#utility.yul\":1944:1964   */\n      calldataload\n        /* \"#utility.yul\":1935:1964   */\n      swap1\n      pop\n        /* \"#utility.yul\":1973:2014   */\n      tag_269\n        /* \"#utility.yul\":2008:2013   */\n      dup2\n        /* \"#utility.yul\":1973:2014   */\n      tag_178\n      jump\t// in\n    tag_269:\n        /* \"#utility.yul\":1865:2020   */\n      swap3\n      swap2\n      pop\n      pop\n      jump\t// out\n        /* \"#utility.yul\":2026:2143   */\n    tag_180:\n        /* \"#utility.yul\":2135:2136   */\n      0x00\n        /* \"#utility.yul\":2132:2133   */\n      0x00\n        /* \"#utility.yul\":2125:2137   */\n      revert\n        /* \"#utility.yul\":2149:2266   */\n    tag_181:\n        /* \"#utility.yul\":2258:2259   */\n      0x00\n        /* \"#utility.yul\":2255:2256   */\n      0x00\n        /* \"#utility.yul\":2248:2260   */\n      revert\n        /* \"#utility.yul\":2272:2374   */\n    tag_182:\n        /* \"#utility.yul\":2313:2319   */\n      0x00\n        /* \"#utility.yul\":2364:2366   */\n      0x1f\n        /* \"#utility.yul\":2360:2367   */\n      not\n        /* \"#utility.yul\":2355:2357   */\n      0x1f\n        /* \"#utility.yul\":2348:2353   */\n      dup4\n        /* \"#utility.yul\":2344:2358   */\n      add\n        /* \"#utility.yul\":2340:2368   */\n      and\n        /* \"#utility.yul\":2330:2368   */\n      swap1\n      pop\n        /* \"#utility.yul\":2272:2374   */\n      swap2\n      swap1\n      pop\n      jump\t// out\n        /* \"#utility.yul\":2380:2560   */\n    tag_183:\n        /* \"#utility.yul\":2428:2505   */\n      0x4e487b7100000000000000000000000000000000000000000000000000000000\n        /* \"#utility.yul\":2425:2426   */\n      0x00\n        /* \"#utility.yul\":2418:2506   */\n      mstore\n        /* \"#utility.yul\":2525:2529   */\n      0x41\n        /* \"#utility.yul\":2522:2523   */\n      0x04\n        /* \"#utility.yul\":2515:2530   */\n      mstore\n        /* \"#utility.yul\":2549:2553   */\n      0x24\n        /* \"#utility.yul\":2546:2547   */\n      0x00\n        /* \"#utility.yul\":2539:2554   */\n      revert\n        /* \"#utility.yul\":2566:2847   */\n    tag_184:\n        /* \"#utility.yul\":2649:2676   */\n      tag_275\n        /* \"#utility.yul\":2671:2675   */\n      dup3\n        /* \"#utility.yul\":2649:2676   */\n      tag_182\n      jump\t// in\n    tag_275:\n        /* \"#utility.yul\":2641:2647   */\n      dup2\n        /* \"#utility.yul\":2637:2677   */\n      add\n        /* \"#utility.yul\":2779:2785   */\n      dup2\n        /* \"#utility.yul\":2767:2777   */\n      dup2\n        /* \"#utility.yul\":2764:2786   */\n      lt\n        /* \"#utility.yul\":2743:2761   */\n      0xffffffffffffffff\n        /* \"#utility.yul\":2731:2741   */\n      dup3\n        /* \"#utility.yul\":2728:2762   */\n      gt\n        /* \"#utility.yul\":2725:2787   */\n      or\n        /* \"#utility.yul\":2722:2810   */\n      iszero\n      tag_276\n      jumpi\n        /* \"#utility.yul\":2790:2808   */\n      tag_277\n      tag_183\n      jump\t// in\n    tag_277:\n        /* \"#utility.yul\":2722:2810   */\n    tag_276:\n        /* \"#utility.yul\":2830:2840   */\n      dup1\n        /* \"#utility.yul\":2826:2828   */\n      0x40\n        /* \"#utility.yul\":2819:2841   */\n      mstore\n        /* \"#utility.yul\":2609:2847   */\n      pop\n        /* \"#utility.yul\":2566:2847   */\n      pop\n      pop\n      jump\t// out\n        /* \"#utility.yul\":2853:2982   */\n    tag_185:\n        /* \"#utility.yul\":2887:2893   */\n      0x00\n        /* \"#utility.yul\":2914:2934   */\n      tag_279\n      tag_170\n      jump\t// in\n    tag_279:\n        /* \"#utility.yul\":2904:2934   */\n      swap1\n      pop\n        /* \"#utility.yul\":2943:2976   */\n      tag_280\n        /* \"#utility.yul\":2971:2975   */\n      dup3\n        /* \"#utility.yul\":2963:2969   */\n      dup3\n        /* \"#utility.yul\":2943:2976   */\n      tag_184\n      jump\t// in\n    tag_280:\n        /* \"#utility.yul\":2853:2982   */\n      swap2\n      swap1\n      pop\n      jump\t// out\n        /* \"#utility.yul\":2988:3296   */\n    tag_186:\n        /* \"#utility.yul\":3050:3054   */\n      0x00\n        /* \"#utility.yul\":3140:3158   */\n      0xffffffffffffffff\n        /* \"#utility.yul\":3132:3138   */\n      dup3\n        /* \"#utility.yul\":3129:3159   */\n      gt\n        /* \"#utility.yul\":3126:3182   */\n      iszero\n      tag_282\n      jumpi\n        /* \"#utility.yul\":3162:3180   */\n      tag_283\n      tag_183\n      jump\t// in\n    tag_283:\n        /* \"#utility.yul\":3126:3182   */\n    tag_282:\n        /* \"#utility.yul\":3200:3229   */\n      tag_284\n        /* \"#utility.yul\":3222:3228   */\n      dup3\n        /* \"#utility.yul\":3200:3229   */\n      tag_182\n      jump\t// in\n    tag_284:\n        /* \"#utility.yul\":3192:3229   */\n      swap1\n      pop\n        /* \"#utility.yul\":3284:3288   */\n      0x20\n        /* \"#utility.yul\":3278:3282   */\n      dup2\n        /* \"#utility.yul\":3274:3289   */\n      add\n        /* \"#utility.yul\":3266:3289   */\n      swap1\n      pop\n        /* \"#utility.yul\":2988:3296   */\n      swap2\n      swap1\n      pop\n      jump\t// out\n        /* \"#utility.yul\":3302:3450   */\n    tag_187:\n        /* \"#utility.yul\":3400:3406   */\n      dup3\n        /* \"#utility.yul\":3395:3398   */\n      dup2\n        /* \"#utility.yul\":3390:3393   */\n      dup4\n        /* \"#utility.yul\":3377:3407   */\n      calldatacopy\n        /* \"#utility.yul\":3441:3442   */\n      0x00\n        /* \"#utility.yul\":3432:3438   */\n      dup4\n        /* \"#utility.yul\":3427:3430   */\n      dup4\n        /* \"#utility.yul\":3423:3439   */\n      add\n        /* \"#utility.yul\":3416:3443   */\n      mstore\n        /* \"#utility.yul\":3302:3450   */\n      pop\n      pop\n      pop\n      jump\t// out\n        /* \"#utility.yul\":3456:3881   */\n    tag_188:\n        /* \"#utility.yul\":3534:3539   */\n      0x00\n        /* \"#utility.yul\":3559:3625   */\n      tag_287\n        /* \"#utility.yul\":3575:3624   */\n      tag_288\n        /* \"#utility.yul\":3617:3623   */\n      dup5\n        /* \"#utility.yul\":3575:3624   */\n      tag_186\n      jump\t// in\n    tag_288:\n        /* \"#utility.yul\":3559:3625   */\n      tag_185\n      jump\t// in\n    tag_287:\n        /* \"#utility.yul\":3550:3625   */\n      swap1\n      pop\n        /* \"#utility.yul\":3648:3654   */\n      dup3\n        /* \"#utility.yul\":3641:3646   */\n      dup2\n        /* \"#utility.yul\":3634:3655   */\n      mstore\n        /* \"#utility.yul\":3686:3690   */\n      0x20\n        /* \"#utility.yul\":3679:3684   */\n      dup2\n        /* \"#utility.yul\":3675:3691   */\n      add\n        /* \"#utility.yul\":3724:3727   */\n      dup5\n        /* \"#utility.yul\":3715:3721   */\n      dup5\n        /* \"#utility.yul\":3710:3713   */\n      dup5\n        /* \"#utility.yul\":3706:3722   */\n      add\n        /* \"#utility.yul\":3703:3728   */\n      gt\n        /* \"#utility.yul\":3700:3812   */\n      iszero\n      tag_289\n      jumpi\n        /* \"#utility.yul\":3731:3810   */\n      tag_290\n      tag_181\n      jump\t// in\n    tag_290:\n        /* \"#utility.yul\":3700:3812   */\n    tag_289:\n        /* \"#utility.yul\":3821:3875   */\n      tag_291\n        /* \"#utility.yul\":3868:3874   */\n      dup5\n        /* \"#utility.yul\":3863:3866   */\n      dup3\n        /* \"#utility.yul\":3858:3861   */\n      dup6\n        /* \"#utility.yul\":3821:3875   */\n      tag_187\n      jump\t// in\n    tag_291:\n        /* \"#utility.yul\":3540:3881   */\n      pop\n        /* \"#utility.yul\":3456:3881   */\n      swap4\n      swap3\n      pop\n      pop\n      pop\n      jump\t// out\n        /* \"#utility.yul\":3901:4241   */\n    tag_189:\n        /* \"#utility.yul\":3957:3962   */\n      0x00\n        /* \"#utility.yul\":4006:4009   */\n      dup3\n        /* \"#utility.yul\":3999:4003   */\n      0x1f\n        /* \"#utility.yul\":3991:3997   */\n      dup4\n        /* \"#utility.yul\":3987:4004   */\n      add\n        /* \"#utility.yul\":3983:4010   */\n      slt\n        /* \"#utility.yul\":3973:4095   */\n      tag_293\n      jumpi\n        /* \"#utility.yul\":4014:4093   */\n      tag_294\n      tag_180\n      jump\t// in\n    tag_294:\n        /* \"#utility.yul\":3973:4095   */\n    tag_293:\n        /* \"#utility.yul\":4131:4137   */\n      dup2\n        /* \"#utility.yul\":4118:4138   */\n      calldataload\n        /* \"#utility.yul\":4156:4235   */\n      tag_295\n        /* \"#utility.yul\":4231:4234   */\n      dup5\n        /* \"#utility.yul\":4223:4229   */\n      dup3\n        /* \"#utility.yul\":4216:4220   */\n      0x20\n        /* \"#utility.yul\":4208:4214   */\n      dup7\n        /* \"#utility.yul\":4204:4221   */\n      add\n        /* \"#utility.yul\":4156:4235   */\n      tag_188\n      jump\t// in\n    tag_295:\n        /* \"#utility.yul\":4147:4235   */\n      swap2\n      pop\n        /* \"#utility.yul\":3963:4241   */\n      pop\n        /* \"#utility.yul\":3901:4241   */\n      swap3\n      swap2\n      pop\n      pop\n      jump\t// out\n        /* \"#utility.yul\":4247:4369   */\n    tag_190:\n        /* \"#utility.yul\":4320:4344   */\n      tag_297\n        /* \"#utility.yul\":4338:4343   */\n      dup2\n        /* \"#utility.yul\":4320:4344   */\n      tag_168\n      jump\t// in\n    tag_297:\n        /* \"#utility.yul\":4313:4318   */\n      dup2\n        /* \"#utility.yul\":4310:4345   */\n      eq\n        /* \"#utility.yul\":4300:4363   */\n      tag_298\n      jumpi\n        /* \"#utility.yul\":4359:4360   */\n      0x00\n        /* \"#utility.yul\":4356:4357   */\n      0x00\n        /* \"#utility.yul\":4349:4361   */\n      revert\n        /* \"#utility.yul\":4300:4363   */\n    tag_298:\n        /* \"#utility.yul\":4247:4369   */\n      pop\n      jump\t// out\n        /* \"#utility.yul\":4375:4514   */\n    tag_191:\n        /* \"#utility.yul\":4421:4426   */\n      0x00\n        /* \"#utility.yul\":4459:4465   */\n      dup2\n        /* \"#utility.yul\":4446:4466   */\n      calldataload\n        /* \"#utility.yul\":4437:4466   */\n      swap1\n      pop\n        /* \"#utility.yul\":4475:4508   */\n      tag_300\n        /* \"#utility.yul\":4502:4507   */\n      dup2\n        /* \"#utility.yul\":4475:4508   */\n      tag_190\n      jump\t// in\n    tag_300:\n        /* \"#utility.yul\":4375:4514   */\n      swap3\n      swap2\n      pop\n      pop\n      jump\t// out\n        /* \"#utility.yul\":4520:5335   */\n    tag_33:\n        /* \"#utility.yul\":4615:4621   */\n      0x00\n        /* \"#utility.yul\":4623:4629   */\n      0x00\n        /* \"#utility.yul\":4631:4637   */\n      0x00\n        /* \"#utility.yul\":4680:4682   */\n      0x60\n        /* \"#utility.yul\":4668:4677   */\n      dup5\n        /* \"#utility.yul\":4659:4666   */\n      dup7\n        /* \"#utility.yul\":4655:4678   */\n      sub\n        /* \"#utility.yul\":4651:4683   */\n      slt\n        /* \"#utility.yul\":4648:4767   */\n      iszero\n      tag_302\n      jumpi\n        /* \"#utility.yul\":4686:4765   */\n      tag_303\n      tag_171\n      jump\t// in\n    tag_303:\n        /* \"#utility.yul\":4648:4767   */\n    tag_302:\n        /* \"#utility.yul\":4806:4807   */\n      0x00\n        /* \"#utility.yul\":4831:4892   */\n      tag_304\n        /* \"#utility.yul\":4884:4891   */\n      dup7\n        /* \"#utility.yul\":4875:4881   */\n      dup3\n        /* \"#utility.yul\":4864:4873   */\n      dup8\n        /* \"#utility.yul\":4860:4882   */\n      add\n        /* \"#utility.yul\":4831:4892   */\n      tag_179\n      jump\t// in\n    tag_304:\n        /* \"#utility.yul\":4821:4892   */\n      swap4\n      pop\n        /* \"#utility.yul\":4777:4902   */\n      pop\n        /* \"#utility.yul\":4969:4971   */\n      0x20\n        /* \"#utility.yul\":4958:4967   */\n      dup5\n        /* \"#utility.yul\":4954:4972   */\n      add\n        /* \"#utility.yul\":4941:4973   */\n      calldataload\n        /* \"#utility.yul\":5000:5018   */\n      0xffffffffffffffff\n        /* \"#utility.yul\":4992:4998   */\n      dup2\n        /* \"#utility.yul\":4989:5019   */\n      gt\n        /* \"#utility.yul\":4986:5103   */\n      iszero\n      tag_305\n      jumpi\n        /* \"#utility.yul\":5022:5101   */\n      tag_306\n      tag_172\n      jump\t// in\n    tag_306:\n        /* \"#utility.yul\":4986:5103   */\n    tag_305:\n        /* \"#utility.yul\":5127:5190   */\n      tag_307\n        /* \"#utility.yul\":5182:5189   */\n      dup7\n        /* \"#utility.yul\":5173:5179   */\n      dup3\n        /* \"#utility.yul\":5162:5171   */\n      dup8\n        /* \"#utility.yul\":5158:5180   */\n      add\n        /* \"#utility.yul\":5127:5190   */\n      tag_189\n      jump\t// in\n    tag_307:\n        /* \"#utility.yul\":5117:5190   */\n      swap3\n      pop\n        /* \"#utility.yul\":4912:5200   */\n      pop\n        /* \"#utility.yul\":5239:5241   */\n      0x40\n        /* \"#utility.yul\":5265:5318   */\n      tag_308\n        /* \"#utility.yul\":5310:5317   */\n      dup7\n        /* \"#utility.yul\":5301:5307   */\n      dup3\n        /* \"#utility.yul\":5290:5299   */\n      dup8\n        /* \"#utility.yul\":5286:5308   */\n      add\n        /* \"#utility.yul\":5265:5318   */\n      tag_191\n      jump\t// in\n    tag_308:\n        /* \"#utility.yul\":5255:5318   */\n      swap2\n      pop\n        /* \"#utility.yul\":5210:5328   */\n      pop\n        /* \"#utility.yul\":4520:5335   */\n      swap3\n      pop\n      swap3\n      pop\n      swap3\n      jump\t// out\n        /* \"#utility.yul\":5341:5479   */\n    tag_192:\n        /* \"#utility.yul\":5432:5438   */\n      0x00\n        /* \"#utility.yul\":5466:5471   */\n      dup2\n        /* \"#utility.yul\":5460:5472   */\n      mload\n        /* \"#utility.yul\":5450:5472   */\n      swap1\n      pop\n        /* \"#utility.yul\":5341:5479   */\n      swap2\n      swap1\n      pop\n      jump\t// out\n        /* \"#utility.yul\":5485:5693   */\n    tag_193:\n        /* \"#utility.yul\":5608:5619   */\n      0x00\n        /* \"#utility.yul\":5642:5648   */\n      dup3\n        /* \"#utility.yul\":5637:5640   */\n      dup3\n        /* \"#utility.yul\":5630:5649   */\n      mstore\n        /* \"#utility.yul\":5682:5686   */\n      0x20\n        /* \"#utility.yul\":5677:5680   */\n      dup3\n        /* \"#utility.yul\":5673:5687   */\n      add\n        /* \"#utility.yul\":5658:5687   */\n      swap1\n      pop\n        /* \"#utility.yul\":5485:5693   */\n      swap3\n      swap2\n      pop\n      pop\n      jump\t// out\n        /* \"#utility.yul\":5699:5855   */\n    tag_194:\n        /* \"#utility.yul\":5790:5794   */\n      0x00\n        /* \"#utility.yul\":5813:5816   */\n      dup2\n        /* \"#utility.yul\":5805:5816   */\n      swap1\n      pop\n        /* \"#utility.yul\":5843:5847   */\n      0x20\n        /* \"#utility.yul\":5838:5841   */\n      dup3\n        /* \"#utility.yul\":5834:5848   */\n      add\n        /* \"#utility.yul\":5826:5848   */\n      swap1\n      pop\n        /* \"#utility.yul\":5699:5855   */\n      swap2\n      swap1\n      pop\n      jump\t// out\n        /* \"#utility.yul\":5861:5993   */\n    tag_195:\n        /* \"#utility.yul\":5954:5986   */\n      tag_313\n        /* \"#utility.yul\":5980:5985   */\n      dup2\n        /* \"#utility.yul\":5954:5986   */\n      tag_177\n      jump\t// in\n    tag_313:\n        /* \"#utility.yul\":5949:5952   */\n      dup3\n        /* \"#utility.yul\":5942:5987   */\n      mstore\n        /* \"#utility.yul\":5861:5993   */\n      pop\n      pop\n      jump\t// out\n        /* \"#utility.yul\":5999:6098   */\n    tag_196:\n        /* \"#utility.yul\":6051:6057   */\n      0x00\n        /* \"#utility.yul\":6085:6090   */\n      dup2\n        /* \"#utility.yul\":6079:6091   */\n      mload\n        /* \"#utility.yul\":6069:6091   */\n      swap1\n      pop\n        /* \"#utility.yul\":5999:6098   */\n      swap2\n      swap1\n      pop\n      jump\t// out\n        /* \"#utility.yul\":6104:6263   */\n    tag_197:\n        /* \"#utility.yul\":6178:6189   */\n      0x00\n        /* \"#utility.yul\":6212:6218   */\n      dup3\n        /* \"#utility.yul\":6207:6210   */\n      dup3\n        /* \"#utility.yul\":6200:6219   */\n      mstore\n        /* \"#utility.yul\":6252:6256   */\n      0x20\n        /* \"#utility.yul\":6247:6250   */\n      dup3\n        /* \"#utility.yul\":6243:6257   */\n      add\n        /* \"#utility.yul\":6228:6257   */\n      swap1\n      pop\n        /* \"#utility.yul\":6104:6263   */\n      swap3\n      swap2\n      pop\n      pop\n      jump\t// out\n        /* \"#utility.yul\":6269:6408   */\n    tag_198:\n        /* \"#utility.yul\":6358:6364   */\n      dup3\n        /* \"#utility.yul\":6353:6356   */\n      dup2\n        /* \"#utility.yul\":6348:6351   */\n      dup4\n        /* \"#utility.yul\":6342:6365   */\n      mcopy\n        /* \"#utility.yul\":6399:6400   */\n      0x00\n        /* \"#utility.yul\":6390:6396   */\n      dup4\n        /* \"#utility.yul\":6385:6388   */\n      dup4\n        /* \"#utility.yul\":6381:6397   */\n      add\n        /* \"#utility.yul\":6374:6401   */\n      mstore\n        /* \"#utility.yul\":6269:6408   */\n      pop\n      pop\n      pop\n      jump\t// out\n        /* \"#utility.yul\":6414:6771   */\n    tag_199:\n        /* \"#utility.yul\":6492:6495   */\n      0x00\n        /* \"#utility.yul\":6520:6559   */\n      tag_318\n        /* \"#utility.yul\":6553:6558   */\n      dup3\n        /* \"#utility.yul\":6520:6559   */\n      tag_196\n      jump\t// in\n    tag_318:\n        /* \"#utility.yul\":6575:6636   */\n      tag_319\n        /* \"#utility.yul\":6629:6635   */\n      dup2\n        /* \"#utility.yul\":6624:6627   */\n      dup6\n        /* \"#utility.yul\":6575:6636   */\n      tag_197\n      jump\t// in\n    tag_319:\n        /* \"#utility.yul\":6568:6636   */\n      swap4\n      pop\n        /* \"#utility.yul\":6645:6710   */\n      tag_320\n        /* \"#utility.yul\":6703:6709   */\n      dup2\n        /* \"#utility.yul\":6698:6701   */\n      dup6\n        /* \"#utility.yul\":6691:6695   */\n      0x20\n        /* \"#utility.yul\":6684:6689   */\n      dup7\n        /* \"#utility.yul\":6680:6696   */\n      add\n        /* \"#utility.yul\":6645:6710   */\n      tag_198\n      jump\t// in\n    tag_320:\n        /* \"#utility.yul\":6735:6764   */\n      tag_321\n        /* \"#utility.yul\":6757:6763   */\n      dup2\n        /* \"#utility.yul\":6735:6764   */\n      tag_182\n      jump\t// in\n    tag_321:\n        /* \"#utility.yul\":6730:6733   */\n      dup5\n        /* \"#utility.yul\":6726:6765   */\n      add\n        /* \"#utility.yul\":6719:6765   */\n      swap2\n      pop\n        /* \"#utility.yul\":6496:6771   */\n      pop\n        /* \"#utility.yul\":6414:6771   */\n      swap3\n      swap2\n      pop\n      pop\n      jump\t// out\n        /* \"#utility.yul\":6777:6885   */\n    tag_200:\n        /* \"#utility.yul\":6854:6878   */\n      tag_323\n        /* \"#utility.yul\":6872:6877   */\n      dup2\n        /* \"#utility.yul\":6854:6878   */\n      tag_168\n      jump\t// in\n    tag_323:\n        /* \"#utility.yul\":6849:6852   */\n      dup3\n        /* \"#utility.yul\":6842:6879   */\n      mstore\n        /* \"#utility.yul\":6777:6885   */\n      pop\n      pop\n      jump\t// out\n        /* \"#utility.yul\":6943:7739   */\n    tag_201:\n        /* \"#utility.yul\":7050:7053   */\n      0x00\n        /* \"#utility.yul\":7086:7090   */\n      0x60\n        /* \"#utility.yul\":7081:7084   */\n      dup4\n        /* \"#utility.yul\":7077:7091   */\n      add\n        /* \"#utility.yul\":7182:7186   */\n      0x00\n        /* \"#utility.yul\":7175:7180   */\n      dup4\n        /* \"#utility.yul\":7171:7187   */\n      add\n        /* \"#utility.yul\":7165:7188   */\n      mload\n        /* \"#utility.yul\":7201:7280   */\n      tag_325\n        /* \"#utility.yul\":7274:7278   */\n      0x00\n        /* \"#utility.yul\":7269:7272   */\n      dup7\n        /* \"#utility.yul\":7265:7279   */\n      add\n        /* \"#utility.yul\":7251:7263   */\n      dup3\n        /* \"#utility.yul\":7201:7280   */\n      tag_195\n      jump\t// in\n    tag_325:\n        /* \"#utility.yul\":7101:7290   */\n      pop\n        /* \"#utility.yul\":7372:7376   */\n      0x20\n        /* \"#utility.yul\":7365:7370   */\n      dup4\n        /* \"#utility.yul\":7361:7377   */\n      add\n        /* \"#utility.yul\":7355:7378   */\n      mload\n        /* \"#utility.yul\":7425:7428   */\n      dup5\n        /* \"#utility.yul\":7419:7423   */\n      dup3\n        /* \"#utility.yul\":7415:7429   */\n      sub\n        /* \"#utility.yul\":7408:7412   */\n      0x20\n        /* \"#utility.yul\":7403:7406   */\n      dup7\n        /* \"#utility.yul\":7399:7413   */\n      add\n        /* \"#utility.yul\":7392:7430   */\n      mstore\n        /* \"#utility.yul\":7451:7524   */\n      tag_326\n        /* \"#utility.yul\":7519:7523   */\n      dup3\n        /* \"#utility.yul\":7505:7517   */\n      dup3\n        /* \"#utility.yul\":7451:7524   */\n      tag_199\n      jump\t// in\n    tag_326:\n        /* \"#utility.yul\":7443:7524   */\n      swap2\n      pop\n        /* \"#utility.yul\":7300:7535   */\n      pop\n        /* \"#utility.yul\":7620:7624   */\n      0x40\n        /* \"#utility.yul\":7613:7618   */\n      dup4\n        /* \"#utility.yul\":7609:7625   */\n      add\n        /* \"#utility.yul\":7603:7626   */\n      mload\n        /* \"#utility.yul\":7639:7702   */\n      tag_327\n        /* \"#utility.yul\":7696:7700   */\n      0x40\n        /* \"#utility.yul\":7691:7694   */\n      dup7\n        /* \"#utility.yul\":7687:7701   */\n      add\n        /* \"#utility.yul\":7673:7685   */\n      dup3\n        /* \"#utility.yul\":7639:7702   */\n      tag_200\n      jump\t// in\n    tag_327:\n        /* \"#utility.yul\":7545:7712   */\n      pop\n        /* \"#utility.yul\":7729:7733   */\n      dup1\n        /* \"#utility.yul\":7722:7733   */\n      swap2\n      pop\n        /* \"#utility.yul\":7055:7739   */\n      pop\n        /* \"#utility.yul\":6943:7739   */\n      swap3\n      swap2\n      pop\n      pop\n      jump\t// out\n        /* \"#utility.yul\":7745:7997   */\n    tag_202:\n        /* \"#utility.yul\":7862:7872   */\n      0x00\n        /* \"#utility.yul\":7897:7991   */\n      tag_329\n        /* \"#utility.yul\":7987:7990   */\n      dup4\n        /* \"#utility.yul\":7979:7985   */\n      dup4\n        /* \"#utility.yul\":7897:7991   */\n      tag_201\n      jump\t// in\n    tag_329:\n        /* \"#utility.yul\":7883:7991   */\n      swap1\n      pop\n        /* \"#utility.yul\":7745:7997   */\n      swap3\n      swap2\n      pop\n      pop\n      jump\t// out\n        /* \"#utility.yul\":8003:8140   */\n    tag_203:\n        /* \"#utility.yul\":8097:8101   */\n      0x00\n        /* \"#utility.yul\":8129:8133   */\n      0x20\n        /* \"#utility.yul\":8124:8127   */\n      dup3\n        /* \"#utility.yul\":8120:8134   */\n      add\n        /* \"#utility.yul\":8112:8134   */\n      swap1\n      pop\n        /* \"#utility.yul\":8003:8140   */\n      swap2\n      swap1\n      pop\n      jump\t// out\n        /* \"#utility.yul\":8202:9305   */\n    tag_204:\n        /* \"#utility.yul\":8369:8372   */\n      0x00\n        /* \"#utility.yul\":8398:8476   */\n      tag_332\n        /* \"#utility.yul\":8470:8475   */\n      dup3\n        /* \"#utility.yul\":8398:8476   */\n      tag_192\n      jump\t// in\n    tag_332:\n        /* \"#utility.yul\":8492:8602   */\n      tag_333\n        /* \"#utility.yul\":8595:8601   */\n      dup2\n        /* \"#utility.yul\":8590:8593   */\n      dup6\n        /* \"#utility.yul\":8492:8602   */\n      tag_193\n      jump\t// in\n    tag_333:\n        /* \"#utility.yul\":8485:8602   */\n      swap4\n      pop\n        /* \"#utility.yul\":8628:8631   */\n      dup4\n        /* \"#utility.yul\":8673:8677   */\n      0x20\n        /* \"#utility.yul\":8665:8671   */\n      dup3\n        /* \"#utility.yul\":8661:8678   */\n      mul\n        /* \"#utility.yul\":8656:8659   */\n      dup6\n        /* \"#utility.yul\":8652:8679   */\n      add\n        /* \"#utility.yul\":8703:8783   */\n      tag_334\n        /* \"#utility.yul\":8777:8782   */\n      dup6\n        /* \"#utility.yul\":8703:8783   */\n      tag_194\n      jump\t// in\n    tag_334:\n        /* \"#utility.yul\":8806:8813   */\n      dup1\n        /* \"#utility.yul\":8837:8838   */\n      0x00\n        /* \"#utility.yul\":8822:9260   */\n    tag_335:\n        /* \"#utility.yul\":8847:8853   */\n      dup6\n        /* \"#utility.yul\":8844:8845   */\n      dup2\n        /* \"#utility.yul\":8841:8854   */\n      lt\n        /* \"#utility.yul\":8822:9260   */\n      iszero\n      tag_337\n      jumpi\n        /* \"#utility.yul\":8918:8927   */\n      dup5\n        /* \"#utility.yul\":8912:8916   */\n      dup5\n        /* \"#utility.yul\":8908:8928   */\n      sub\n        /* \"#utility.yul\":8903:8906   */\n      dup10\n        /* \"#utility.yul\":8896:8929   */\n      mstore\n        /* \"#utility.yul\":8969:8975   */\n      dup2\n        /* \"#utility.yul\":8963:8976   */\n      mload\n        /* \"#utility.yul\":8997:9109   */\n      tag_338\n        /* \"#utility.yul\":9104:9108   */\n      dup6\n        /* \"#utility.yul\":9089:9102   */\n      dup3\n        /* \"#utility.yul\":8997:9109   */\n      tag_202\n      jump\t// in\n    tag_338:\n        /* \"#utility.yul\":8989:9109   */\n      swap5\n      pop\n        /* \"#utility.yul\":9132:9216   */\n      tag_339\n        /* \"#utility.yul\":9209:9215   */\n      dup4\n        /* \"#utility.yul\":9132:9216   */\n      tag_203\n      jump\t// in\n    tag_339:\n        /* \"#utility.yul\":9122:9216   */\n      swap3\n      pop\n        /* \"#utility.yul\":9245:9249   */\n      0x20\n        /* \"#utility.yul\":9240:9243   */\n      dup11\n        /* \"#utility.yul\":9236:9250   */\n      add\n        /* \"#utility.yul\":9229:9250   */\n      swap10\n      pop\n        /* \"#utility.yul\":8882:9260   */\n      pop\n        /* \"#utility.yul\":8869:8870   */\n      0x01\n        /* \"#utility.yul\":8866:8867   */\n      dup2\n        /* \"#utility.yul\":8862:8871   */\n      add\n        /* \"#utility.yul\":8857:8871   */\n      swap1\n      pop\n        /* \"#utility.yul\":8822:9260   */\n      jump(tag_335)\n    tag_337:\n        /* \"#utility.yul\":8826:8840   */\n      pop\n        /* \"#utility.yul\":9276:9280   */\n      dup3\n        /* \"#utility.yul\":9269:9280   */\n      swap8\n      pop\n        /* \"#utility.yul\":9296:9299   */\n      dup8\n        /* \"#utility.yul\":9289:9299   */\n      swap6\n      pop\n        /* \"#utility.yul\":8374:9305   */\n      pop\n      pop\n      pop\n      pop\n      pop\n        /* \"#utility.yul\":8202:9305   */\n      swap3\n      swap2\n      pop\n      pop\n      jump\t// out\n        /* \"#utility.yul\":9311:9780   */\n    tag_39:\n        /* \"#utility.yul\":9502:9506   */\n      0x00\n        /* \"#utility.yul\":9540:9542   */\n      0x20\n        /* \"#utility.yul\":9529:9538   */\n      dup3\n        /* \"#utility.yul\":9525:9543   */\n      add\n        /* \"#utility.yul\":9517:9543   */\n      swap1\n      pop\n        /* \"#utility.yul\":9589:9598   */\n      dup2\n        /* \"#utility.yul\":9583:9587   */\n      dup2\n        /* \"#utility.yul\":9579:9599   */\n      sub\n        /* \"#utility.yul\":9575:9576   */\n      0x00\n        /* \"#utility.yul\":9564:9573   */\n      dup4\n        /* \"#utility.yul\":9560:9577   */\n      add\n        /* \"#utility.yul\":9553:9600   */\n      mstore\n        /* \"#utility.yul\":9617:9773   */\n      tag_341\n        /* \"#utility.yul\":9768:9772   */\n      dup2\n        /* \"#utility.yul\":9759:9765   */\n      dup5\n        /* \"#utility.yul\":9617:9773   */\n      tag_204\n      jump\t// in\n    tag_341:\n        /* \"#utility.yul\":9609:9773   */\n      swap1\n      pop\n        /* \"#utility.yul\":9311:9780   */\n      swap3\n      swap2\n      pop\n      pop\n      jump\t// out\n        /* \"#utility.yul\":9786:10115   */\n    tag_43:\n        /* \"#utility.yul\":9845:9851   */\n      0x00\n        /* \"#utility.yul\":9894:9896   */\n      0x20\n        /* \"#utility.yul\":9882:9891   */\n      dup3\n        /* \"#utility.yul\":9873:9880   */\n      dup5\n        /* \"#utility.yul\":9869:9892   */\n      sub\n        /* \"#utility.yul\":9865:9897   */\n      slt\n        /* \"#utility.yul\":9862:9981   */\n      iszero\n      tag_343\n      jumpi\n        /* \"#utility.yul\":9900:9979   */\n      tag_344\n      tag_171\n      jump\t// in\n    tag_344:\n        /* \"#utility.yul\":9862:9981   */\n    tag_343:\n        /* \"#utility.yul\":10020:10021   */\n      0x00\n        /* \"#utility.yul\":10045:10098   */\n      tag_345\n        /* \"#utility.yul\":10090:10097   */\n      dup5\n        /* \"#utility.yul\":10081:10087   */\n      dup3\n        /* \"#utility.yul\":10070:10079   */\n      dup6\n        /* \"#utility.yul\":10066:10088   */\n      add\n        /* \"#utility.yul\":10045:10098   */\n      tag_191\n      jump\t// in\n    tag_345:\n        /* \"#utility.yul\":10035:10098   */\n      swap2\n      pop\n        /* \"#utility.yul\":9991:10108   */\n      pop\n        /* \"#utility.yul\":9786:10115   */\n      swap3\n      swap2\n      pop\n      pop\n      jump\t// out\n        /* \"#utility.yul\":10121:10263   */\n    tag_205:\n        /* \"#utility.yul\":10224:10256   */\n      tag_347\n        /* \"#utility.yul\":10250:10255   */\n      dup2\n        /* \"#utility.yul\":10224:10256   */\n      tag_177\n      jump\t// in\n    tag_347:\n        /* \"#utility.yul\":10219:10222   */\n      dup3\n        /* \"#utility.yul\":10212:10257   */\n      mstore\n        /* \"#utility.yul\":10121:10263   */\n      pop\n      pop\n      jump\t// out\n        /* \"#utility.yul\":10269:10438   */\n    tag_206:\n        /* \"#utility.yul\":10353:10364   */\n      0x00\n        /* \"#utility.yul\":10387:10393   */\n      dup3\n        /* \"#utility.yul\":10382:10385   */\n      dup3\n        /* \"#utility.yul\":10375:10394   */\n      mstore\n        /* \"#utility.yul\":10427:10431   */\n      0x20\n        /* \"#utility.yul\":10422:10425   */\n      dup3\n        /* \"#utility.yul\":10418:10432   */\n      add\n        /* \"#utility.yul\":10403:10432   */\n      swap1\n      pop\n        /* \"#utility.yul\":10269:10438   */\n      swap3\n      swap2\n      pop\n      pop\n      jump\t// out\n        /* \"#utility.yul\":10444:10821   */\n    tag_207:\n        /* \"#utility.yul\":10532:10535   */\n      0x00\n        /* \"#utility.yul\":10560:10599   */\n      tag_350\n        /* \"#utility.yul\":10593:10598   */\n      dup3\n        /* \"#utility.yul\":10560:10599   */\n      tag_196\n      jump\t// in\n    tag_350:\n        /* \"#utility.yul\":10615:10686   */\n      tag_351\n        /* \"#utility.yul\":10679:10685   */\n      dup2\n        /* \"#utility.yul\":10674:10677   */\n      dup6\n        /* \"#utility.yul\":10615:10686   */\n      tag_206\n      jump\t// in\n    tag_351:\n        /* \"#utility.yul\":10608:10686   */\n      swap4\n      pop\n        /* \"#utility.yul\":10695:10760   */\n      tag_352\n        /* \"#utility.yul\":10753:10759   */\n      dup2\n        /* \"#utility.yul\":10748:10751   */\n      dup6\n        /* \"#utility.yul\":10741:10745   */\n      0x20\n        /* \"#utility.yul\":10734:10739   */\n      dup7\n        /* \"#utility.yul\":10730:10746   */\n      add\n        /* \"#utility.yul\":10695:10760   */\n      tag_198\n      jump\t// in\n    tag_352:\n        /* \"#utility.yul\":10785:10814   */\n      tag_353\n        /* \"#utility.yul\":10807:10813   */\n      dup2\n        /* \"#utility.yul\":10785:10814   */\n      tag_182\n      jump\t// in\n    tag_353:\n        /* \"#utility.yul\":10780:10783   */\n      dup5\n        /* \"#utility.yul\":10776:10815   */\n      add\n        /* \"#utility.yul\":10769:10815   */\n      swap2\n      pop\n        /* \"#utility.yul\":10536:10821   */\n      pop\n        /* \"#utility.yul\":10444:10821   */\n      swap3\n      swap2\n      pop\n      pop\n      jump\t// out\n        /* \"#utility.yul\":10827:11392   */\n    tag_46:\n        /* \"#utility.yul\":11012:11016   */\n      0x00\n        /* \"#utility.yul\":11050:11052   */\n      0x60\n        /* \"#utility.yul\":11039:11048   */\n      dup3\n        /* \"#utility.yul\":11035:11053   */\n      add\n        /* \"#utility.yul\":11027:11053   */\n      swap1\n      pop\n        /* \"#utility.yul\":11063:11150   */\n      tag_355\n        /* \"#utility.yul\":11147:11148   */\n      0x00\n        /* \"#utility.yul\":11136:11145   */\n      dup4\n        /* \"#utility.yul\":11132:11149   */\n      add\n        /* \"#utility.yul\":11123:11129   */\n      dup7\n        /* \"#utility.yul\":11063:11150   */\n      tag_205\n      jump\t// in\n    tag_355:\n        /* \"#utility.yul\":11197:11206   */\n      dup2\n        /* \"#utility.yul\":11191:11195   */\n      dup2\n        /* \"#utility.yul\":11187:11207   */\n      sub\n        /* \"#utility.yul\":11182:11184   */\n      0x20\n        /* \"#utility.yul\":11171:11180   */\n      dup4\n        /* \"#utility.yul\":11167:11185   */\n      add\n        /* \"#utility.yul\":11160:11208   */\n      mstore\n        /* \"#utility.yul\":11225:11303   */\n      tag_356\n        /* \"#utility.yul\":11298:11302   */\n      dup2\n        /* \"#utility.yul\":11289:11295   */\n      dup6\n        /* \"#utility.yul\":11225:11303   */\n      tag_207\n      jump\t// in\n    tag_356:\n        /* \"#utility.yul\":11217:11303   */\n      swap1\n      pop\n        /* \"#utility.yul\":11313:11385   */\n      tag_357\n        /* \"#utility.yul\":11381:11383   */\n      0x40\n        /* \"#utility.yul\":11370:11379   */\n      dup4\n        /* \"#utility.yul\":11366:11384   */\n      add\n        /* \"#utility.yul\":11357:11363   */\n      dup5\n        /* \"#utility.yul\":11313:11385   */\n      tag_169\n      jump\t// in\n    tag_357:\n        /* \"#utility.yul\":10827:11392   */\n      swap5\n      swap4\n      pop\n      pop\n      pop\n      pop\n      jump\t// out\n        /* \"#utility.yul\":11398:11567   */\n    tag_208:\n        /* \"#utility.yul\":11538:11559   */\n      0x4f6e6c79206f776e65722063616e2063616c6c00000000000000000000000000\n        /* \"#utility.yul\":11534:11535   */\n      0x00\n        /* \"#utility.yul\":11526:11532   */\n      dup3\n        /* \"#utility.yul\":11522:11536   */\n      add\n        /* \"#utility.yul\":11515:11560   */\n      mstore\n        /* \"#utility.yul\":11398:11567   */\n      pop\n      jump\t// out\n        /* \"#utility.yul\":11573:11939   */\n    tag_209:\n        /* \"#utility.yul\":11715:11718   */\n      0x00\n        /* \"#utility.yul\":11736:11803   */\n      tag_360\n        /* \"#utility.yul\":11800:11802   */\n      0x13\n        /* \"#utility.yul\":11795:11798   */\n      dup4\n        /* \"#utility.yul\":11736:11803   */\n      tag_206\n      jump\t// in\n    tag_360:\n        /* \"#utility.yul\":11729:11803   */\n      swap2\n      pop\n        /* \"#utility.yul\":11812:11905   */\n      tag_361\n        /* \"#utility.yul\":11901:11904   */\n      dup3\n        /* \"#utility.yul\":11812:11905   */\n      tag_208\n      jump\t// in\n    tag_361:\n        /* \"#utility.yul\":11930:11932   */\n      0x20\n        /* \"#utility.yul\":11925:11928   */\n      dup3\n        /* \"#utility.yul\":11921:11933   */\n      add\n        /* \"#utility.yul\":11914:11933   */\n      swap1\n      pop\n        /* \"#utility.yul\":11573:11939   */\n      swap2\n      swap1\n      pop\n      jump\t// out\n        /* \"#utility.yul\":11945:12364   */\n    tag_51:\n        /* \"#utility.yul\":12111:12115   */\n      0x00\n        /* \"#utility.yul\":12149:12151   */\n      0x20\n        /* \"#utility.yul\":12138:12147   */\n      dup3\n        /* \"#utility.yul\":12134:12152   */\n      add\n        /* \"#utility.yul\":12126:12152   */\n      swap1\n      pop\n        /* \"#utility.yul\":12198:12207   */\n      dup2\n        /* \"#utility.yul\":12192:12196   */\n      dup2\n        /* \"#utility.yul\":12188:12208   */\n      sub\n        /* \"#utility.yul\":12184:12185   */\n      0x00\n        /* \"#utility.yul\":12173:12182   */\n      dup4\n        /* \"#utility.yul\":12169:12186   */\n      add\n        /* \"#utility.yul\":12162:12209   */\n      mstore\n        /* \"#utility.yul\":12226:12357   */\n      tag_363\n        /* \"#utility.yul\":12352:12356   */\n      dup2\n        /* \"#utility.yul\":12226:12357   */\n      tag_209\n      jump\t// in\n    tag_363:\n        /* \"#utility.yul\":12218:12357   */\n      swap1\n      pop\n        /* \"#utility.yul\":11945:12364   */\n      swap2\n      swap1\n      pop\n      jump\t// out\n        /* \"#utility.yul\":12370:12550   */\n    tag_58:\n        /* \"#utility.yul\":12418:12495   */\n      0x4e487b7100000000000000000000000000000000000000000000000000000000\n        /* \"#utility.yul\":12415:12416   */\n      0x00\n        /* \"#utility.yul\":12408:12496   */\n      mstore\n        /* \"#utility.yul\":12515:12519   */\n      0x32\n        /* \"#utility.yul\":12512:12513   */\n      0x04\n        /* \"#utility.yul\":12505:12520   */\n      mstore\n        /* \"#utility.yul\":12539:12543   */\n      0x24\n        /* \"#utility.yul\":12536:12537   */\n      0x00\n        /* \"#utility.yul\":12529:12544   */\n      revert\n        /* \"#utility.yul\":12556:12736   */\n    tag_210:\n        /* \"#utility.yul\":12604:12681   */\n      0x4e487b7100000000000000000000000000000000000000000000000000000000\n        /* \"#utility.yul\":12601:12602   */\n      0x00\n        /* \"#utility.yul\":12594:12682   */\n      mstore\n        /* \"#utility.yul\":12701:12705   */\n      0x11\n        /* \"#utility.yul\":12698:12699   */\n      0x04\n        /* \"#utility.yul\":12691:12706   */\n      mstore\n        /* \"#utility.yul\":12725:12729   */\n      0x24\n        /* \"#utility.yul\":12722:12723   */\n      0x00\n        /* \"#utility.yul\":12715:12730   */\n      revert\n        /* \"#utility.yul\":12742:12936   */\n    tag_65:\n        /* \"#utility.yul\":12782:12786   */\n      0x00\n        /* \"#utility.yul\":12802:12822   */\n      tag_367\n        /* \"#utility.yul\":12820:12821   */\n      dup3\n        /* \"#utility.yul\":12802:12822   */\n      tag_168\n      jump\t// in\n    tag_367:\n        /* \"#utility.yul\":12797:12822   */\n      swap2\n      pop\n        /* \"#utility.yul\":12836:12856   */\n      tag_368\n        /* \"#utility.yul\":12854:12855   */\n      dup4\n        /* \"#utility.yul\":12836:12856   */\n      tag_168\n      jump\t// in\n    tag_368:\n        /* \"#utility.yul\":12831:12856   */\n      swap3\n      pop\n        /* \"#utility.yul\":12880:12881   */\n      dup3\n        /* \"#utility.yul\":12877:12878   */\n      dup3\n        /* \"#utility.yul\":12873:12882   */\n      sub\n        /* \"#utility.yul\":12865:12882   */\n      swap1\n      pop\n        /* \"#utility.yul\":12904:12905   */\n      dup2\n        /* \"#utility.yul\":12898:12902   */\n      dup2\n        /* \"#utility.yul\":12895:12906   */\n      gt\n        /* \"#utility.yul\":12892:12929   */\n      iszero\n      tag_369\n      jumpi\n        /* \"#utility.yul\":12909:12927   */\n      tag_370\n      tag_210\n      jump\t// in\n    tag_370:\n        /* \"#utility.yul\":12892:12929   */\n    tag_369:\n        /* \"#utility.yul\":12742:12936   */\n      swap3\n      swap2\n      pop\n      pop\n      jump\t// out\n        /* \"#utility.yul\":12942:13133   */\n    tag_67:\n        /* \"#utility.yul\":12982:12985   */\n      0x00\n        /* \"#utility.yul\":13001:13021   */\n      tag_372\n        /* \"#utility.yul\":13019:13020   */\n      dup3\n        /* \"#utility.yul\":13001:13021   */\n      tag_168\n      jump\t// in\n    tag_372:\n        /* \"#utility.yul\":12996:13021   */\n      swap2\n      pop\n        /* \"#utility.yul\":13035:13055   */\n      tag_373\n        /* \"#utility.yul\":13053:13054   */\n      dup4\n        /* \"#utility.yul\":13035:13055   */\n      tag_168\n      jump\t// in\n    tag_373:\n        /* \"#utility.yul\":13030:13055   */\n      swap3\n      pop\n        /* \"#utility.yul\":13078:13079   */\n      dup3\n        /* \"#utility.yul\":13075:13076   */\n      dup3\n        /* \"#utility.yul\":13071:13080   */\n      add\n        /* \"#utility.yul\":13064:13080   */\n      swap1\n      pop\n        /* \"#utility.yul\":13099:13102   */\n      dup1\n        /* \"#utility.yul\":13096:13097   */\n      dup3\n        /* \"#utility.yul\":13093:13103   */\n      gt\n        /* \"#utility.yul\":13090:13126   */\n      iszero\n      tag_374\n      jumpi\n        /* \"#utility.yul\":13106:13124   */\n      tag_375\n      tag_210\n      jump\t// in\n    tag_375:\n        /* \"#utility.yul\":13090:13126   */\n    tag_374:\n        /* \"#utility.yul\":12942:13133   */\n      swap3\n      swap2\n      pop\n      pop\n      jump\t// out\n        /* \"#utility.yul\":13139:13319   */\n    tag_211:\n        /* \"#utility.yul\":13187:13264   */\n      0x4e487b7100000000000000000000000000000000000000000000000000000000\n        /* \"#utility.yul\":13184:13185   */\n      0x00\n        /* \"#utility.yul\":13177:13265   */\n      mstore\n        /* \"#utility.yul\":13284:13288   */\n      0x22\n        /* \"#utility.yul\":13281:13282   */\n      0x04\n        /* \"#utility.yul\":13274:13289   */\n      mstore\n        /* \"#utility.yul\":13308:13312   */\n      0x24\n        /* \"#utility.yul\":13305:13306   */\n      0x00\n        /* \"#utility.yul\":13298:13313   */\n      revert\n        /* \"#utility.yul\":13325:13645   */\n    tag_140:\n        /* \"#utility.yul\":13369:13375   */\n      0x00\n        /* \"#utility.yul\":13406:13407   */\n      0x02\n        /* \"#utility.yul\":13400:13404   */\n      dup3\n        /* \"#utility.yul\":13396:13408   */\n      div\n        /* \"#utility.yul\":13386:13408   */\n      swap1\n      pop\n        /* \"#utility.yul\":13453:13454   */\n      0x01\n        /* \"#utility.yul\":13447:13451   */\n      dup3\n        /* \"#utility.yul\":13443:13455   */\n      and\n        /* \"#utility.yul\":13474:13492   */\n      dup1\n        /* \"#utility.yul\":13464:13545   */\n      tag_378\n      jumpi\n        /* \"#utility.yul\":13530:13534   */\n      0x7f\n        /* \"#utility.yul\":13522:13528   */\n      dup3\n        /* \"#utility.yul\":13518:13535   */\n      and\n        /* \"#utility.yul\":13508:13535   */\n      swap2\n      pop\n        /* \"#utility.yul\":13464:13545   */\n    tag_378:\n        /* \"#utility.yul\":13592:13594   */\n      0x20\n        /* \"#utility.yul\":13584:13590   */\n      dup3\n        /* \"#utility.yul\":13581:13595   */\n      lt\n        /* \"#utility.yul\":13561:13579   */\n      dup2\n        /* \"#utility.yul\":13558:13596   */\n      sub\n        /* \"#utility.yul\":13555:13639   */\n      tag_379\n      jumpi\n        /* \"#utility.yul\":13611:13629   */\n      tag_380\n      tag_211\n      jump\t// in\n    tag_380:\n        /* \"#utility.yul\":13555:13639   */\n    tag_379:\n        /* \"#utility.yul\":13376:13645   */\n      pop\n        /* \"#utility.yul\":13325:13645   */\n      swap2\n      swap1\n      pop\n      jump\t// out\n        /* \"#utility.yul\":13651:13800   */\n    tag_212:\n        /* \"#utility.yul\":13700:13706   */\n      0x00\n        /* \"#utility.yul\":13734:13739   */\n      dup2\n        /* \"#utility.yul\":13728:13740   */\n      sload\n        /* \"#utility.yul\":13718:13740   */\n      swap1\n      pop\n        /* \"#utility.yul\":13760:13793   */\n      tag_382\n        /* \"#utility.yul\":13786:13792   */\n      dup2\n        /* \"#utility.yul\":13760:13793   */\n      tag_140\n      jump\t// in\n    tag_382:\n        /* \"#utility.yul\":13750:13793   */\n      swap1\n      pop\n        /* \"#utility.yul\":13651:13800   */\n      swap2\n      swap1\n      pop\n      jump\t// out\n        /* \"#utility.yul\":13806:13947   */\n    tag_213:\n        /* \"#utility.yul\":13855:13859   */\n      0x00\n        /* \"#utility.yul\":13878:13881   */\n      dup2\n        /* \"#utility.yul\":13870:13881   */\n      swap1\n      pop\n        /* \"#utility.yul\":13901:13904   */\n      dup2\n        /* \"#utility.yul\":13898:13899   */\n      0x00\n        /* \"#utility.yul\":13891:13905   */\n      mstore\n        /* \"#utility.yul\":13935:13939   */\n      0x20\n        /* \"#utility.yul\":13932:13933   */\n      0x00\n        /* \"#utility.yul\":13922:13940   */\n      keccak256\n        /* \"#utility.yul\":13914:13940   */\n      swap1\n      pop\n        /* \"#utility.yul\":13806:13947   */\n      swap2\n      swap1\n      pop\n      jump\t// out\n        /* \"#utility.yul\":13953:14046   */\n    tag_214:\n        /* \"#utility.yul\":13990:13996   */\n      0x00\n        /* \"#utility.yul\":14037:14039   */\n      0x20\n        /* \"#utility.yul\":14032:14034   */\n      0x1f\n        /* \"#utility.yul\":14025:14030   */\n      dup4\n        /* \"#utility.yul\":14021:14035   */\n      add\n        /* \"#utility.yul\":14017:14040   */\n      div\n        /* \"#utility.yul\":14007:14040   */\n      swap1\n      pop\n        /* \"#utility.yul\":13953:14046   */\n      swap2\n      swap1\n      pop\n      jump\t// out\n        /* \"#utility.yul\":14052:14159   */\n    tag_215:\n        /* \"#utility.yul\":14096:14104   */\n      0x00\n        /* \"#utility.yul\":14146:14151   */\n      dup3\n        /* \"#utility.yul\":14140:14144   */\n      dup3\n        /* \"#utility.yul\":14136:14152   */\n      shl\n        /* \"#utility.yul\":14115:14152   */\n      swap1\n      pop\n        /* \"#utility.yul\":14052:14159   */\n      swap3\n      swap2\n      pop\n      pop\n      jump\t// out\n        /* \"#utility.yul\":14165:14558   */\n    tag_216:\n        /* \"#utility.yul\":14234:14240   */\n      0x00\n        /* \"#utility.yul\":14284:14285   */\n      0x08\n        /* \"#utility.yul\":14272:14282   */\n      dup4\n        /* \"#utility.yul\":14268:14286   */\n      mul\n        /* \"#utility.yul\":14307:14404   */\n      tag_387\n        /* \"#utility.yul\":14337:14403   */\n      0xffffffffffffffffffffffffffffffffffffffffffffffffffffffffffffffff\n        /* \"#utility.yul\":14326:14335   */\n      dup3\n        /* \"#utility.yul\":14307:14404   */\n      tag_215\n      jump\t// in\n    tag_387:\n        /* \"#utility.yul\":14425:14464   */\n      tag_388\n        /* \"#utility.yul\":14455:14463   */\n      dup7\n        /* \"#utility.yul\":14444:14453   */\n      dup4\n        /* \"#utility.yul\":14425:14464   */\n      tag_215\n      jump\t// in\n    tag_388:\n        /* \"#utility.yul\":14413:14464   */\n      swap6\n      pop\n        /* \"#utility.yul\":14497:14501   */\n      dup1\n        /* \"#utility.yul\":14493:14502   */\n      not\n        /* \"#utility.yul\":14486:14491   */\n      dup5\n        /* \"#utility.yul\":14482:14503   */\n      and\n        /* \"#utility.yul\":14473:14503   */\n      swap4\n      pop\n        /* \"#utility.yul\":14546:14550   */\n      dup1\n        /* \"#utility.yul\":14536:14544   */\n      dup7\n        /* \"#utility.yul\":14532:14551   */\n      and\n        /* \"#utility.yul\":14525:14530   */\n      dup5\n        /* \"#utility.yul\":14522:14552   */\n      or\n        /* \"#utility.yul\":14512:14552   */\n      swap3\n      pop\n        /* \"#utility.yul\":14241:14558   */\n      pop\n      pop\n        /* \"#utility.yul\":14165:14558   */\n      swap4\n      swap3\n      pop\n      pop\n      pop\n      jump\t// out\n        /* \"#utility.yul\":14564:14624   */\n    tag_217:\n        /* \"#utility.yul\":14592:14595   */\n      0x00\n        /* \"#utility.yul\":14613:14618   */\n      dup2\n        /* \"#utility.yul\":14606:14618   */\n      swap1\n      pop\n        /* \"#utility.yul\":14564:14624   */\n      swap2\n      swap1\n      pop\n      jump\t// out\n        /* \"#utility.yul\":14630:14772   */\n    tag_218:\n        /* \"#utility.yul\":14680:14689   */\n      0x00\n        /* \"#utility.yul\":14713:14766   */\n      tag_391\n        /* \"#utility.yul\":14731:14765   */\n      tag_392\n        /* \"#utility.yul\":14740:14764   */\n      tag_393\n        /* \"#utility.yul\":14758:14763   */\n      dup5\n        /* \"#utility.yul\":14740:14764   */\n      tag_168\n      jump\t// in\n    tag_393:\n        /* \"#utility.yul\":14731:14765   */\n      tag_217\n      jump\t// in\n    tag_392:\n        /* \"#utility.yul\":14713:14766   */\n      tag_168\n      jump\t// in\n    tag_391:\n        /* \"#utility.yul\":14700:14766   */\n      swap1\n      pop\n        /* \"#utility.yul\":14630:14772   */\n      swap2\n      swap1\n      pop\n      jump\t// out\n        /* \"#utility.yul\":14778:14853   */\n    tag_219:\n        /* \"#utility.yul\":14821:14824   */\n      0x00\n        /* \"#utility.yul\":14842:14847   */\n      dup2\n        /* \"#utility.yul\":14835:14847   */\n      swap1\n      pop\n        /* \"#utility.yul\":14778:14853   */\n      swap2\n      swap1\n      pop\n      jump\t// out\n        /* \"#utility.yul\":14859:15128   */\n    tag_220:\n        /* \"#utility.yul\":14969:15008   */\n      tag_396\n        /* \"#utility.yul\":15000:15007   */\n      dup4\n        /* \"#utility.yul\":14969:15008   */\n      tag_218\n      jump\t// in\n    tag_396:\n        /* \"#utility.yul\":15030:15121   */\n      tag_397\n        /* \"#utility.yul\":15079:15120   */\n      tag_398\n        /* \"#utility.yul\":15103:15119   */\n      dup3\n        /* \"#utility.yul\":15079:15120   */\n      tag_219\n      jump\t// in\n    tag_398:\n        /* \"#utility.yul\":15071:15077   */\n      dup5\n        /* \"#utility.yul\":15064:15068   */\n      dup5\n        /* \"#utility.yul\":15058:15069   */\n      sload\n        /* \"#utility.yul\":15030:15121   */\n      tag_216\n      jump\t// in\n    tag_397:\n        /* \"#utility.yul\":15024:15028   */\n      dup3\n        /* \"#utility.yul\":15017:15122   */\n      sstore\n        /* \"#utility.yul\":14935:15128   */\n      pop\n        /* \"#utility.yul\":14859:15128   */\n      pop\n      pop\n      pop\n      jump\t// out\n        /* \"#utility.yul\":15134:15207   */\n    tag_221:\n        /* \"#utility.yul\":15179:15182   */\n      0x00\n        /* \"#utility.yul\":15200:15201   */\n      0x00\n        /* \"#utility.yul\":15193:15201   */\n      swap1\n      pop\n        /* \"#utility.yul\":15134:15207   */\n      swap1\n      jump\t// out\n        /* \"#utility.yul\":15213:15402   */\n    tag_222:\n        /* \"#utility.yul\":15290:15322   */\n      tag_401\n      tag_221\n      jump\t// in\n    tag_401:\n        /* \"#utility.yul\":15331:15396   */\n      tag_402\n        /* \"#utility.yul\":15389:15395   */\n      dup2\n        /* \"#utility.yul\":15381:15387   */\n      dup5\n        /* \"#utility.yul\":15375:15379   */\n      dup5\n        /* \"#utility.yul\":15331:15396   */\n      tag_220\n      jump\t// in\n    tag_402:\n        /* \"#utility.yul\":15266:15402   */\n      pop\n        /* \"#utility.yul\":15213:15402   */\n      pop\n      pop\n      jump\t// out\n        /* \"#utility.yul\":15408:15594   */\n    tag_223:\n        /* \"#utility.yul\":15468:15588   */\n    tag_404:\n        /* \"#utility.yul\":15485:15488   */\n      dup2\n        /* \"#utility.yul\":15478:15483   */\n      dup2\n        /* \"#utility.yul\":15475:15489   */\n      lt\n        /* \"#utility.yul\":15468:15588   */\n      iszero\n      tag_406\n      jumpi\n        /* \"#utility.yul\":15539:15578   */\n      tag_407\n        /* \"#utility.yul\":15576:15577   */\n      0x00\n        /* \"#utility.yul\":15569:15574   */\n      dup3\n        /* \"#utility.yul\":15539:15578   */\n      tag_222\n      jump\t// in\n    tag_407:\n        /* \"#utility.yul\":15512:15513   */\n      0x01\n        /* \"#utility.yul\":15505:15510   */\n      dup2\n        /* \"#utility.yul\":15501:15514   */\n      add\n        /* \"#utility.yul\":15492:15514   */\n      swap1\n      pop\n        /* \"#utility.yul\":15468:15588   */\n      jump(tag_404)\n    tag_406:\n        /* \"#utility.yul\":15408:15594   */\n      pop\n      pop\n      jump\t// out\n        /* \"#utility.yul\":15600:16143   */\n    tag_224:\n        /* \"#utility.yul\":15701:15703   */\n      0x1f\n        /* \"#utility.yul\":15696:15699   */\n      dup3\n        /* \"#utility.yul\":15693:15704   */\n      gt\n        /* \"#utility.yul\":15690:16136   */\n      iszero\n      tag_409\n      jumpi\n        /* \"#utility.yul\":15735:15773   */\n      tag_410\n        /* \"#utility.yul\":15767:15772   */\n      dup2\n        /* \"#utility.yul\":15735:15773   */\n      tag_213\n      jump\t// in\n    tag_410:\n        /* \"#utility.yul\":15819:15848   */\n      tag_411\n        /* \"#utility.yul\":15837:15847   */\n      dup5\n        /* \"#utility.yul\":15819:15848   */\n      tag_214\n      jump\t// in\n    tag_411:\n        /* \"#utility.yul\":15809:15817   */\n      dup2\n        /* \"#utility.yul\":15805:15849   */\n      add\n        /* \"#utility.yul\":16002:16004   */\n      0x20\n        /* \"#utility.yul\":15990:16000   */\n      dup6\n        /* \"#utility.yul\":15987:16005   */\n      lt\n        /* \"#utility.yul\":15984:16033   */\n      iszero\n      tag_412\n      jumpi\n        /* \"#utility.yul\":16023:16031   */\n      dup2\n        /* \"#utility.yul\":16008:16031   */\n      swap1\n      pop\n        /* \"#utility.yul\":15984:16033   */\n    tag_412:\n        /* \"#utility.yul\":16046:16126   */\n      tag_413\n        /* \"#utility.yul\":16102:16124   */\n      tag_414\n        /* \"#utility.yul\":16120:16123   */\n      dup6\n        /* \"#utility.yul\":16102:16124   */\n      tag_214\n      jump\t// in\n    tag_414:\n        /* \"#utility.yul\":16092:16100   */\n      dup4\n        /* \"#utility.yul\":16088:16125   */\n      add\n        /* \"#utility.yul\":16075:16086   */\n      dup3\n        /* \"#utility.yul\":16046:16126   */\n      tag_223\n      jump\t// in\n    tag_413:\n        /* \"#utility.yul\":15705:16136   */\n      pop\n      pop\n        /* \"#utility.yul\":15690:16136   */\n    tag_409:\n        /* \"#utility.yul\":15600:16143   */\n      pop\n      pop\n      pop\n      jump\t// out\n        /* \"#utility.yul\":16149:16266   */\n    tag_225:\n        /* \"#utility.yul\":16203:16211   */\n      0x00\n        /* \"#utility.yul\":16253:16258   */\n      dup3\n        /* \"#utility.yul\":16247:16251   */\n      dup3\n        /* \"#utility.yul\":16243:16259   */\n      shr\n        /* \"#utility.yul\":16222:16259   */\n      swap1\n      pop\n        /* \"#utility.yul\":16149:16266   */\n      swap3\n      swap2\n      pop\n      pop\n      jump\t// out\n        /* \"#utility.yul\":16272:16441   */\n    tag_226:\n        /* \"#utility.yul\":16316:16322   */\n      0x00\n        /* \"#utility.yul\":16349:16400   */\n      tag_417\n        /* \"#utility.yul\":16397:16398   */\n      0x00\n        /* \"#utility.yul\":16393:16399   */\n      not\n        /* \"#utility.yul\":16385:16390   */\n      dup5\n        /* \"#utility.yul\":16382:16383   */\n      0x08\n        /* \"#utility.yul\":16378:16391   */\n      mul\n        /* \"#utility.yul\":16349:16400   */\n      tag_225\n      jump\t// in\n    tag_417:\n        /* \"#utility.yul\":16345:16401   */\n      not\n        /* \"#utility.yul\":16430:16434   */\n      dup1\n        /* \"#utility.yul\":16424:16428   */\n      dup4\n        /* \"#utility.yul\":16420:16435   */\n      and\n        /* \"#utility.yul\":16410:16435   */\n      swap2\n      pop\n        /* \"#utility.yul\":16323:16441   */\n      pop\n        /* \"#utility.yul\":16272:16441   */\n      swap3\n      swap2\n      pop\n      pop\n      jump\t// out\n        /* \"#utility.yul\":16446:16741   */\n    tag_227:\n        /* \"#utility.yul\":16522:16526   */\n      0x00\n        /* \"#utility.yul\":16668:16697   */\n      tag_419\n        /* \"#utility.yul\":16693:16696   */\n      dup4\n        /* \"#utility.yul\":16687:16691   */\n      dup4\n        /* \"#utility.yul\":16668:16697   */\n      tag_226\n      jump\t// in\n    tag_419:\n        /* \"#utility.yul\":16660:16697   */\n      swap2\n      pop\n        /* \"#utility.yul\":16730:16733   */\n      dup3\n        /* \"#utility.yul\":16727:16728   */\n      0x02\n        /* \"#utility.yul\":16723:16734   */\n      mul\n        /* \"#utility.yul\":16717:16721   */\n      dup3\n        /* \"#utility.yul\":16714:16735   */\n      or\n        /* \"#utility.yul\":16706:16735   */\n      swap1\n      pop\n        /* \"#utility.yul\":16446:16741   */\n      swap3\n      swap2\n      pop\n      pop\n      jump\t// out\n        /* \"#utility.yul\":16746:18197   */\n    tag_75:\n        /* \"#utility.yul\":16857:16860   */\n      dup2\n        /* \"#utility.yul\":16851:16855   */\n      dup2\n        /* \"#utility.yul\":16848:16861   */\n      sub\n        /* \"#utility.yul\":16845:16871   */\n      tag_421\n      jumpi\n        /* \"#utility.yul\":16864:16869   */\n      pop\n      pop\n      jump(tag_420)\n        /* \"#utility.yul\":16845:16871   */\n    tag_421:\n        /* \"#utility.yul\":16895:16929   */\n      tag_422\n        /* \"#utility.yul\":16925:16928   */\n      dup3\n        /* \"#utility.yul\":16895:16929   */\n      tag_212\n      jump\t// in\n    tag_422:\n        /* \"#utility.yul\":16994:17012   */\n      0xffffffffffffffff\n        /* \"#utility.yul\":16986:16992   */\n      dup2\n        /* \"#utility.yul\":16983:17013   */\n      gt\n        /* \"#utility.yul\":16980:17036   */\n      iszero\n      tag_423\n      jumpi\n        /* \"#utility.yul\":17016:17034   */\n      tag_424\n      tag_183\n      jump\t// in\n    tag_424:\n        /* \"#utility.yul\":16980:17036   */\n    tag_423:\n        /* \"#utility.yul\":17060:17098   */\n      tag_425\n        /* \"#utility.yul\":17092:17096   */\n      dup3\n        /* \"#utility.yul\":17086:17097   */\n      sload\n        /* \"#utility.yul\":17060:17098   */\n      tag_140\n      jump\t// in\n    tag_425:\n        /* \"#utility.yul\":17145:17212   */\n      tag_426\n        /* \"#utility.yul\":17205:17211   */\n      dup3\n        /* \"#utility.yul\":17197:17203   */\n      dup3\n        /* \"#utility.yul\":17191:17195   */\n      dup6\n        /* \"#utility.yul\":17145:17212   */\n      tag_224\n      jump\t// in\n    tag_426:\n        /* \"#utility.yul\":17239:17240   */\n      0x00\n        /* \"#utility.yul\":17268:17270   */\n      0x1f\n        /* \"#utility.yul\":17260:17266   */\n      dup4\n        /* \"#utility.yul\":17257:17271   */\n      gt\n        /* \"#utility.yul\":17285:17286   */\n      0x01\n        /* \"#utility.yul\":17280:17952   */\n      dup2\n      eq\n      tag_428\n      jumpi\n        /* \"#utility.yul\":17996:17997   */\n      0x00\n        /* \"#utility.yul\":18013:18019   */\n      dup5\n        /* \"#utility.yul\":18010:18087   */\n      iszero\n      tag_429\n      jumpi\n        /* \"#utility.yul\":18062:18071   */\n      dup3\n        /* \"#utility.yul\":18057:18060   */\n      dup8\n        /* \"#utility.yul\":18053:18072   */\n      add\n        /* \"#utility.yul\":18047:18073   */\n      sload\n        /* \"#utility.yul\":18038:18073   */\n      swap1\n      pop\n        /* \"#utility.yul\":18010:18087   */\n    tag_429:\n        /* \"#utility.yul\":18113:18180   */\n      tag_430\n        /* \"#utility.yul\":18173:18179   */\n      dup6\n        /* \"#utility.yul\":18166:18171   */\n      dup3\n        /* \"#utility.yul\":18113:18180   */\n      tag_227\n      jump\t// in\n    tag_430:\n        /* \"#utility.yul\":18107:18111   */\n      dup7\n        /* \"#utility.yul\":18100:18181   */\n      sstore\n        /* \"#utility.yul\":17969:18191   */\n      pop\n        /* \"#utility.yul\":17250:18191   */\n      jump(tag_427)\n        /* \"#utility.yul\":17280:17952   */\n    tag_428:\n        /* \"#utility.yul\":17332:17336   */\n      0x1f\n        /* \"#utility.yul\":17328:17337   */\n      not\n        /* \"#utility.yul\":17320:17326   */\n      dup5\n        /* \"#utility.yul\":17316:17338   */\n      and\n        /* \"#utility.yul\":17358:17394   */\n      tag_431\n        /* \"#utility.yul\":17390:17393   */\n      dup8\n        /* \"#utility.yul\":17358:17394   */\n      tag_213\n      jump\t// in\n    tag_431:\n        /* \"#utility.yul\":17351:17394   */\n      swap7\n      pop\n        /* \"#utility.yul\":17421:17458   */\n      tag_432\n        /* \"#utility.yul\":17453:17457   */\n      dup7\n        /* \"#utility.yul\":17421:17458   */\n      tag_213\n      jump\t// in\n    tag_432:\n        /* \"#utility.yul\":17480:17481   */\n      0x00\n        /* \"#utility.yul\":17494:17701   */\n    tag_433:\n        /* \"#utility.yul\":17508:17515   */\n      dup3\n        /* \"#utility.yul\":17505:17506   */\n      dup2\n        /* \"#utility.yul\":17502:17516   */\n      lt\n        /* \"#utility.yul\":17494:17701   */\n      iszero\n      tag_435\n      jumpi\n        /* \"#utility.yul\":17587:17596   */\n      dup5\n        /* \"#utility.yul\":17582:17585   */\n      dup10\n        /* \"#utility.yul\":17578:17597   */\n      add\n        /* \"#utility.yul\":17572:17598   */\n      sload\n        /* \"#utility.yul\":17564:17570   */\n      dup3\n        /* \"#utility.yul\":17557:17599   */\n      sstore\n        /* \"#utility.yul\":17638:17639   */\n      0x01\n        /* \"#utility.yul\":17630:17636   */\n      dup3\n        /* \"#utility.yul\":17626:17640   */\n      add\n        /* \"#utility.yul\":17616:17640   */\n      swap2\n      pop\n        /* \"#utility.yul\":17685:17686   */\n      0x01\n        /* \"#utility.yul\":17674:17683   */\n      dup6\n        /* \"#utility.yul\":17670:17687   */\n      add\n        /* \"#utility.yul\":17657:17687   */\n      swap5\n      pop\n        /* \"#utility.yul\":17531:17535   */\n      0x20\n        /* \"#utility.yul\":17528:17529   */\n      dup2\n        /* \"#utility.yul\":17524:17536   */\n      add\n        /* \"#utility.yul\":17519:17536   */\n      swap1\n      pop\n        /* \"#utility.yul\":17494:17701   */\n      jump(tag_433)\n    tag_435:\n        /* \"#utility.yul\":17729:17735   */\n      dup7\n        /* \"#utility.yul\":17720:17727   */\n      dup4\n        /* \"#utility.yul\":17717:17736   */\n      lt\n        /* \"#utility.yul\":17714:17893   */\n      iszero\n      tag_436\n      jumpi\n        /* \"#utility.yul\":17787:17796   */\n      dup5\n        /* \"#utility.yul\":17782:17785   */\n      dup10\n        /* \"#utility.yul\":17778:17797   */\n      add\n        /* \"#utility.yul\":17772:17798   */\n      sload\n        /* \"#utility.yul\":17830:17878   */\n      tag_437\n        /* \"#utility.yul\":17872:17876   */\n      0x1f\n        /* \"#utility.yul\":17864:17870   */\n      dup10\n        /* \"#utility.yul\":17860:17877   */\n      and\n        /* \"#utility.yul\":17849:17858   */\n      dup3\n        /* \"#utility.yul\":17830:17878   */\n      tag_226\n      jump\t// in\n    tag_437:\n        /* \"#utility.yul\":17822:17828   */\n      dup4\n        /* \"#utility.yul\":17815:17879   */\n      sstore\n        /* \"#utility.yul\":17737:17893   */\n      pop\n        /* \"#utility.yul\":17714:17893   */\n    tag_436:\n        /* \"#utility.yul\":17939:17940   */\n      0x01\n        /* \"#utility.yul\":17935:17936   */\n      0x02\n        /* \"#utility.yul\":17927:17933   */\n      dup9\n        /* \"#utility.yul\":17923:17937   */\n      mul\n        /* \"#utility.yul\":17919:17941   */\n      add\n        /* \"#utility.yul\":17913:17917   */\n      dup9\n        /* \"#utility.yul\":17906:17942   */\n      sstore\n        /* \"#utility.yul\":17287:17952   */\n      pop\n      pop\n      pop\n        /* \"#utility.yul\":17250:18191   */\n    tag_427:\n      pop\n        /* \"#utility.yul\":16835:18197   */\n      pop\n      pop\n      pop\n        /* \"#utility.yul\":16746:18197   */\n      pop\n      pop\n    tag_420:\n      jump\t// out\n        /* \"#utility.yul\":18203:18383   */\n    tag_78:\n        /* \"#utility.yul\":18251:18328   */\n      0x4e487b7100000000000000000000000000000000000000000000000000000000\n        /* \"#utility.yul\":18248:18249   */\n      0x00\n        /* \"#utility.yul\":18241:18329   */\n      mstore\n        /* \"#utility.yul\":18348:18352   */\n      0x31\n        /* \"#utility.yul\":18345:18346   */\n      0x04\n        /* \"#utility.yul\":18338:18353   */\n      mstore\n        /* \"#utility.yul\":18372:18376   */\n      0x24\n        /* \"#utility.yul\":18369:18370   */\n      0x00\n        /* \"#utility.yul\":18362:18377   */\n      revert\n        /* \"#utility.yul\":18389:18547   */\n    tag_228:\n        /* \"#utility.yul\":18529:18539   */\n      0x4e6f204d6f6e6579000000000000000000000000000000000000000000000000\n        /* \"#utility.yul\":18525:18526   */\n      0x00\n        /* \"#utility.yul\":18517:18523   */\n      dup3\n        /* \"#utility.yul\":18513:18527   */\n      add\n        /* \"#utility.yul\":18506:18540   */\n      mstore\n        /* \"#utility.yul\":18389:18547   */\n      pop\n      jump\t// out\n        /* \"#utility.yul\":18553:18918   */\n    tag_229:\n        /* \"#utility.yul\":18695:18698   */\n      0x00\n        /* \"#utility.yul\":18716:18782   */\n      tag_441\n        /* \"#utility.yul\":18780:18781   */\n      0x08\n        /* \"#utility.yul\":18775:18778   */\n      dup4\n        /* \"#utility.yul\":18716:18782   */\n      tag_206\n      jump\t// in\n    tag_441:\n        /* \"#utility.yul\":18709:18782   */\n      swap2\n      pop\n        /* \"#utility.yul\":18791:18884   */\n      tag_442\n        /* \"#utility.yul\":18880:18883   */\n      dup3\n        /* \"#utility.yul\":18791:18884   */\n      tag_228\n      jump\t// in\n    tag_442:\n        /* \"#utility.yul\":18909:18911   */\n      0x20\n        /* \"#utility.yul\":18904:18907   */\n      dup3\n        /* \"#utility.yul\":18900:18912   */\n      add\n        /* \"#utility.yul\":18893:18912   */\n      swap1\n      pop\n        /* \"#utility.yul\":18553:18918   */\n      swap2\n      swap1\n      pop\n      jump\t// out\n        /* \"#utility.yul\":18924:19343   */\n    tag_94:\n        /* \"#utility.yul\":19090:19094   */\n      0x00\n        /* \"#utility.yul\":19128:19130   */\n      0x20\n        /* \"#utility.yul\":19117:19126   */\n      dup3\n        /* \"#utility.yul\":19113:19131   */\n      add\n        /* \"#utility.yul\":19105:19131   */\n      swap1\n      pop\n        /* \"#utility.yul\":19177:19186   */\n      dup2\n        /* \"#utility.yul\":19171:19175   */\n      dup2\n        /* \"#utility.yul\":19167:19187   */\n      sub\n        /* \"#utility.yul\":19163:19164   */\n      0x00\n        /* \"#utility.yul\":19152:19161   */\n      dup4\n        /* \"#utility.yul\":19148:19165   */\n      add\n        /* \"#utility.yul\":19141:19188   */\n      mstore\n        /* \"#utility.yul\":19205:19336   */\n      tag_444\n        /* \"#utility.yul\":19331:19335   */\n      dup2\n        /* \"#utility.yul\":19205:19336   */\n      tag_229\n      jump\t// in\n    tag_444:\n        /* \"#utility.yul\":19197:19336   */\n      swap1\n      pop\n        /* \"#utility.yul\":18924:19343   */\n      swap2\n      swap1\n      pop\n      jump\t// out\n        /* \"#utility.yul\":19349:19516   */\n    tag_230:\n        /* \"#utility.yul\":19489:19508   */\n      0x4e6f205761697472657373206164646564000000000000000000000000000000\n        /* \"#utility.yul\":19485:19486   */\n      0x00\n        /* \"#utility.yul\":19477:19483   */\n      dup3\n        /* \"#utility.yul\":19473:19487   */\n      add\n        /* \"#utility.yul\":19466:19509   */\n      mstore\n        /* \"#utility.yul\":19349:19516   */\n      pop\n      jump\t// out\n        /* \"#utility.yul\":19522:19888   */\n    tag_231:\n        /* \"#utility.yul\":19664:19667   */\n      0x00\n        /* \"#utility.yul\":19685:19752   */\n      tag_447\n        /* \"#utility.yul\":19749:19751   */\n      0x11\n        /* \"#utility.yul\":19744:19747   */\n      dup4\n        /* \"#utility.yul\":19685:19752   */\n      tag_206\n      jump\t// in\n    tag_447:\n        /* \"#utility.yul\":19678:19752   */\n      swap2\n      pop\n        /* \"#utility.yul\":19761:19854   */\n      tag_448\n        /* \"#utility.yul\":19850:19853   */\n      dup3\n        /* \"#utility.yul\":19761:19854   */\n      tag_230\n      jump\t// in\n    tag_448:\n        /* \"#utility.yul\":19879:19881   */\n      0x20\n        /* \"#utility.yul\":19874:19877   */\n      dup3\n        /* \"#utility.yul\":19870:19882   */\n      add\n        /* \"#utility.yul\":19863:19882   */\n      swap1\n      pop\n        /* \"#utility.yul\":19522:19888   */\n      swap2\n      swap1\n      pop\n      jump\t// out\n        /* \"#utility.yul\":19894:20313   */\n    tag_97:\n        /* \"#utility.yul\":20060:20064   */\n      0x00\n        /* \"#utility.yul\":20098:20100   */\n      0x20\n        /* \"#utility.yul\":20087:20096   */\n      dup3\n        /* \"#utility.yul\":20083:20101   */\n      add\n        /* \"#utility.yul\":20075:20101   */\n      swap1\n      pop\n        /* \"#utility.yul\":20147:20156   */\n      dup2\n        /* \"#utility.yul\":20141:20145   */\n      dup2\n        /* \"#utility.yul\":20137:20157   */\n      sub\n        /* \"#utility.yul\":20133:20134   */\n      0x00\n        /* \"#utility.yul\":20122:20131   */\n      dup4\n        /* \"#utility.yul\":20118:20135   */\n      add\n        /* \"#utility.yul\":20111:20158   */\n      mstore\n        /* \"#utility.yul\":20175:20306   */\n      tag_450\n        /* \"#utility.yul\":20301:20305   */\n      dup2\n        /* \"#utility.yul\":20175:20306   */\n      tag_231\n      jump\t// in\n    tag_450:\n        /* \"#utility.yul\":20167:20306   */\n      swap1\n      pop\n        /* \"#utility.yul\":19894:20313   */\n      swap2\n      swap1\n      pop\n      jump\t// out\n        /* \"#utility.yul\":20319:20729   */\n    tag_105:\n        /* \"#utility.yul\":20359:20366   */\n      0x00\n        /* \"#utility.yul\":20382:20402   */\n      tag_452\n        /* \"#utility.yul\":20400:20401   */\n      dup3\n        /* \"#utility.yul\":20382:20402   */\n      tag_168\n      jump\t// in\n    tag_452:\n        /* \"#utility.yul\":20377:20402   */\n      swap2\n      pop\n        /* \"#utility.yul\":20416:20436   */\n      tag_453\n        /* \"#utility.yul\":20434:20435   */\n      dup4\n        /* \"#utility.yul\":20416:20436   */\n      tag_168\n      jump\t// in\n    tag_453:\n        /* \"#utility.yul\":20411:20436   */\n      swap3\n      pop\n        /* \"#utility.yul\":20471:20472   */\n      dup3\n        /* \"#utility.yul\":20468:20469   */\n      dup3\n        /* \"#utility.yul\":20464:20473   */\n      mul\n        /* \"#utility.yul\":20493:20523   */\n      tag_454\n        /* \"#utility.yul\":20511:20522   */\n      dup2\n        /* \"#utility.yul\":20493:20523   */\n      tag_168\n      jump\t// in\n    tag_454:\n        /* \"#utility.yul\":20482:20523   */\n      swap2\n      pop\n        /* \"#utility.yul\":20672:20673   */\n      dup3\n        /* \"#utility.yul\":20663:20670   */\n      dup3\n        /* \"#utility.yul\":20659:20674   */\n      div\n        /* \"#utility.yul\":20656:20657   */\n      dup5\n        /* \"#utility.yul\":20653:20675   */\n      eq\n        /* \"#utility.yul\":20633:20634   */\n      dup4\n        /* \"#utility.yul\":20626:20635   */\n      iszero\n        /* \"#utility.yul\":20606:20689   */\n      or\n        /* \"#utility.yul\":20583:20722   */\n      tag_455\n      jumpi\n        /* \"#utility.yul\":20702:20720   */\n      tag_456\n      tag_210\n      jump\t// in\n    tag_456:\n        /* \"#utility.yul\":20583:20722   */\n    tag_455:\n        /* \"#utility.yul\":20367:20729   */\n      pop\n        /* \"#utility.yul\":20319:20729   */\n      swap3\n      swap2\n      pop\n      pop\n      jump\t// out\n        /* \"#utility.yul\":20735:20915   */\n    tag_232:\n        /* \"#utility.yul\":20783:20860   */\n      0x4e487b7100000000000000000000000000000000000000000000000000000000\n        /* \"#utility.yul\":20780:20781   */\n      0x00\n        /* \"#utility.yul\":20773:20861   */\n      mstore\n        /* \"#utility.yul\":20880:20884   */\n      0x12\n        /* \"#utility.yul\":20877:20878   */\n      0x04\n        /* \"#utility.yul\":20870:20885   */\n      mstore\n        /* \"#utility.yul\":20904:20908   */\n      0x24\n        /* \"#utility.yul\":20901:20902   */\n      0x00\n        /* \"#utility.yul\":20894:20909   */\n      revert\n        /* \"#utility.yul\":20921:21106   */\n    tag_107:\n        /* \"#utility.yul\":20961:20962   */\n      0x00\n        /* \"#utility.yul\":20978:20998   */\n      tag_459\n        /* \"#utility.yul\":20996:20997   */\n      dup3\n        /* \"#utility.yul\":20978:20998   */\n      tag_168\n      jump\t// in\n    tag_459:\n        /* \"#utility.yul\":20973:20998   */\n      swap2\n      pop\n        /* \"#utility.yul\":21012:21032   */\n      tag_460\n        /* \"#utility.yul\":21030:21031   */\n      dup4\n        /* \"#utility.yul\":21012:21032   */\n      tag_168\n      jump\t// in\n    tag_460:\n        /* \"#utility.yul\":21007:21032   */\n      swap3\n      pop\n        /* \"#utility.yul\":21051:21052   */\n      dup3\n        /* \"#utility.yul\":21041:21076   */\n      tag_461\n      jumpi\n        /* \"#utility.yul\":21056:21074   */\n      tag_462\n      tag_232\n      jump\t// in\n    tag_462:\n        /* \"#utility.yul\":21041:21076   */\n    tag_461:\n        /* \"#utility.yul\":21098:21099   */\n      dup3\n        /* \"#utility.yul\":21095:21096   */\n      dup3\n        /* \"#utility.yul\":21091:21100   */\n      div\n        /* \"#utility.yul\":21086:21100   */\n      swap1\n      pop\n        /* \"#utility.yul\":20921:21106   */\n      swap3\n      swap2\n      pop\n      pop\n      jump\t// out\n        /* \"#utility.yul\":21112:21288   */\n    tag_233:\n        /* \"#utility.yul\":21252:21280   */\n      0x546f74616c2070657263656e7420657863656564732031303025000000000000\n        /* \"#utility.yul\":21248:21249   */\n      0x00\n        /* \"#utility.yul\":21240:21246   */\n      dup3\n        /* \"#utility.yul\":21236:21250   */\n      add\n        /* \"#utility.yul\":21229:21281   */\n      mstore\n        /* \"#utility.yul\":21112:21288   */\n      pop\n      jump\t// out\n        /* \"#utility.yul\":21294:21660   */\n    tag_234:\n        /* \"#utility.yul\":21436:21439   */\n      0x00\n        /* \"#utility.yul\":21457:21524   */\n      tag_465\n        /* \"#utility.yul\":21521:21523   */\n      0x1a\n        /* \"#utility.yul\":21516:21519   */\n      dup4\n        /* \"#utility.yul\":21457:21524   */\n      tag_206\n      jump\t// in\n    tag_465:\n        /* \"#utility.yul\":21450:21524   */\n      swap2\n      pop\n        /* \"#utility.yul\":21533:21626   */\n      tag_466\n        /* \"#utility.yul\":21622:21625   */\n      dup3\n        /* \"#utility.yul\":21533:21626   */\n      tag_233\n      jump\t// in\n    tag_466:\n        /* \"#utility.yul\":21651:21653   */\n      0x20\n        /* \"#utility.yul\":21646:21649   */\n      dup3\n        /* \"#utility.yul\":21642:21654   */\n      add\n        /* \"#utility.yul\":21635:21654   */\n      swap1\n      pop\n        /* \"#utility.yul\":21294:21660   */\n      swap2\n      swap1\n      pop\n      jump\t// out\n        /* \"#utility.yul\":21666:22085   */\n    tag_122:\n        /* \"#utility.yul\":21832:21836   */\n      0x00\n        /* \"#utility.yul\":21870:21872   */\n      0x20\n        /* \"#utility.yul\":21859:21868   */\n      dup3\n        /* \"#utility.yul\":21855:21873   */\n      add\n        /* \"#utility.yul\":21847:21873   */\n      swap1\n      pop\n        /* \"#utility.yul\":21919:21928   */\n      dup2\n        /* \"#utility.yul\":21913:21917   */\n      dup2\n        /* \"#utility.yul\":21909:21929   */\n      sub\n        /* \"#utility.yul\":21905:21906   */\n      0x00\n        /* \"#utility.yul\":21894:21903   */\n      dup4\n        /* \"#utility.yul\":21890:21907   */\n      add\n        /* \"#utility.yul\":21883:21930   */\n      mstore\n        /* \"#utility.yul\":21947:22078   */\n      tag_468\n        /* \"#utility.yul\":22073:22077   */\n      dup2\n        /* \"#utility.yul\":21947:22078   */\n      tag_234\n      jump\t// in\n    tag_468:\n        /* \"#utility.yul\":21939:22078   */\n      swap1\n      pop\n        /* \"#utility.yul\":21666:22085   */\n      swap2\n      swap1\n      pop\n      jump\t// out\n        /* \"#utility.yul\":22091:22264   */\n    tag_235:\n        /* \"#utility.yul\":22231:22256   */\n      0x576169747265737320616c726561647920657869737473000000000000000000\n        /* \"#utility.yul\":22227:22228   */\n      0x00\n        /* \"#utility.yul\":22219:22225   */\n      dup3\n        /* \"#utility.yul\":22215:22229   */\n      add\n        /* \"#utility.yul\":22208:22257   */\n      mstore\n        /* \"#utility.yul\":22091:22264   */\n      pop\n      jump\t// out\n        /* \"#utility.yul\":22270:22636   */\n    tag_236:\n        /* \"#utility.yul\":22412:22415   */\n      0x00\n        /* \"#utility.yul\":22433:22500   */\n      tag_471\n        /* \"#utility.yul\":22497:22499   */\n      0x17\n        /* \"#utility.yul\":22492:22495   */\n      dup4\n        /* \"#utility.yul\":22433:22500   */\n      tag_206\n      jump\t// in\n    tag_471:\n        /* \"#utility.yul\":22426:22500   */\n      swap2\n      pop\n        /* \"#utility.yul\":22509:22602   */\n      tag_472\n        /* \"#utility.yul\":22598:22601   */\n      dup3\n        /* \"#utility.yul\":22509:22602   */\n      tag_235\n      jump\t// in\n    tag_472:\n        /* \"#utility.yul\":22627:22629   */\n      0x20\n        /* \"#utility.yul\":22622:22625   */\n      dup3\n        /* \"#utility.yul\":22618:22630   */\n      add\n        /* \"#utility.yul\":22611:22630   */\n      swap1\n      pop\n        /* \"#utility.yul\":22270:22636   */\n      swap2\n      swap1\n      pop\n      jump\t// out\n        /* \"#utility.yul\":22642:23061   */\n    tag_131:\n        /* \"#utility.yul\":22808:22812   */\n      0x00\n        /* \"#utility.yul\":22846:22848   */\n      0x20\n        /* \"#utility.yul\":22835:22844   */\n      dup3\n        /* \"#utility.yul\":22831:22849   */\n      add\n        /* \"#utility.yul\":22823:22849   */\n      swap1\n      pop\n        /* \"#utility.yul\":22895:22904   */\n      dup2\n        /* \"#utility.yul\":22889:22893   */\n      dup2\n        /* \"#utility.yul\":22885:22905   */\n      sub\n        /* \"#utility.yul\":22881:22882   */\n      0x00\n        /* \"#utility.yul\":22870:22879   */\n      dup4\n        /* \"#utility.yul\":22866:22883   */\n      add\n        /* \"#utility.yul\":22859:22906   */\n      mstore\n        /* \"#utility.yul\":22923:23054   */\n      tag_474\n        /* \"#utility.yul\":23049:23053   */\n      dup2\n        /* \"#utility.yul\":22923:23054   */\n      tag_236\n      jump\t// in\n    tag_474:\n        /* \"#utility.yul\":22915:23054   */\n      swap1\n      pop\n        /* \"#utility.yul\":22642:23061   */\n      swap2\n      swap1\n      pop\n      jump\t// out\n        /* \"#utility.yul\":23067:24462   */\n    tag_134:\n        /* \"#utility.yul\":23184:23221   */\n      tag_476\n        /* \"#utility.yul\":23217:23220   */\n      dup3\n        /* \"#utility.yul\":23184:23221   */\n      tag_196\n      jump\t// in\n    tag_476:\n        /* \"#utility.yul\":23286:23304   */\n      0xffffffffffffffff\n        /* \"#utility.yul\":23278:23284   */\n      dup2\n        /* \"#utility.yul\":23275:23305   */\n      gt\n        /* \"#utility.yul\":23272:23328   */\n      iszero\n      tag_477\n      jumpi\n        /* \"#utility.yul\":23308:23326   */\n      tag_478\n      tag_183\n      jump\t// in\n    tag_478:\n        /* \"#utility.yul\":23272:23328   */\n    tag_477:\n        /* \"#utility.yul\":23352:23390   */\n      tag_479\n        /* \"#utility.yul\":23384:23388   */\n      dup3\n        /* \"#utility.yul\":23378:23389   */\n      sload\n        /* \"#utility.yul\":23352:23390   */\n      tag_140\n      jump\t// in\n    tag_479:\n        /* \"#utility.yul\":23437:23504   */\n      tag_480\n        /* \"#utility.yul\":23497:23503   */\n      dup3\n        /* \"#utility.yul\":23489:23495   */\n      dup3\n        /* \"#utility.yul\":23483:23487   */\n      dup6\n        /* \"#utility.yul\":23437:23504   */\n      tag_224\n      jump\t// in\n    tag_480:\n        /* \"#utility.yul\":23531:23532   */\n      0x00\n        /* \"#utility.yul\":23555:23559   */\n      0x20\n        /* \"#utility.yul\":23542:23559   */\n      swap1\n      pop\n        /* \"#utility.yul\":23587:23589   */\n      0x1f\n        /* \"#utility.yul\":23579:23585   */\n      dup4\n        /* \"#utility.yul\":23576:23590   */\n      gt\n        /* \"#utility.yul\":23604:23605   */\n      0x01\n        /* \"#utility.yul\":23599:24217   */\n      dup2\n      eq\n      tag_482\n      jumpi\n        /* \"#utility.yul\":24261:24262   */\n      0x00\n        /* \"#utility.yul\":24278:24284   */\n      dup5\n        /* \"#utility.yul\":24275:24352   */\n      iszero\n      tag_483\n      jumpi\n        /* \"#utility.yul\":24327:24336   */\n      dup3\n        /* \"#utility.yul\":24322:24325   */\n      dup8\n        /* \"#utility.yul\":24318:24337   */\n      add\n        /* \"#utility.yul\":24312:24338   */\n      mload\n        /* \"#utility.yul\":24303:24338   */\n      swap1\n      pop\n        /* \"#utility.yul\":24275:24352   */\n    tag_483:\n        /* \"#utility.yul\":24378:24445   */\n      tag_484\n        /* \"#utility.yul\":24438:24444   */\n      dup6\n        /* \"#utility.yul\":24431:24436   */\n      dup3\n        /* \"#utility.yul\":24378:24445   */\n      tag_227\n      jump\t// in\n    tag_484:\n        /* \"#utility.yul\":24372:24376   */\n      dup7\n        /* \"#utility.yul\":24365:24446   */\n      sstore\n        /* \"#utility.yul\":24234:24456   */\n      pop\n        /* \"#utility.yul\":23569:24456   */\n      jump(tag_481)\n        /* \"#utility.yul\":23599:24217   */\n    tag_482:\n        /* \"#utility.yul\":23651:23655   */\n      0x1f\n        /* \"#utility.yul\":23647:23656   */\n      not\n        /* \"#utility.yul\":23639:23645   */\n      dup5\n        /* \"#utility.yul\":23635:23657   */\n      and\n        /* \"#utility.yul\":23685:23722   */\n      tag_485\n        /* \"#utility.yul\":23717:23721   */\n      dup7\n        /* \"#utility.yul\":23685:23722   */\n      tag_213\n      jump\t// in\n    tag_485:\n        /* \"#utility.yul\":23744:23745   */\n      0x00\n        /* \"#utility.yul\":23758:23966   */\n    tag_486:\n        /* \"#utility.yul\":23772:23779   */\n      dup3\n        /* \"#utility.yul\":23769:23770   */\n      dup2\n        /* \"#utility.yul\":23766:23780   */\n      lt\n        /* \"#utility.yul\":23758:23966   */\n      iszero\n      tag_488\n      jumpi\n        /* \"#utility.yul\":23851:23860   */\n      dup5\n        /* \"#utility.yul\":23846:23849   */\n      dup10\n        /* \"#utility.yul\":23842:23861   */\n      add\n        /* \"#utility.yul\":23836:23862   */\n      mload\n        /* \"#utility.yul\":23828:23834   */\n      dup3\n        /* \"#utility.yul\":23821:23863   */\n      sstore\n        /* \"#utility.yul\":23902:23903   */\n      0x01\n        /* \"#utility.yul\":23894:23900   */\n      dup3\n        /* \"#utility.yul\":23890:23904   */\n      add\n        /* \"#utility.yul\":23880:23904   */\n      swap2\n      pop\n        /* \"#utility.yul\":23949:23951   */\n      0x20\n        /* \"#utility.yul\":23938:23947   */\n      dup6\n        /* \"#utility.yul\":23934:23952   */\n      add\n        /* \"#utility.yul\":23921:23952   */\n      swap5\n      pop\n        /* \"#utility.yul\":23795:23799   */\n      0x20\n        /* \"#utility.yul\":23792:23793   */\n      dup2\n        /* \"#utility.yul\":23788:23800   */\n      add\n        /* \"#utility.yul\":23783:23800   */\n      swap1\n      pop\n        /* \"#utility.yul\":23758:23966   */\n      jump(tag_486)\n    tag_488:\n        /* \"#utility.yul\":23994:24000   */\n      dup7\n        /* \"#utility.yul\":23985:23992   */\n      dup4\n        /* \"#utility.yul\":23982:24001   */\n      lt\n        /* \"#utility.yul\":23979:24158   */\n      iszero\n      tag_489\n      jumpi\n        /* \"#utility.yul\":24052:24061   */\n      dup5\n        /* \"#utility.yul\":24047:24050   */\n      dup10\n        /* \"#utility.yul\":24043:24062   */\n      add\n        /* \"#utility.yul\":24037:24063   */\n      mload\n        /* \"#utility.yul\":24095:24143   */\n      tag_490\n        /* \"#utility.yul\":24137:24141   */\n      0x1f\n        /* \"#utility.yul\":24129:24135   */\n      dup10\n        /* \"#utility.yul\":24125:24142   */\n      and\n        /* \"#utility.yul\":24114:24123   */\n      dup3\n        /* \"#utility.yul\":24095:24143   */\n      tag_226\n      jump\t// in\n    tag_490:\n        /* \"#utility.yul\":24087:24093   */\n      dup4\n        /* \"#utility.yul\":24080:24144   */\n      sstore\n        /* \"#utility.yul\":24002:24158   */\n      pop\n        /* \"#utility.yul\":23979:24158   */\n    tag_489:\n        /* \"#utility.yul\":24204:24205   */\n      0x01\n        /* \"#utility.yul\":24200:24201   */\n      0x02\n        /* \"#utility.yul\":24192:24198   */\n      dup9\n        /* \"#utility.yul\":24188:24202   */\n      mul\n        /* \"#utility.yul\":24184:24206   */\n      add\n        /* \"#utility.yul\":24178:24182   */\n      dup9\n        /* \"#utility.yul\":24171:24207   */\n      sstore\n        /* \"#utility.yul\":23606:24217   */\n      pop\n      pop\n      pop\n        /* \"#utility.yul\":23569:24456   */\n    tag_481:\n      pop\n        /* \"#utility.yul\":23159:24462   */\n      pop\n      pop\n      pop\n        /* \"#utility.yul\":23067:24462   */\n      pop\n      pop\n      jump\t// out\n        /* \"#utility.yul\":24468:24615   */\n    tag_237:\n        /* \"#utility.yul\":24569:24580   */\n      0x00\n        /* \"#utility.yul\":24606:24609   */\n      dup2\n        /* \"#utility.yul\":24591:24609   */\n      swap1\n      pop\n        /* \"#utility.yul\":24468:24615   */\n      swap3\n      swap2\n      pop\n      pop\n      jump\t// out\n        /* \"#utility.yul\":24621:24735   */\n    tag_238:\n      pop\n      jump\t// out\n        /* \"#utility.yul\":24741:25139   */\n    tag_239:\n        /* \"#utility.yul\":24900:24903   */\n      0x00\n        /* \"#utility.yul\":24921:25004   */\n      tag_494\n        /* \"#utility.yul\":25002:25003   */\n      0x00\n        /* \"#utility.yul\":24997:25000   */\n      dup4\n        /* \"#utility.yul\":24921:25004   */\n      tag_237\n      jump\t// in\n    tag_494:\n        /* \"#utility.yul\":24914:25004   */\n      swap2\n      pop\n        /* \"#utility.yul\":25013:25106   */\n      tag_495\n        /* \"#utility.yul\":25102:25105   */\n      dup3\n        /* \"#utility.yul\":25013:25106   */\n      tag_238\n      jump\t// in\n    tag_495:\n        /* \"#utility.yul\":25131:25132   */\n      0x00\n        /* \"#utility.yul\":25126:25129   */\n      dup3\n        /* \"#utility.yul\":25122:25133   */\n      add\n        /* \"#utility.yul\":25115:25133   */\n      swap1\n      pop\n        /* \"#utility.yul\":24741:25139   */\n      swap2\n      swap1\n      pop\n      jump\t// out\n        /* \"#utility.yul\":25145:25524   */\n    tag_154:\n        /* \"#utility.yul\":25329:25332   */\n      0x00\n        /* \"#utility.yul\":25351:25498   */\n      tag_497\n        /* \"#utility.yul\":25494:25497   */\n      dup3\n        /* \"#utility.yul\":25351:25498   */\n      tag_239\n      jump\t// in\n    tag_497:\n        /* \"#utility.yul\":25344:25498   */\n      swap2\n      pop\n        /* \"#utility.yul\":25515:25518   */\n      dup2\n        /* \"#utility.yul\":25508:25518   */\n      swap1\n      pop\n        /* \"#utility.yul\":25145:25524   */\n      swap2\n      swap1\n      pop\n      jump\t// out\n        /* \"#utility.yul\":25530:25696   */\n    tag_240:\n        /* \"#utility.yul\":25670:25688   */\n      0x5472616e73666572206661696c65642e00000000000000000000000000000000\n        /* \"#utility.yul\":25666:25667   */\n      0x00\n        /* \"#utility.yul\":25658:25664   */\n      dup3\n        /* \"#utility.yul\":25654:25668   */\n      add\n        /* \"#utility.yul\":25647:25689   */\n      mstore\n        /* \"#utility.yul\":25530:25696   */\n      pop\n      jump\t// out\n        /* \"#utility.yul\":25702:26068   */\n    tag_241:\n        /* \"#utility.yul\":25844:25847   */\n      0x00\n        /* \"#utility.yul\":25865:25932   */\n      tag_500\n        /* \"#utility.yul\":25929:25931   */\n      0x10\n        /* \"#utility.yul\":25924:25927   */\n      dup4\n        /* \"#utility.yul\":25865:25932   */\n      tag_206\n      jump\t// in\n    tag_500:\n        /* \"#utility.yul\":25858:25932   */\n      swap2\n      pop\n        /* \"#utility.yul\":25941:26034   */\n      tag_501\n        /* \"#utility.yul\":26030:26033   */\n      dup3\n        /* \"#utility.yul\":25941:26034   */\n      tag_240\n      jump\t// in\n    tag_501:\n        /* \"#utility.yul\":26059:26061   */\n      0x20\n        /* \"#utility.yul\":26054:26057   */\n      dup3\n        /* \"#utility.yul\":26050:26062   */\n      add\n        /* \"#utility.yul\":26043:26062   */\n      swap1\n      pop\n        /* \"#utility.yul\":25702:26068   */\n      swap2\n      swap1\n      pop\n      jump\t// out\n        /* \"#utility.yul\":26074:26493   */\n    tag_160:\n        /* \"#utility.yul\":26240:26244   */\n      0x00\n        /* \"#utility.yul\":26278:26280   */\n      0x20\n        /* \"#utility.yul\":26267:26276   */\n      dup3\n        /* \"#utility.yul\":26263:26281   */\n      add\n        /* \"#utility.yul\":26255:26281   */\n      swap1\n      pop\n        /* \"#utility.yul\":26327:26336   */\n      dup2\n        /* \"#utility.yul\":26321:26325   */\n      dup2\n        /* \"#utility.yul\":26317:26337   */\n      sub\n        /* \"#utility.yul\":26313:26314   */\n      0x00\n        /* \"#utility.yul\":26302:26311   */\n      dup4\n        /* \"#utility.yul\":26298:26315   */\n      add\n        /* \"#utility.yul\":26291:26338   */\n      mstore\n        /* \"#utility.yul\":26355:26486   */\n      tag_503\n        /* \"#utility.yul\":26481:26485   */\n      dup2\n        /* \"#utility.yul\":26355:26486   */\n      tag_241\n      jump\t// in\n    tag_503:\n        /* \"#utility.yul\":26347:26486   */\n      swap1\n      pop\n        /* \"#utility.yul\":26074:26493   */\n      swap2\n      swap1\n      pop\n      jump\t// out\n\n    auxdata: 0xa26469706673582212207d2aa1c8725c7514f5837e6da1df4bcb65911408bb63c08f4c1e59d48e635fe664736f6c634300081f0033\n}\n",
				"bytecode": {
					"linkReferences": {},
					"object": "6080604052348015600e575f5ffd5b50335f5f6101000a81548173ffffffffffffffffffffffffffffffffffffffff021916908373ffffffffffffffffffffffffffffffffffffffff1602179055506118f38061005b5f395ff3fe60806040526004361061007a575f3560e01c80637943da691161004d5780637943da6914610104578063b499b79a1461011a578063e83a1b0014610142578063ec066e3a1461016c5761007a565b80632a08deda1461007e578063369a489d146100a85780633c8e3b52146100d05780636e7301fd146100fa575b5f5ffd5b348015610089575f5ffd5b506100926101aa565b60405161009f9190610b9b565b60405180910390f35b3480156100b3575f5ffd5b506100ce60048036038101906100c99190610c1f565b6101b1565b005b3480156100db575f5ffd5b506100e461043c565b6040516100f19190610b9b565b60405180910390f35b610102610499565b005b34801561010f575f5ffd5b5061011861049b565b005b348015610125575f5ffd5b50610140600480360381019061013b9190610deb565b6105de565b005b34801561014d575f5ffd5b5061015661085a565b6040516101639190610fdd565b60405180910390f35b348015610177575f5ffd5b50610192600480360381019061018d9190610ffd565b6109a4565b6040516101a19392919061107f565b60405180910390f35b5f47905090565b5f5f9054906101000a900473ffffffffffffffffffffffffffffffffffffffff1673ffffffffffffffffffffffffffffffffffffffff163373ffffffffffffffffffffffffffffffffffffffff161461023f576040517f08c379a000000000000000000000000000000000000000000000000000000000815260040161023690611105565b60405180910390fd5b5f5f90505b600180549050811015610437578173ffffffffffffffffffffffffffffffffffffffff166001828154811061027c5761027b611123565b5b905f5260205f2090600302015f015f9054906101000a900473ffffffffffffffffffffffffffffffffffffffff1673ffffffffffffffffffffffffffffffffffffffff160361042a575f8190505b600180805490506102db919061117d565b8110156103bf57600180826102f091906111b0565b8154811061030157610300611123565b5b905f5260205f2090600302016001828154811061032157610320611123565b5b905f5260205f2090600302015f82015f9054906101000a900473ffffffffffffffffffffffffffffffffffffffff16815f015f6101000a81548173ffffffffffffffffffffffffffffffffffffffff021916908373ffffffffffffffffffffffffffffffffffffffff160217905550600182018160010190816103a491906113f5565b506002820154816002015590505080806001019150506102ca565b5060018054806103d2576103d16114da565b5b600190038181905f5260205f2090600302015f5f82015f6101000a81549073ffffffffffffffffffffffffffffffffffffffff0219169055600182015f6104199190610b2b565b600282015f90555050905550610439565b8080600101915050610244565b505b50565b5f5f5f90505f5f90505b600180549050811015610491576001818154811061046757610466611123565b5b905f5260205f209060030201600201548261048291906111b0565b91508080600101915050610446565b508091505090565b565b5f4790505f81116104e1576040517f08c379a00000000000000000000000000000000000000000000000000000000081526004016104d890611551565b60405180910390fd5b5f60018054905011610528576040517f08c379a000000000000000000000000000000000000000000000000000000000815260040161051f906115b9565b60405180910390fd5b5f5f90505b6001805490508110156105da575f60646001838154811061055157610550611123565b5b905f5260205f209060030201600201548461056c91906115d7565b6105769190611645565b90505f8111156105cc576105cb6001838154811061059757610596611123565b5b905f5260205f2090600302015f015f9054906101000a900473ffffffffffffffffffffffffffffffffffffffff1682610a7e565b5b50808060010191505061052d565b5050565b5f5f9054906101000a900473ffffffffffffffffffffffffffffffffffffffff1673ffffffffffffffffffffffffffffffffffffffff163373ffffffffffffffffffffffffffffffffffffffff161461066c576040517f08c379a000000000000000000000000000000000000000000000000000000000815260040161066390611105565b60405180910390fd5b5f61067561043c565b90506064828261068591906111b0565b11156106c6576040517f08c379a00000000000000000000000000000000000000000000000000000000081526004016106bd906116bf565b60405180910390fd5b5f5f90505b600180549050811015610794578473ffffffffffffffffffffffffffffffffffffffff166001828154811061070357610702611123565b5b905f5260205f2090600302015f015f9054906101000a900473ffffffffffffffffffffffffffffffffffffffff1673ffffffffffffffffffffffffffffffffffffffff1603610787576040517f08c379a000000000000000000000000000000000000000000000000000000000815260040161077e90611727565b60405180910390fd5b80806001019150506106cb565b50600160405180606001604052808673ffffffffffffffffffffffffffffffffffffffff16815260200185815260200184815250908060018154018082558091505060019003905f5260205f2090600302015f909190919091505f820151815f015f6101000a81548173ffffffffffffffffffffffffffffffffffffffff021916908373ffffffffffffffffffffffffffffffffffffffff16021790555060208201518160010190816108479190611745565b5060408201518160020155505050505050565b60606001805480602002602001604051908101604052809291908181526020015f905b8282101561099b578382905f5260205f2090600302016040518060600160405290815f82015f9054906101000a900473ffffffffffffffffffffffffffffffffffffffff1673ffffffffffffffffffffffffffffffffffffffff1673ffffffffffffffffffffffffffffffffffffffff16815260200160018201805461090290611210565b80601f016020809104026020016040519081016040528092919081815260200182805461092e90611210565b80156109795780601f1061095057610100808354040283529160200191610979565b820191905f5260205f20905b81548152906001019060200180831161095c57829003601f168201915b505050505081526020016002820154815250508152602001906001019061087d565b50505050905090565b600181815481106109b3575f80fd5b905f5260205f2090600302015f91509050805f015f9054906101000a900473ffffffffffffffffffffffffffffffffffffffff16908060010180546109f790611210565b80601f0160208091040260200160405190810160405280929190818152602001828054610a2390611210565b8015610a6e5780601f10610a4557610100808354040283529160200191610a6e565b820191905f5260205f20905b815481529060010190602001808311610a5157829003601f168201915b5050505050908060020154905083565b5f8273ffffffffffffffffffffffffffffffffffffffff1682604051610aa390611841565b5f6040518083038185875af1925050503d805f8114610add576040519150601f19603f3d011682016040523d82523d5f602084013e610ae2565b606091505b5050905080610b26576040517f08c379a0000000000000000000000000000000000000000000000000000000008152600401610b1d9061189f565b60405180910390fd5b505050565b508054610b3790611210565b5f825580601f10610b485750610b65565b601f0160209004905f5260205f2090810190610b649190610b68565b5b50565b5b80821115610b7f575f815f905550600101610b69565b5090565b5f819050919050565b610b9581610b83565b82525050565b5f602082019050610bae5f830184610b8c565b92915050565b5f604051905090565b5f5ffd5b5f5ffd5b5f73ffffffffffffffffffffffffffffffffffffffff82169050919050565b5f610bee82610bc5565b9050919050565b610bfe81610be4565b8114610c08575f5ffd5b50565b5f81359050610c1981610bf5565b92915050565b5f60208284031215610c3457610c33610bbd565b5b5f610c4184828501610c0b565b91505092915050565b5f610c5482610bc5565b9050919050565b610c6481610c4a565b8114610c6e575f5ffd5b50565b5f81359050610c7f81610c5b565b92915050565b5f5ffd5b5f5ffd5b5f601f19601f8301169050919050565b7f4e487b71000000000000000000000000000000000000000000000000000000005f52604160045260245ffd5b610cd382610c8d565b810181811067ffffffffffffffff82111715610cf257610cf1610c9d565b5b80604052505050565b5f610d04610bb4565b9050610d108282610cca565b919050565b5f67ffffffffffffffff821115610d2f57610d2e610c9d565b5b610d3882610c8d565b9050602081019050919050565b828183375f83830152505050565b5f610d65610d6084610d15565b610cfb565b905082815260208101848484011115610d8157610d80610c89565b5b610d8c848285610d45565b509392505050565b5f82601f830112610da857610da7610c85565b5b8135610db8848260208601610d53565b91505092915050565b610dca81610b83565b8114610dd4575f5ffd5b50565b5f81359050610de581610dc1565b92915050565b5f5f5f60608486031215610e0257610e01610bbd565b5b5f610e0f86828701610c71565b935050602084013567ffffffffffffffff811115610e3057610e2f610bc1565b5b610e3c86828701610d94565b9250506040610e4d86828701610dd7565b9150509250925092565b5f81519050919050565b5f82825260208201905092915050565b5f819050602082019050919050565b610e8981610c4a565b82525050565b5f81519050919050565b5f82825260208201905092915050565b8281835e5f83830152505050565b5f610ec182610e8f565b610ecb8185610e99565b9350610edb818560208601610ea9565b610ee481610c8d565b840191505092915050565b610ef881610b83565b82525050565b5f606083015f830151610f135f860182610e80565b5060208301518482036020860152610f2b8282610eb7565b9150506040830151610f406040860182610eef565b508091505092915050565b5f610f568383610efe565b905092915050565b5f602082019050919050565b5f610f7482610e57565b610f7e8185610e61565b935083602082028501610f9085610e71565b805f5b85811015610fcb5784840389528151610fac8582610f4b565b9450610fb783610f5e565b925060208a01995050600181019050610f93565b50829750879550505050505092915050565b5f6020820190508181035f830152610ff58184610f6a565b905092915050565b5f6020828403121561101257611011610bbd565b5b5f61101f84828501610dd7565b91505092915050565b61103181610c4a565b82525050565b5f82825260208201905092915050565b5f61105182610e8f565b61105b8185611037565b935061106b818560208601610ea9565b61107481610c8d565b840191505092915050565b5f6060820190506110925f830186611028565b81810360208301526110a48185611047565b90506110b36040830184610b8c565b949350505050565b7f4f6e6c79206f776e65722063616e2063616c6c000000000000000000000000005f82015250565b5f6110ef601383611037565b91506110fa826110bb565b602082019050919050565b5f6020820190508181035f83015261111c816110e3565b9050919050565b7f4e487b71000000000000000000000000000000000000000000000000000000005f52603260045260245ffd5b7f4e487b71000000000000000000000000000000000000000000000000000000005f52601160045260245ffd5b5f61118782610b83565b915061119283610b83565b92508282039050818111156111aa576111a9611150565b5b92915050565b5f6111ba82610b83565b91506111c583610b83565b92508282019050808211156111dd576111dc611150565b5b92915050565b7f4e487b71000000000000000000000000000000000000000000000000000000005f52602260045260245ffd5b5f600282049050600182168061122757607f821691505b60208210810361123a576112396111e3565b5b50919050565b5f8154905061124e81611210565b9050919050565b5f819050815f5260205f209050919050565b5f6020601f8301049050919050565b5f82821b905092915050565b5f600883026112b17fffffffffffffffffffffffffffffffffffffffffffffffffffffffffffffffff82611276565b6112bb8683611276565b95508019841693508086168417925050509392505050565b5f819050919050565b5f6112f66112f16112ec84610b83565b6112d3565b610b83565b9050919050565b5f819050919050565b61130f836112dc565b61132361131b826112fd565b848454611282565b825550505050565b5f5f905090565b61133a61132b565b611345818484611306565b505050565b5b818110156113685761135d5f82611332565b60018101905061134b565b5050565b601f8211156113ad5761137e81611255565b61138784611267565b81016020851015611396578190505b6113aa6113a285611267565b83018261134a565b50505b505050565b5f82821c905092915050565b5f6113cd5f19846008026113b2565b1980831691505092915050565b5f6113e583836113be565b9150826002028217905092915050565b8181036114035750506114d8565b61140c82611240565b67ffffffffffffffff81111561142557611424610c9d565b5b61142f8254611210565b61143a82828561136c565b5f601f831160018114611467575f8415611455578287015490505b61145f85826113da565b8655506114d1565b601f19841661147587611255565b965061148086611255565b5f5b828110156114a757848901548255600182019150600185019450602081019050611482565b868310156114c457848901546114c0601f8916826113be565b8355505b6001600288020188555050505b5050505050505b565b7f4e487b71000000000000000000000000000000000000000000000000000000005f52603160045260245ffd5b7f4e6f204d6f6e65790000000000000000000000000000000000000000000000005f82015250565b5f61153b600883611037565b915061154682611507565b602082019050919050565b5f6020820190508181035f8301526115688161152f565b9050919050565b7f4e6f2057616974726573732061646465640000000000000000000000000000005f82015250565b5f6115a3601183611037565b91506115ae8261156f565b602082019050919050565b5f6020820190508181035f8301526115d081611597565b9050919050565b5f6115e182610b83565b91506115ec83610b83565b92508282026115fa81610b83565b9150828204841483151761161157611610611150565b5b5092915050565b7f4e487b71000000000000000000000000000000000000000000000000000000005f52601260045260245ffd5b5f61164f82610b83565b915061165a83610b83565b92508261166a57611669611618565b5b828204905092915050565b7f546f74616c2070657263656e74206578636565647320313030250000000000005f82015250565b5f6116a9601a83611037565b91506116b482611675565b602082019050919050565b5f6020820190508181035f8301526116d68161169d565b9050919050565b7f576169747265737320616c7265616479206578697374730000000000000000005f82015250565b5f611711601783611037565b915061171c826116dd565b602082019050919050565b5f6020820190508181035f83015261173e81611705565b9050919050565b61174e82610e8f565b67ffffffffffffffff81111561176757611766610c9d565b5b6117718254611210565b61177c82828561136c565b5f60209050601f8311600181146117ad575f841561179b578287015190505b6117a585826113da565b86555061180c565b601f1984166117bb86611255565b5f5b828110156117e2578489015182556001820191506020850194506020810190506117bd565b868310156117ff57848901516117fb601f8916826113be565b8355505b6001600288020188555050505b505050505050565b5f81905092915050565b50565b5f61182c5f83611814565b91506118378261181e565b5f82019050919050565b5f61184b82611821565b9150819050919050565b7f5472616e73666572206661696c65642e000000000000000000000000000000005f82015250565b5f611889601083611037565b915061189482611855565b602082019050919050565b5f6020820190508181035f8301526118b68161187d565b905091905056fea26469706673582212207d2aa1c8725c7514f5837e6da1df4bcb65911408bb63c08f4c1e59d48e635fe664736f6c634300081f0033",
					"opcodes": "PUSH1 0x80 PUSH1 0x40 MSTORE CALLVALUE DUP1 ISZERO PUSH1 0xE JUMPI PUSH0 PUSH0 REVERT JUMPDEST POP CALLER PUSH0 PUSH0 PUSH2 0x100 EXP DUP2 SLOAD DUP2 PUSH20 0xFFFFFFFFFFFFFFFFFFFFFFFFFFFFFFFFFFFFFFFF MUL NOT AND SWAP1 DUP4 PUSH20 0xFFFFFFFFFFFFFFFFFFFFFFFFFFFFFFFFFFFFFFFF AND MUL OR SWAP1 SSTORE POP PUSH2 0x18F3 DUP1 PUSH2 0x5B PUSH0 CODECOPY PUSH0 RETURN INVALID PUSH1 0x80 PUSH1 0x40 MSTORE PUSH1 0x4 CALLDATASIZE LT PUSH2 0x7A JUMPI PUSH0 CALLDATALOAD PUSH1 0xE0 SHR DUP1 PUSH4 0x7943DA69 GT PUSH2 0x4D JUMPI DUP1 PUSH4 0x7943DA69 EQ PUSH2 0x104 JUMPI DUP1 PUSH4 0xB499B79A EQ PUSH2 0x11A JUMPI DUP1 PUSH4 0xE83A1B00 EQ PUSH2 0x142 JUMPI DUP1 PUSH4 0xEC066E3A EQ PUSH2 0x16C JUMPI PUSH2 0x7A JUMP JUMPDEST DUP1 PUSH4 0x2A08DEDA EQ PUSH2 0x7E JUMPI DUP1 PUSH4 0x369A489D EQ PUSH2 0xA8 JUMPI DUP1 PUSH4 0x3C8E3B52 EQ PUSH2 0xD0 JUMPI DUP1 PUSH4 0x6E7301FD EQ PUSH2 0xFA JUMPI JUMPDEST PUSH0 PUSH0 REVERT JUMPDEST CALLVALUE DUP1 ISZERO PUSH2 0x89 JUMPI PUSH0 PUSH0 REVERT JUMPDEST POP PUSH2 0x92 PUSH2 0x1AA JUMP JUMPDEST PUSH1 0x40 MLOAD PUSH2 0x9F SWAP2 SWAP1 PUSH2 0xB9B JUMP JUMPDEST PUSH1 0x40 MLOAD DUP1 SWAP2 SUB SWAP1 RETURN JUMPDEST CALLVALUE DUP1 ISZERO PUSH2 0xB3 JUMPI PUSH0 PUSH0 REVERT JUMPDEST POP PUSH2 0xCE PUSH1 0x4 DUP1 CALLDATASIZE SUB DUP2 ADD SWAP1 PUSH2 0xC9 SWAP2 SWAP1 PUSH2 0xC1F JUMP JUMPDEST PUSH2 0x1B1 JUMP JUMPDEST STOP JUMPDEST CALLVALUE DUP1 ISZERO PUSH2 0xDB JUMPI PUSH0 PUSH0 REVERT JUMPDEST POP PUSH2 0xE4 PUSH2 0x43C JUMP JUMPDEST PUSH1 0x40 MLOAD PUSH2 0xF1 SWAP2 SWAP1 PUSH2 0xB9B JUMP JUMPDEST PUSH1 0x40 MLOAD DUP1 SWAP2 SUB SWAP1 RETURN JUMPDEST PUSH2 0x102 PUSH2 0x499 JUMP JUMPDEST STOP JUMPDEST CALLVALUE DUP1 ISZERO PUSH2 0x10F JUMPI PUSH0 PUSH0 REVERT JUMPDEST POP PUSH2 0x118 PUSH2 0x49B JUMP JUMPDEST STOP JUMPDEST CALLVALUE DUP1 ISZERO PUSH2 0x125 JUMPI PUSH0 PUSH0 REVERT JUMPDEST POP PUSH2 0x140 PUSH1 0x4 DUP1 CALLDATASIZE SUB DUP2 ADD SWAP1 PUSH2 0x13B SWAP2 SWAP1 PUSH2 0xDEB JUMP JUMPDEST PUSH2 0x5DE JUMP JUMPDEST STOP JUMPDEST CALLVALUE DUP1 ISZERO PUSH2 0x14D JUMPI PUSH0 PUSH0 REVERT JUMPDEST POP PUSH2 0x156 PUSH2 0x85A JUMP JUMPDEST PUSH1 0x40 MLOAD PUSH2 0x163 SWAP2 SWAP1 PUSH2 0xFDD JUMP JUMPDEST PUSH1 0x40 MLOAD DUP1 SWAP2 SUB SWAP1 RETURN JUMPDEST CALLVALUE DUP1 ISZERO PUSH2 0x177 JUMPI PUSH0 PUSH0 REVERT JUMPDEST POP PUSH2 0x192 PUSH1 0x4 DUP1 CALLDATASIZE SUB DUP2 ADD SWAP1 PUSH2 0x18D SWAP2 SWAP1 PUSH2 0xFFD JUMP JUMPDEST PUSH2 0x9A4 JUMP JUMPDEST PUSH1 0x40 MLOAD PUSH2 0x1A1 SWAP4 SWAP3 SWAP2 SWAP1 PUSH2 0x107F JUMP JUMPDEST PUSH1 0x40 MLOAD DUP1 SWAP2 SUB SWAP1 RETURN JUMPDEST PUSH0 SELFBALANCE SWAP1 POP SWAP1 JUMP JUMPDEST PUSH0 PUSH0 SWAP1 SLOAD SWAP1 PUSH2 0x100 EXP SWAP1 DIV PUSH20 0xFFFFFFFFFFFFFFFFFFFFFFFFFFFFFFFFFFFFFFFF AND PUSH20 0xFFFFFFFFFFFFFFFFFFFFFFFFFFFFFFFFFFFFFFFF AND CALLER PUSH20 0xFFFFFFFFFFFFFFFFFFFFFFFFFFFFFFFFFFFFFFFF AND EQ PUSH2 0x23F JUMPI PUSH1 0x40 MLOAD PUSH32 0x8C379A000000000000000000000000000000000000000000000000000000000 DUP2 MSTORE PUSH1 0x4 ADD PUSH2 0x236 SWAP1 PUSH2 0x1105 JUMP JUMPDEST PUSH1 0x40 MLOAD DUP1 SWAP2 SUB SWAP1 REVERT JUMPDEST PUSH0 PUSH0 SWAP1 POP JUMPDEST PUSH1 0x1 DUP1 SLOAD SWAP1 POP DUP2 LT ISZERO PUSH2 0x437 JUMPI DUP2 PUSH20 0xFFFFFFFFFFFFFFFFFFFFFFFFFFFFFFFFFFFFFFFF AND PUSH1 0x1 DUP3 DUP2 SLOAD DUP2 LT PUSH2 0x27C JUMPI PUSH2 0x27B PUSH2 0x1123 JUMP JUMPDEST JUMPDEST SWAP1 PUSH0 MSTORE PUSH1 0x20 PUSH0 KECCAK256 SWAP1 PUSH1 0x3 MUL ADD PUSH0 ADD PUSH0 SWAP1 SLOAD SWAP1 PUSH2 0x100 EXP SWAP1 DIV PUSH20 0xFFFFFFFFFFFFFFFFFFFFFFFFFFFFFFFFFFFFFFFF AND PUSH20 0xFFFFFFFFFFFFFFFFFFFFFFFFFFFFFFFFFFFFFFFF AND SUB PUSH2 0x42A JUMPI PUSH0 DUP2 SWAP1 POP JUMPDEST PUSH1 0x1 DUP1 DUP1 SLOAD SWAP1 POP PUSH2 0x2DB SWAP2 SWAP1 PUSH2 0x117D JUMP JUMPDEST DUP2 LT ISZERO PUSH2 0x3BF JUMPI PUSH1 0x1 DUP1 DUP3 PUSH2 0x2F0 SWAP2 SWAP1 PUSH2 0x11B0 JUMP JUMPDEST DUP2 SLOAD DUP2 LT PUSH2 0x301 JUMPI PUSH2 0x300 PUSH2 0x1123 JUMP JUMPDEST JUMPDEST SWAP1 PUSH0 MSTORE PUSH1 0x20 PUSH0 KECCAK256 SWAP1 PUSH1 0x3 MUL ADD PUSH1 0x1 DUP3 DUP2 SLOAD DUP2 LT PUSH2 0x321 JUMPI PUSH2 0x320 PUSH2 0x1123 JUMP JUMPDEST JUMPDEST SWAP1 PUSH0 MSTORE PUSH1 0x20 PUSH0 KECCAK256 SWAP1 PUSH1 0x3 MUL ADD PUSH0 DUP3 ADD PUSH0 SWAP1 SLOAD SWAP1 PUSH2 0x100 EXP SWAP1 DIV PUSH20 0xFFFFFFFFFFFFFFFFFFFFFFFFFFFFFFFFFFFFFFFF AND DUP2 PUSH0 ADD PUSH0 PUSH2 0x100 EXP DUP2 SLOAD DUP2 PUSH20 0xFFFFFFFFFFFFFFFFFFFFFFFFFFFFFFFFFFFFFFFF MUL NOT AND SWAP1 DUP4 PUSH20 0xFFFFFFFFFFFFFFFFFFFFFFFFFFFFFFFFFFFFFFFF AND MUL OR SWAP1 SSTORE POP PUSH1 0x1 DUP3 ADD DUP2 PUSH1 0x1 ADD SWAP1 DUP2 PUSH2 0x3A4 SWAP2 SWAP1 PUSH2 0x13F5 JUMP JUMPDEST POP PUSH1 0x2 DUP3 ADD SLOAD DUP2 PUSH1 0x2 ADD SSTORE SWAP1 POP POP DUP1 DUP1 PUSH1 0x1 ADD SWAP2 POP POP PUSH2 0x2CA JUMP JUMPDEST POP PUSH1 0x1 DUP1 SLOAD DUP1 PUSH2 0x3D2 JUMPI PUSH2 0x3D1 PUSH2 0x14DA JUMP JUMPDEST JUMPDEST PUSH1 0x1 SWAP1 SUB DUP2 DUP2 SWAP1 PUSH0 MSTORE PUSH1 0x20 PUSH0 KECCAK256 SWAP1 PUSH1 0x3 MUL ADD PUSH0 PUSH0 DUP3 ADD PUSH0 PUSH2 0x100 EXP DUP2 SLOAD SWAP1 PUSH20 0xFFFFFFFFFFFFFFFFFFFFFFFFFFFFFFFFFFFFFFFF MUL NOT AND SWAP1 SSTORE PUSH1 0x1 DUP3 ADD PUSH0 PUSH2 0x419 SWAP2 SWAP1 PUSH2 0xB2B JUMP JUMPDEST PUSH1 0x2 DUP3 ADD PUSH0 SWAP1 SSTORE POP POP SWAP1 SSTORE POP PUSH2 0x439 JUMP JUMPDEST DUP1 DUP1 PUSH1 0x1 ADD SWAP2 POP POP PUSH2 0x244 JUMP JUMPDEST POP JUMPDEST POP JUMP JUMPDEST PUSH0 PUSH0 PUSH0 SWAP1 POP PUSH0 PUSH0 SWAP1 POP JUMPDEST PUSH1 0x1 DUP1 SLOAD SWAP1 POP DUP2 LT ISZERO PUSH2 0x491 JUMPI PUSH1 0x1 DUP2 DUP2 SLOAD DUP2 LT PUSH2 0x467 JUMPI PUSH2 0x466 PUSH2 0x1123 JUMP JUMPDEST JUMPDEST SWAP1 PUSH0 MSTORE PUSH1 0x20 PUSH0 KECCAK256 SWAP1 PUSH1 0x3 MUL ADD PUSH1 0x2 ADD SLOAD DUP3 PUSH2 0x482 SWAP2 SWAP1 PUSH2 0x11B0 JUMP JUMPDEST SWAP2 POP DUP1 DUP1 PUSH1 0x1 ADD SWAP2 POP POP PUSH2 0x446 JUMP JUMPDEST POP DUP1 SWAP2 POP POP SWAP1 JUMP JUMPDEST JUMP JUMPDEST PUSH0 SELFBALANCE SWAP1 POP PUSH0 DUP2 GT PUSH2 0x4E1 JUMPI PUSH1 0x40 MLOAD PUSH32 0x8C379A000000000000000000000000000000000000000000000000000000000 DUP2 MSTORE PUSH1 0x4 ADD PUSH2 0x4D8 SWAP1 PUSH2 0x1551 JUMP JUMPDEST PUSH1 0x40 MLOAD DUP1 SWAP2 SUB SWAP1 REVERT JUMPDEST PUSH0 PUSH1 0x1 DUP1 SLOAD SWAP1 POP GT PUSH2 0x528 JUMPI PUSH1 0x40 MLOAD PUSH32 0x8C379A000000000000000000000000000000000000000000000000000000000 DUP2 MSTORE PUSH1 0x4 ADD PUSH2 0x51F SWAP1 PUSH2 0x15B9 JUMP JUMPDEST PUSH1 0x40 MLOAD DUP1 SWAP2 SUB SWAP1 REVERT JUMPDEST PUSH0 PUSH0 SWAP1 POP JUMPDEST PUSH1 0x1 DUP1 SLOAD SWAP1 POP DUP2 LT ISZERO PUSH2 0x5DA JUMPI PUSH0 PUSH1 0x64 PUSH1 0x1 DUP4 DUP2 SLOAD DUP2 LT PUSH2 0x551 JUMPI PUSH2 0x550 PUSH2 0x1123 JUMP JUMPDEST JUMPDEST SWAP1 PUSH0 MSTORE PUSH1 0x20 PUSH0 KECCAK256 SWAP1 PUSH1 0x3 MUL ADD PUSH1 0x2 ADD SLOAD DUP5 PUSH2 0x56C SWAP2 SWAP1 PUSH2 0x15D7 JUMP JUMPDEST PUSH2 0x576 SWAP2 SWAP1 PUSH2 0x1645 JUMP JUMPDEST SWAP1 POP PUSH0 DUP2 GT ISZERO PUSH2 0x5CC JUMPI PUSH2 0x5CB PUSH1 0x1 DUP4 DUP2 SLOAD DUP2 LT PUSH2 0x597 JUMPI PUSH2 0x596 PUSH2 0x1123 JUMP JUMPDEST JUMPDEST SWAP1 PUSH0 MSTORE PUSH1 0x20 PUSH0 KECCAK256 SWAP1 PUSH1 0x3 MUL ADD PUSH0 ADD PUSH0 SWAP1 SLOAD SWAP1 PUSH2 0x100 EXP SWAP1 DIV PUSH20 0xFFFFFFFFFFFFFFFFFFFFFFFFFFFFFFFFFFFFFFFF AND DUP3 PUSH2 0xA7E JUMP JUMPDEST JUMPDEST POP DUP1 DUP1 PUSH1 0x1 ADD SWAP2 POP POP PUSH2 0x52D JUMP JUMPDEST POP POP JUMP JUMPDEST PUSH0 PUSH0 SWAP1 SLOAD SWAP1 PUSH2 0x100 EXP SWAP1 DIV PUSH20 0xFFFFFFFFFFFFFFFFFFFFFFFFFFFFFFFFFFFFFFFF AND PUSH20 0xFFFFFFFFFFFFFFFFFFFFFFFFFFFFFFFFFFFFFFFF AND CALLER PUSH20 0xFFFFFFFFFFFFFFFFFFFFFFFFFFFFFFFFFFFFFFFF AND EQ PUSH2 0x66C JUMPI PUSH1 0x40 MLOAD PUSH32 0x8C379A000000000000000000000000000000000000000000000000000000000 DUP2 MSTORE PUSH1 0x4 ADD PUSH2 0x663 SWAP1 PUSH2 0x1105 JUMP JUMPDEST PUSH1 0x40 MLOAD DUP1 SWAP2 SUB SWAP1 REVERT JUMPDEST PUSH0 PUSH2 0x675 PUSH2 0x43C JUMP JUMPDEST SWAP1 POP PUSH1 0x64 DUP3 DUP3 PUSH2 0x685 SWAP2 SWAP1 PUSH2 0x11B0 JUMP JUMPDEST GT ISZERO PUSH2 0x6C6 JUMPI PUSH1 0x40 MLOAD PUSH32 0x8C379A000000000000000000000000000000000000000000000000000000000 DUP2 MSTORE PUSH1 0x4 ADD PUSH2 0x6BD SWAP1 PUSH2 0x16BF JUMP JUMPDEST PUSH1 0x40 MLOAD DUP1 SWAP2 SUB SWAP1 REVERT JUMPDEST PUSH0 PUSH0 SWAP1 POP JUMPDEST PUSH1 0x1 DUP1 SLOAD SWAP1 POP DUP2 LT ISZERO PUSH2 0x794 JUMPI DUP5 PUSH20 0xFFFFFFFFFFFFFFFFFFFFFFFFFFFFFFFFFFFFFFFF AND PUSH1 0x1 DUP3 DUP2 SLOAD DUP2 LT PUSH2 0x703 JUMPI PUSH2 0x702 PUSH2 0x1123 JUMP JUMPDEST JUMPDEST SWAP1 PUSH0 MSTORE PUSH1 0x20 PUSH0 KECCAK256 SWAP1 PUSH1 0x3 MUL ADD PUSH0 ADD PUSH0 SWAP1 SLOAD SWAP1 PUSH2 0x100 EXP SWAP1 DIV PUSH20 0xFFFFFFFFFFFFFFFFFFFFFFFFFFFFFFFFFFFFFFFF AND PUSH20 0xFFFFFFFFFFFFFFFFFFFFFFFFFFFFFFFFFFFFFFFF AND SUB PUSH2 0x787 JUMPI PUSH1 0x40 MLOAD PUSH32 0x8C379A000000000000000000000000000000000000000000000000000000000 DUP2 MSTORE PUSH1 0x4 ADD PUSH2 0x77E SWAP1 PUSH2 0x1727 JUMP JUMPDEST PUSH1 0x40 MLOAD DUP1 SWAP2 SUB SWAP1 REVERT JUMPDEST DUP1 DUP1 PUSH1 0x1 ADD SWAP2 POP POP PUSH2 0x6CB JUMP JUMPDEST POP PUSH1 0x1 PUSH1 0x40 MLOAD DUP1 PUSH1 0x60 ADD PUSH1 0x40 MSTORE DUP1 DUP7 PUSH20 0xFFFFFFFFFFFFFFFFFFFFFFFFFFFFFFFFFFFFFFFF AND DUP2 MSTORE PUSH1 0x20 ADD DUP6 DUP2 MSTORE PUSH1 0x20 ADD DUP5 DUP2 MSTORE POP SWAP1 DUP1 PUSH1 0x1 DUP2 SLOAD ADD DUP1 DUP3 SSTORE DUP1 SWAP2 POP POP PUSH1 0x1 SWAP1 SUB SWAP1 PUSH0 MSTORE PUSH1 0x20 PUSH0 KECCAK256 SWAP1 PUSH1 0x3 MUL ADD PUSH0 SWAP1 SWAP2 SWAP1 SWAP2 SWAP1 SWAP2 POP PUSH0 DUP3 ADD MLOAD DUP2 PUSH0 ADD PUSH0 PUSH2 0x100 EXP DUP2 SLOAD DUP2 PUSH20 0xFFFFFFFFFFFFFFFFFFFFFFFFFFFFFFFFFFFFFFFF MUL NOT AND SWAP1 DUP4 PUSH20 0xFFFFFFFFFFFFFFFFFFFFFFFFFFFFFFFFFFFFFFFF AND MUL OR SWAP1 SSTORE POP PUSH1 0x20 DUP3 ADD MLOAD DUP2 PUSH1 0x1 ADD SWAP1 DUP2 PUSH2 0x847 SWAP2 SWAP1 PUSH2 0x1745 JUMP JUMPDEST POP PUSH1 0x40 DUP3 ADD MLOAD DUP2 PUSH1 0x2 ADD SSTORE POP POP POP POP POP POP JUMP JUMPDEST PUSH1 0x60 PUSH1 0x1 DUP1 SLOAD DUP1 PUSH1 0x20 MUL PUSH1 0x20 ADD PUSH1 0x40 MLOAD SWAP1 DUP2 ADD PUSH1 0x40 MSTORE DUP1 SWAP3 SWAP2 SWAP1 DUP2 DUP2 MSTORE PUSH1 0x20 ADD PUSH0 SWAP1 JUMPDEST DUP3 DUP3 LT ISZERO PUSH2 0x99B JUMPI DUP4 DUP3 SWAP1 PUSH0 MSTORE PUSH1 0x20 PUSH0 KECCAK256 SWAP1 PUSH1 0x3 MUL ADD PUSH1 0x40 MLOAD DUP1 PUSH1 0x60 ADD PUSH1 0x40 MSTORE SWAP1 DUP2 PUSH0 DUP3 ADD PUSH0 SWAP1 SLOAD SWAP1 PUSH2 0x100 EXP SWAP1 DIV PUSH20 0xFFFFFFFFFFFFFFFFFFFFFFFFFFFFFFFFFFFFFFFF AND PUSH20 0xFFFFFFFFFFFFFFFFFFFFFFFFFFFFFFFFFFFFFFFF AND PUSH20 0xFFFFFFFFFFFFFFFFFFFFFFFFFFFFFFFFFFFFFFFF AND DUP2 MSTORE PUSH1 0x20 ADD PUSH1 0x1 DUP3 ADD DUP1 SLOAD PUSH2 0x902 SWAP1 PUSH2 0x1210 JUMP JUMPDEST DUP1 PUSH1 0x1F ADD PUSH1 0x20 DUP1 SWAP2 DIV MUL PUSH1 0x20 ADD PUSH1 0x40 MLOAD SWAP1 DUP2 ADD PUSH1 0x40 MSTORE DUP1 SWAP3 SWAP2 SWAP1 DUP2 DUP2 MSTORE PUSH1 0x20 ADD DUP3 DUP1 SLOAD PUSH2 0x92E SWAP1 PUSH2 0x1210 JUMP JUMPDEST DUP1 ISZERO PUSH2 0x979 JUMPI DUP1 PUSH1 0x1F LT PUSH2 0x950 JUMPI PUSH2 0x100 DUP1 DUP4 SLOAD DIV MUL DUP4 MSTORE SWAP2 PUSH1 0x20 ADD SWAP2 PUSH2 0x979 JUMP JUMPDEST DUP3 ADD SWAP2 SWAP1 PUSH0 MSTORE PUSH1 0x20 PUSH0 KECCAK256 SWAP1 JUMPDEST DUP2 SLOAD DUP2 MSTORE SWAP1 PUSH1 0x1 ADD SWAP1 PUSH1 0x20 ADD DUP1 DUP4 GT PUSH2 0x95C JUMPI DUP3 SWAP1 SUB PUSH1 0x1F AND DUP3 ADD SWAP2 JUMPDEST POP POP POP POP POP DUP2 MSTORE PUSH1 0x20 ADD PUSH1 0x2 DUP3 ADD SLOAD DUP2 MSTORE POP POP DUP2 MSTORE PUSH1 0x20 ADD SWAP1 PUSH1 0x1 ADD SWAP1 PUSH2 0x87D JUMP JUMPDEST POP POP POP POP SWAP1 POP SWAP1 JUMP JUMPDEST PUSH1 0x1 DUP2 DUP2 SLOAD DUP2 LT PUSH2 0x9B3 JUMPI PUSH0 DUP1 REVERT JUMPDEST SWAP1 PUSH0 MSTORE PUSH1 0x20 PUSH0 KECCAK256 SWAP1 PUSH1 0x3 MUL ADD PUSH0 SWAP2 POP SWAP1 POP DUP1 PUSH0 ADD PUSH0 SWAP1 SLOAD SWAP1 PUSH2 0x100 EXP SWAP1 DIV PUSH20 0xFFFFFFFFFFFFFFFFFFFFFFFFFFFFFFFFFFFFFFFF AND SWAP1 DUP1 PUSH1 0x1 ADD DUP1 SLOAD PUSH2 0x9F7 SWAP1 PUSH2 0x1210 JUMP JUMPDEST DUP1 PUSH1 0x1F ADD PUSH1 0x20 DUP1 SWAP2 DIV MUL PUSH1 0x20 ADD PUSH1 0x40 MLOAD SWAP1 DUP2 ADD PUSH1 0x40 MSTORE DUP1 SWAP3 SWAP2 SWAP1 DUP2 DUP2 MSTORE PUSH1 0x20 ADD DUP3 DUP1 SLOAD PUSH2 0xA23 SWAP1 PUSH2 0x1210 JUMP JUMPDEST DUP1 ISZERO PUSH2 0xA6E JUMPI DUP1 PUSH1 0x1F LT PUSH2 0xA45 JUMPI PUSH2 0x100 DUP1 DUP4 SLOAD DIV MUL DUP4 MSTORE SWAP2 PUSH1 0x20 ADD SWAP2 PUSH2 0xA6E JUMP JUMPDEST DUP3 ADD SWAP2 SWAP1 PUSH0 MSTORE PUSH1 0x20 PUSH0 KECCAK256 SWAP1 JUMPDEST DUP2 SLOAD DUP2 MSTORE SWAP1 PUSH1 0x1 ADD SWAP1 PUSH1 0x20 ADD DUP1 DUP4 GT PUSH2 0xA51 JUMPI DUP3 SWAP1 SUB PUSH1 0x1F AND DUP3 ADD SWAP2 JUMPDEST POP POP POP POP POP SWAP1 DUP1 PUSH1 0x2 ADD SLOAD SWAP1 POP DUP4 JUMP JUMPDEST PUSH0 DUP3 PUSH20 0xFFFFFFFFFFFFFFFFFFFFFFFFFFFFFFFFFFFFFFFF AND DUP3 PUSH1 0x40 MLOAD PUSH2 0xAA3 SWAP1 PUSH2 0x1841 JUMP JUMPDEST PUSH0 PUSH1 0x40 MLOAD DUP1 DUP4 SUB DUP2 DUP6 DUP8 GAS CALL SWAP3 POP POP POP RETURNDATASIZE DUP1 PUSH0 DUP2 EQ PUSH2 0xADD JUMPI PUSH1 0x40 MLOAD SWAP2 POP PUSH1 0x1F NOT PUSH1 0x3F RETURNDATASIZE ADD AND DUP3 ADD PUSH1 0x40 MSTORE RETURNDATASIZE DUP3 MSTORE RETURNDATASIZE PUSH0 PUSH1 0x20 DUP5 ADD RETURNDATACOPY PUSH2 0xAE2 JUMP JUMPDEST PUSH1 0x60 SWAP2 POP JUMPDEST POP POP SWAP1 POP DUP1 PUSH2 0xB26 JUMPI PUSH1 0x40 MLOAD PUSH32 0x8C379A000000000000000000000000000000000000000000000000000000000 DUP2 MSTORE PUSH1 0x4 ADD PUSH2 0xB1D SWAP1 PUSH2 0x189F JUMP JUMPDEST PUSH1 0x40 MLOAD DUP1 SWAP2 SUB SWAP1 REVERT JUMPDEST POP POP POP JUMP JUMPDEST POP DUP1 SLOAD PUSH2 0xB37 SWAP1 PUSH2 0x1210 JUMP JUMPDEST PUSH0 DUP3 SSTORE DUP1 PUSH1 0x1F LT PUSH2 0xB48 JUMPI POP PUSH2 0xB65 JUMP JUMPDEST PUSH1 0x1F ADD PUSH1 0x20 SWAP1 DIV SWAP1 PUSH0 MSTORE PUSH1 0x20 PUSH0 KECCAK256 SWAP1 DUP2 ADD SWAP1 PUSH2 0xB64 SWAP2 SWAP1 PUSH2 0xB68 JUMP JUMPDEST JUMPDEST POP JUMP JUMPDEST JUMPDEST DUP1 DUP3 GT ISZERO PUSH2 0xB7F JUMPI PUSH0 DUP2 PUSH0 SWAP1 SSTORE POP PUSH1 0x1 ADD PUSH2 0xB69 JUMP JUMPDEST POP SWAP1 JUMP JUMPDEST PUSH0 DUP2 SWAP1 POP SWAP2 SWAP1 POP JUMP JUMPDEST PUSH2 0xB95 DUP2 PUSH2 0xB83 JUMP JUMPDEST DUP3 MSTORE POP POP JUMP JUMPDEST PUSH0 PUSH1 0x20 DUP3 ADD SWAP1 POP PUSH2 0xBAE PUSH0 DUP4 ADD DUP5 PUSH2 0xB8C JUMP JUMPDEST SWAP3 SWAP2 POP POP JUMP JUMPDEST PUSH0 PUSH1 0x40 MLOAD SWAP1 POP SWAP1 JUMP JUMPDEST PUSH0 PUSH0 REVERT JUMPDEST PUSH0 PUSH0 REVERT JUMPDEST PUSH0 PUSH20 0xFFFFFFFFFFFFFFFFFFFFFFFFFFFFFFFFFFFFFFFF DUP3 AND SWAP1 POP SWAP2 SWAP1 POP JUMP JUMPDEST PUSH0 PUSH2 0xBEE DUP3 PUSH2 0xBC5 JUMP JUMPDEST SWAP1 POP SWAP2 SWAP1 POP JUMP JUMPDEST PUSH2 0xBFE DUP2 PUSH2 0xBE4 JUMP JUMPDEST DUP2 EQ PUSH2 0xC08 JUMPI PUSH0 PUSH0 REVERT JUMPDEST POP JUMP JUMPDEST PUSH0 DUP2 CALLDATALOAD SWAP1 POP PUSH2 0xC19 DUP2 PUSH2 0xBF5 JUMP JUMPDEST SWAP3 SWAP2 POP POP JUMP JUMPDEST PUSH0 PUSH1 0x20 DUP3 DUP5 SUB SLT ISZERO PUSH2 0xC34 JUMPI PUSH2 0xC33 PUSH2 0xBBD JUMP JUMPDEST JUMPDEST PUSH0 PUSH2 0xC41 DUP5 DUP3 DUP6 ADD PUSH2 0xC0B JUMP JUMPDEST SWAP2 POP POP SWAP3 SWAP2 POP POP JUMP JUMPDEST PUSH0 PUSH2 0xC54 DUP3 PUSH2 0xBC5 JUMP JUMPDEST SWAP1 POP SWAP2 SWAP1 POP JUMP JUMPDEST PUSH2 0xC64 DUP2 PUSH2 0xC4A JUMP JUMPDEST DUP2 EQ PUSH2 0xC6E JUMPI PUSH0 PUSH0 REVERT JUMPDEST POP JUMP JUMPDEST PUSH0 DUP2 CALLDATALOAD SWAP1 POP PUSH2 0xC7F DUP2 PUSH2 0xC5B JUMP JUMPDEST SWAP3 SWAP2 POP POP JUMP JUMPDEST PUSH0 PUSH0 REVERT JUMPDEST PUSH0 PUSH0 REVERT JUMPDEST PUSH0 PUSH1 0x1F NOT PUSH1 0x1F DUP4 ADD AND SWAP1 POP SWAP2 SWAP1 POP JUMP JUMPDEST PUSH32 0x4E487B7100000000000000000000000000000000000000000000000000000000 PUSH0 MSTORE PUSH1 0x41 PUSH1 0x4 MSTORE PUSH1 0x24 PUSH0 REVERT JUMPDEST PUSH2 0xCD3 DUP3 PUSH2 0xC8D JUMP JUMPDEST DUP2 ADD DUP2 DUP2 LT PUSH8 0xFFFFFFFFFFFFFFFF DUP3 GT OR ISZERO PUSH2 0xCF2 JUMPI PUSH2 0xCF1 PUSH2 0xC9D JUMP JUMPDEST JUMPDEST DUP1 PUSH1 0x40 MSTORE POP POP POP JUMP JUMPDEST PUSH0 PUSH2 0xD04 PUSH2 0xBB4 JUMP JUMPDEST SWAP1 POP PUSH2 0xD10 DUP3 DUP3 PUSH2 0xCCA JUMP JUMPDEST SWAP2 SWAP1 POP JUMP JUMPDEST PUSH0 PUSH8 0xFFFFFFFFFFFFFFFF DUP3 GT ISZERO PUSH2 0xD2F JUMPI PUSH2 0xD2E PUSH2 0xC9D JUMP JUMPDEST JUMPDEST PUSH2 0xD38 DUP3 PUSH2 0xC8D JUMP JUMPDEST SWAP1 POP PUSH1 0x20 DUP2 ADD SWAP1 POP SWAP2 SWAP1 POP JUMP JUMPDEST DUP3 DUP2 DUP4 CALLDATACOPY PUSH0 DUP4 DUP4 ADD MSTORE POP POP POP JUMP JUMPDEST PUSH0 PUSH2 0xD65 PUSH2 0xD60 DUP5 PUSH2 0xD15 JUMP JUMPDEST PUSH2 0xCFB JUMP JUMPDEST SWAP1 POP DUP3 DUP2 MSTORE PUSH1 0x20 DUP2 ADD DUP5 DUP5 DUP5 ADD GT ISZERO PUSH2 0xD81 JUMPI PUSH2 0xD80 PUSH2 0xC89 JUMP JUMPDEST JUMPDEST PUSH2 0xD8C DUP5 DUP3 DUP6 PUSH2 0xD45 JUMP JUMPDEST POP SWAP4 SWAP3 POP POP POP JUMP JUMPDEST PUSH0 DUP3 PUSH1 0x1F DUP4 ADD SLT PUSH2 0xDA8 JUMPI PUSH2 0xDA7 PUSH2 0xC85 JUMP JUMPDEST JUMPDEST DUP2 CALLDATALOAD PUSH2 0xDB8 DUP5 DUP3 PUSH1 0x20 DUP7 ADD PUSH2 0xD53 JUMP JUMPDEST SWAP2 POP POP SWAP3 SWAP2 POP POP JUMP JUMPDEST PUSH2 0xDCA DUP2 PUSH2 0xB83 JUMP JUMPDEST DUP2 EQ PUSH2 0xDD4 JUMPI PUSH0 PUSH0 REVERT JUMPDEST POP JUMP JUMPDEST PUSH0 DUP2 CALLDATALOAD SWAP1 POP PUSH2 0xDE5 DUP2 PUSH2 0xDC1 JUMP JUMPDEST SWAP3 SWAP2 POP POP JUMP JUMPDEST PUSH0 PUSH0 PUSH0 PUSH1 0x60 DUP5 DUP7 SUB SLT ISZERO PUSH2 0xE02 JUMPI PUSH2 0xE01 PUSH2 0xBBD JUMP JUMPDEST JUMPDEST PUSH0 PUSH2 0xE0F DUP7 DUP3 DUP8 ADD PUSH2 0xC71 JUMP JUMPDEST SWAP4 POP POP PUSH1 0x20 DUP5 ADD CALLDATALOAD PUSH8 0xFFFFFFFFFFFFFFFF DUP2 GT ISZERO PUSH2 0xE30 JUMPI PUSH2 0xE2F PUSH2 0xBC1 JUMP JUMPDEST JUMPDEST PUSH2 0xE3C DUP7 DUP3 DUP8 ADD PUSH2 0xD94 JUMP JUMPDEST SWAP3 POP POP PUSH1 0x40 PUSH2 0xE4D DUP7 DUP3 DUP8 ADD PUSH2 0xDD7 JUMP JUMPDEST SWAP2 POP POP SWAP3 POP SWAP3 POP SWAP3 JUMP JUMPDEST PUSH0 DUP2 MLOAD SWAP1 POP SWAP2 SWAP1 POP JUMP JUMPDEST PUSH0 DUP3 DUP3 MSTORE PUSH1 0x20 DUP3 ADD SWAP1 POP SWAP3 SWAP2 POP POP JUMP JUMPDEST PUSH0 DUP2 SWAP1 POP PUSH1 0x20 DUP3 ADD SWAP1 POP SWAP2 SWAP1 POP JUMP JUMPDEST PUSH2 0xE89 DUP2 PUSH2 0xC4A JUMP JUMPDEST DUP3 MSTORE POP POP JUMP JUMPDEST PUSH0 DUP2 MLOAD SWAP1 POP SWAP2 SWAP1 POP JUMP JUMPDEST PUSH0 DUP3 DUP3 MSTORE PUSH1 0x20 DUP3 ADD SWAP1 POP SWAP3 SWAP2 POP POP JUMP JUMPDEST DUP3 DUP2 DUP4 MCOPY PUSH0 DUP4 DUP4 ADD MSTORE POP POP POP JUMP JUMPDEST PUSH0 PUSH2 0xEC1 DUP3 PUSH2 0xE8F JUMP JUMPDEST PUSH2 0xECB DUP2 DUP6 PUSH2 0xE99 JUMP JUMPDEST SWAP4 POP PUSH2 0xEDB DUP2 DUP6 PUSH1 0x20 DUP7 ADD PUSH2 0xEA9 JUMP JUMPDEST PUSH2 0xEE4 DUP2 PUSH2 0xC8D JUMP JUMPDEST DUP5 ADD SWAP2 POP POP SWAP3 SWAP2 POP POP JUMP JUMPDEST PUSH2 0xEF8 DUP2 PUSH2 0xB83 JUMP JUMPDEST DUP3 MSTORE POP POP JUMP JUMPDEST PUSH0 PUSH1 0x60 DUP4 ADD PUSH0 DUP4 ADD MLOAD PUSH2 0xF13 PUSH0 DUP7 ADD DUP3 PUSH2 0xE80 JUMP JUMPDEST POP PUSH1 0x20 DUP4 ADD MLOAD DUP5 DUP3 SUB PUSH1 0x20 DUP7 ADD MSTORE PUSH2 0xF2B DUP3 DUP3 PUSH2 0xEB7 JUMP JUMPDEST SWAP2 POP POP PUSH1 0x40 DUP4 ADD MLOAD PUSH2 0xF40 PUSH1 0x40 DUP7 ADD DUP3 PUSH2 0xEEF JUMP JUMPDEST POP DUP1 SWAP2 POP POP SWAP3 SWAP2 POP POP JUMP JUMPDEST PUSH0 PUSH2 0xF56 DUP4 DUP4 PUSH2 0xEFE JUMP JUMPDEST SWAP1 POP SWAP3 SWAP2 POP POP JUMP JUMPDEST PUSH0 PUSH1 0x20 DUP3 ADD SWAP1 POP SWAP2 SWAP1 POP JUMP JUMPDEST PUSH0 PUSH2 0xF74 DUP3 PUSH2 0xE57 JUMP JUMPDEST PUSH2 0xF7E DUP2 DUP6 PUSH2 0xE61 JUMP JUMPDEST SWAP4 POP DUP4 PUSH1 0x20 DUP3 MUL DUP6 ADD PUSH2 0xF90 DUP6 PUSH2 0xE71 JUMP JUMPDEST DUP1 PUSH0 JUMPDEST DUP6 DUP2 LT ISZERO PUSH2 0xFCB JUMPI DUP5 DUP5 SUB DUP10 MSTORE DUP2 MLOAD PUSH2 0xFAC DUP6 DUP3 PUSH2 0xF4B JUMP JUMPDEST SWAP5 POP PUSH2 0xFB7 DUP4 PUSH2 0xF5E JUMP JUMPDEST SWAP3 POP PUSH1 0x20 DUP11 ADD SWAP10 POP POP PUSH1 0x1 DUP2 ADD SWAP1 POP PUSH2 0xF93 JUMP JUMPDEST POP DUP3 SWAP8 POP DUP8 SWAP6 POP POP POP POP POP POP SWAP3 SWAP2 POP POP JUMP JUMPDEST PUSH0 PUSH1 0x20 DUP3 ADD SWAP1 POP DUP2 DUP2 SUB PUSH0 DUP4 ADD MSTORE PUSH2 0xFF5 DUP2 DUP5 PUSH2 0xF6A JUMP JUMPDEST SWAP1 POP SWAP3 SWAP2 POP POP JUMP JUMPDEST PUSH0 PUSH1 0x20 DUP3 DUP5 SUB SLT ISZERO PUSH2 0x1012 JUMPI PUSH2 0x1011 PUSH2 0xBBD JUMP JUMPDEST JUMPDEST PUSH0 PUSH2 0x101F DUP5 DUP3 DUP6 ADD PUSH2 0xDD7 JUMP JUMPDEST SWAP2 POP POP SWAP3 SWAP2 POP POP JUMP JUMPDEST PUSH2 0x1031 DUP2 PUSH2 0xC4A JUMP JUMPDEST DUP3 MSTORE POP POP JUMP JUMPDEST PUSH0 DUP3 DUP3 MSTORE PUSH1 0x20 DUP3 ADD SWAP1 POP SWAP3 SWAP2 POP POP JUMP JUMPDEST PUSH0 PUSH2 0x1051 DUP3 PUSH2 0xE8F JUMP JUMPDEST PUSH2 0x105B DUP2 DUP6 PUSH2 0x1037 JUMP JUMPDEST SWAP4 POP PUSH2 0x106B DUP2 DUP6 PUSH1 0x20 DUP7 ADD PUSH2 0xEA9 JUMP JUMPDEST PUSH2 0x1074 DUP2 PUSH2 0xC8D JUMP JUMPDEST DUP5 ADD SWAP2 POP POP SWAP3 SWAP2 POP POP JUMP JUMPDEST PUSH0 PUSH1 0x60 DUP3 ADD SWAP1 POP PUSH2 0x1092 PUSH0 DUP4 ADD DUP7 PUSH2 0x1028 JUMP JUMPDEST DUP2 DUP2 SUB PUSH1 0x20 DUP4 ADD MSTORE PUSH2 0x10A4 DUP2 DUP6 PUSH2 0x1047 JUMP JUMPDEST SWAP1 POP PUSH2 0x10B3 PUSH1 0x40 DUP4 ADD DUP5 PUSH2 0xB8C JUMP JUMPDEST SWAP5 SWAP4 POP POP POP POP JUMP JUMPDEST PUSH32 0x4F6E6C79206F776E65722063616E2063616C6C00000000000000000000000000 PUSH0 DUP3 ADD MSTORE POP JUMP JUMPDEST PUSH0 PUSH2 0x10EF PUSH1 0x13 DUP4 PUSH2 0x1037 JUMP JUMPDEST SWAP2 POP PUSH2 0x10FA DUP3 PUSH2 0x10BB JUMP JUMPDEST PUSH1 0x20 DUP3 ADD SWAP1 POP SWAP2 SWAP1 POP JUMP JUMPDEST PUSH0 PUSH1 0x20 DUP3 ADD SWAP1 POP DUP2 DUP2 SUB PUSH0 DUP4 ADD MSTORE PUSH2 0x111C DUP2 PUSH2 0x10E3 JUMP JUMPDEST SWAP1 POP SWAP2 SWAP1 POP JUMP JUMPDEST PUSH32 0x4E487B7100000000000000000000000000000000000000000000000000000000 PUSH0 MSTORE PUSH1 0x32 PUSH1 0x4 MSTORE PUSH1 0x24 PUSH0 REVERT JUMPDEST PUSH32 0x4E487B7100000000000000000000000000000000000000000000000000000000 PUSH0 MSTORE PUSH1 0x11 PUSH1 0x4 MSTORE PUSH1 0x24 PUSH0 REVERT JUMPDEST PUSH0 PUSH2 0x1187 DUP3 PUSH2 0xB83 JUMP JUMPDEST SWAP2 POP PUSH2 0x1192 DUP4 PUSH2 0xB83 JUMP JUMPDEST SWAP3 POP DUP3 DUP3 SUB SWAP1 POP DUP2 DUP2 GT ISZERO PUSH2 0x11AA JUMPI PUSH2 0x11A9 PUSH2 0x1150 JUMP JUMPDEST JUMPDEST SWAP3 SWAP2 POP POP JUMP JUMPDEST PUSH0 PUSH2 0x11BA DUP3 PUSH2 0xB83 JUMP JUMPDEST SWAP2 POP PUSH2 0x11C5 DUP4 PUSH2 0xB83 JUMP JUMPDEST SWAP3 POP DUP3 DUP3 ADD SWAP1 POP DUP1 DUP3 GT ISZERO PUSH2 0x11DD JUMPI PUSH2 0x11DC PUSH2 0x1150 JUMP JUMPDEST JUMPDEST SWAP3 SWAP2 POP POP JUMP JUMPDEST PUSH32 0x4E487B7100000000000000000000000000000000000000000000000000000000 PUSH0 MSTORE PUSH1 0x22 PUSH1 0x4 MSTORE PUSH1 0x24 PUSH0 REVERT JUMPDEST PUSH0 PUSH1 0x2 DUP3 DIV SWAP1 POP PUSH1 0x1 DUP3 AND DUP1 PUSH2 0x1227 JUMPI PUSH1 0x7F DUP3 AND SWAP2 POP JUMPDEST PUSH1 0x20 DUP3 LT DUP2 SUB PUSH2 0x123A JUMPI PUSH2 0x1239 PUSH2 0x11E3 JUMP JUMPDEST JUMPDEST POP SWAP2 SWAP1 POP JUMP JUMPDEST PUSH0 DUP2 SLOAD SWAP1 POP PUSH2 0x124E DUP2 PUSH2 0x1210 JUMP JUMPDEST SWAP1 POP SWAP2 SWAP1 POP JUMP JUMPDEST PUSH0 DUP2 SWAP1 POP DUP2 PUSH0 MSTORE PUSH1 0x20 PUSH0 KECCAK256 SWAP1 POP SWAP2 SWAP1 POP JUMP JUMPDEST PUSH0 PUSH1 0x20 PUSH1 0x1F DUP4 ADD DIV SWAP1 POP SWAP2 SWAP1 POP JUMP JUMPDEST PUSH0 DUP3 DUP3 SHL SWAP1 POP SWAP3 SWAP2 POP POP JUMP JUMPDEST PUSH0 PUSH1 0x8 DUP4 MUL PUSH2 0x12B1 PUSH32 0xFFFFFFFFFFFFFFFFFFFFFFFFFFFFFFFFFFFFFFFFFFFFFFFFFFFFFFFFFFFFFFFF DUP3 PUSH2 0x1276 JUMP JUMPDEST PUSH2 0x12BB DUP7 DUP4 PUSH2 0x1276 JUMP JUMPDEST SWAP6 POP DUP1 NOT DUP5 AND SWAP4 POP DUP1 DUP7 AND DUP5 OR SWAP3 POP POP POP SWAP4 SWAP3 POP POP POP JUMP JUMPDEST PUSH0 DUP2 SWAP1 POP SWAP2 SWAP1 POP JUMP JUMPDEST PUSH0 PUSH2 0x12F6 PUSH2 0x12F1 PUSH2 0x12EC DUP5 PUSH2 0xB83 JUMP JUMPDEST PUSH2 0x12D3 JUMP JUMPDEST PUSH2 0xB83 JUMP JUMPDEST SWAP1 POP SWAP2 SWAP1 POP JUMP JUMPDEST PUSH0 DUP2 SWAP1 POP SWAP2 SWAP1 POP JUMP JUMPDEST PUSH2 0x130F DUP4 PUSH2 0x12DC JUMP JUMPDEST PUSH2 0x1323 PUSH2 0x131B DUP3 PUSH2 0x12FD JUMP JUMPDEST DUP5 DUP5 SLOAD PUSH2 0x1282 JUMP JUMPDEST DUP3 SSTORE POP POP POP POP JUMP JUMPDEST PUSH0 PUSH0 SWAP1 POP SWAP1 JUMP JUMPDEST PUSH2 0x133A PUSH2 0x132B JUMP JUMPDEST PUSH2 0x1345 DUP2 DUP5 DUP5 PUSH2 0x1306 JUMP JUMPDEST POP POP POP JUMP JUMPDEST JUMPDEST DUP2 DUP2 LT ISZERO PUSH2 0x1368 JUMPI PUSH2 0x135D PUSH0 DUP3 PUSH2 0x1332 JUMP JUMPDEST PUSH1 0x1 DUP2 ADD SWAP1 POP PUSH2 0x134B JUMP JUMPDEST POP POP JUMP JUMPDEST PUSH1 0x1F DUP3 GT ISZERO PUSH2 0x13AD JUMPI PUSH2 0x137E DUP2 PUSH2 0x1255 JUMP JUMPDEST PUSH2 0x1387 DUP5 PUSH2 0x1267 JUMP JUMPDEST DUP2 ADD PUSH1 0x20 DUP6 LT ISZERO PUSH2 0x1396 JUMPI DUP2 SWAP1 POP JUMPDEST PUSH2 0x13AA PUSH2 0x13A2 DUP6 PUSH2 0x1267 JUMP JUMPDEST DUP4 ADD DUP3 PUSH2 0x134A JUMP JUMPDEST POP POP JUMPDEST POP POP POP JUMP JUMPDEST PUSH0 DUP3 DUP3 SHR SWAP1 POP SWAP3 SWAP2 POP POP JUMP JUMPDEST PUSH0 PUSH2 0x13CD PUSH0 NOT DUP5 PUSH1 0x8 MUL PUSH2 0x13B2 JUMP JUMPDEST NOT DUP1 DUP4 AND SWAP2 POP POP SWAP3 SWAP2 POP POP JUMP JUMPDEST PUSH0 PUSH2 0x13E5 DUP4 DUP4 PUSH2 0x13BE JUMP JUMPDEST SWAP2 POP DUP3 PUSH1 0x2 MUL DUP3 OR SWAP1 POP SWAP3 SWAP2 POP POP JUMP JUMPDEST DUP2 DUP2 SUB PUSH2 0x1403 JUMPI POP POP PUSH2 0x14D8 JUMP JUMPDEST PUSH2 0x140C DUP3 PUSH2 0x1240 JUMP JUMPDEST PUSH8 0xFFFFFFFFFFFFFFFF DUP2 GT ISZERO PUSH2 0x1425 JUMPI PUSH2 0x1424 PUSH2 0xC9D JUMP JUMPDEST JUMPDEST PUSH2 0x142F DUP3 SLOAD PUSH2 0x1210 JUMP JUMPDEST PUSH2 0x143A DUP3 DUP3 DUP6 PUSH2 0x136C JUMP JUMPDEST PUSH0 PUSH1 0x1F DUP4 GT PUSH1 0x1 DUP2 EQ PUSH2 0x1467 JUMPI PUSH0 DUP5 ISZERO PUSH2 0x1455 JUMPI DUP3 DUP8 ADD SLOAD SWAP1 POP JUMPDEST PUSH2 0x145F DUP6 DUP3 PUSH2 0x13DA JUMP JUMPDEST DUP7 SSTORE POP PUSH2 0x14D1 JUMP JUMPDEST PUSH1 0x1F NOT DUP5 AND PUSH2 0x1475 DUP8 PUSH2 0x1255 JUMP JUMPDEST SWAP7 POP PUSH2 0x1480 DUP7 PUSH2 0x1255 JUMP JUMPDEST PUSH0 JUMPDEST DUP3 DUP2 LT ISZERO PUSH2 0x14A7 JUMPI DUP5 DUP10 ADD SLOAD DUP3 SSTORE PUSH1 0x1 DUP3 ADD SWAP2 POP PUSH1 0x1 DUP6 ADD SWAP5 POP PUSH1 0x20 DUP2 ADD SWAP1 POP PUSH2 0x1482 JUMP JUMPDEST DUP7 DUP4 LT ISZERO PUSH2 0x14C4 JUMPI DUP5 DUP10 ADD SLOAD PUSH2 0x14C0 PUSH1 0x1F DUP10 AND DUP3 PUSH2 0x13BE JUMP JUMPDEST DUP4 SSTORE POP JUMPDEST PUSH1 0x1 PUSH1 0x2 DUP9 MUL ADD DUP9 SSTORE POP POP POP JUMPDEST POP POP POP POP POP POP JUMPDEST JUMP JUMPDEST PUSH32 0x4E487B7100000000000000000000000000000000000000000000000000000000 PUSH0 MSTORE PUSH1 0x31 PUSH1 0x4 MSTORE PUSH1 0x24 PUSH0 REVERT JUMPDEST PUSH32 0x4E6F204D6F6E6579000000000000000000000000000000000000000000000000 PUSH0 DUP3 ADD MSTORE POP JUMP JUMPDEST PUSH0 PUSH2 0x153B PUSH1 0x8 DUP4 PUSH2 0x1037 JUMP JUMPDEST SWAP2 POP PUSH2 0x1546 DUP3 PUSH2 0x1507 JUMP JUMPDEST PUSH1 0x20 DUP3 ADD SWAP1 POP SWAP2 SWAP1 POP JUMP JUMPDEST PUSH0 PUSH1 0x20 DUP3 ADD SWAP1 POP DUP2 DUP2 SUB PUSH0 DUP4 ADD MSTORE PUSH2 0x1568 DUP2 PUSH2 0x152F JUMP JUMPDEST SWAP1 POP SWAP2 SWAP1 POP JUMP JUMPDEST PUSH32 0x4E6F205761697472657373206164646564000000000000000000000000000000 PUSH0 DUP3 ADD MSTORE POP JUMP JUMPDEST PUSH0 PUSH2 0x15A3 PUSH1 0x11 DUP4 PUSH2 0x1037 JUMP JUMPDEST SWAP2 POP PUSH2 0x15AE DUP3 PUSH2 0x156F JUMP JUMPDEST PUSH1 0x20 DUP3 ADD SWAP1 POP SWAP2 SWAP1 POP JUMP JUMPDEST PUSH0 PUSH1 0x20 DUP3 ADD SWAP1 POP DUP2 DUP2 SUB PUSH0 DUP4 ADD MSTORE PUSH2 0x15D0 DUP2 PUSH2 0x1597 JUMP JUMPDEST SWAP1 POP SWAP2 SWAP1 POP JUMP JUMPDEST PUSH0 PUSH2 0x15E1 DUP3 PUSH2 0xB83 JUMP JUMPDEST SWAP2 POP PUSH2 0x15EC DUP4 PUSH2 0xB83 JUMP JUMPDEST SWAP3 POP DUP3 DUP3 MUL PUSH2 0x15FA DUP2 PUSH2 0xB83 JUMP JUMPDEST SWAP2 POP DUP3 DUP3 DIV DUP5 EQ DUP4 ISZERO OR PUSH2 0x1611 JUMPI PUSH2 0x1610 PUSH2 0x1150 JUMP JUMPDEST JUMPDEST POP SWAP3 SWAP2 POP POP JUMP JUMPDEST PUSH32 0x4E487B7100000000000000000000000000000000000000000000000000000000 PUSH0 MSTORE PUSH1 0x12 PUSH1 0x4 MSTORE PUSH1 0x24 PUSH0 REVERT JUMPDEST PUSH0 PUSH2 0x164F DUP3 PUSH2 0xB83 JUMP JUMPDEST SWAP2 POP PUSH2 0x165A DUP4 PUSH2 0xB83 JUMP JUMPDEST SWAP3 POP DUP3 PUSH2 0x166A JUMPI PUSH2 0x1669 PUSH2 0x1618 JUMP JUMPDEST JUMPDEST DUP3 DUP3 DIV SWAP1 POP SWAP3 SWAP2 POP POP JUMP JUMPDEST PUSH32 0x546F74616C2070657263656E7420657863656564732031303025000000000000 PUSH0 DUP3 ADD MSTORE POP JUMP JUMPDEST PUSH0 PUSH2 0x16A9 PUSH1 0x1A DUP4 PUSH2 0x1037 JUMP JUMPDEST SWAP2 POP PUSH2 0x16B4 DUP3 PUSH2 0x1675 JUMP JUMPDEST PUSH1 0x20 DUP3 ADD SWAP1 POP SWAP2 SWAP1 POP JUMP JUMPDEST PUSH0 PUSH1 0x20 DUP3 ADD SWAP1 POP DUP2 DUP2 SUB PUSH0 DUP4 ADD MSTORE PUSH2 0x16D6 DUP2 PUSH2 0x169D JUMP JUMPDEST SWAP1 POP SWAP2 SWAP1 POP JUMP JUMPDEST PUSH32 0x576169747265737320616C726561647920657869737473000000000000000000 PUSH0 DUP3 ADD MSTORE POP JUMP JUMPDEST PUSH0 PUSH2 0x1711 PUSH1 0x17 DUP4 PUSH2 0x1037 JUMP JUMPDEST SWAP2 POP PUSH2 0x171C DUP3 PUSH2 0x16DD JUMP JUMPDEST PUSH1 0x20 DUP3 ADD SWAP1 POP SWAP2 SWAP1 POP JUMP JUMPDEST PUSH0 PUSH1 0x20 DUP3 ADD SWAP1 POP DUP2 DUP2 SUB PUSH0 DUP4 ADD MSTORE PUSH2 0x173E DUP2 PUSH2 0x1705 JUMP JUMPDEST SWAP1 POP SWAP2 SWAP1 POP JUMP JUMPDEST PUSH2 0x174E DUP3 PUSH2 0xE8F JUMP JUMPDEST PUSH8 0xFFFFFFFFFFFFFFFF DUP2 GT ISZERO PUSH2 0x1767 JUMPI PUSH2 0x1766 PUSH2 0xC9D JUMP JUMPDEST JUMPDEST PUSH2 0x1771 DUP3 SLOAD PUSH2 0x1210 JUMP JUMPDEST PUSH2 0x177C DUP3 DUP3 DUP6 PUSH2 0x136C JUMP JUMPDEST PUSH0 PUSH1 0x20 SWAP1 POP PUSH1 0x1F DUP4 GT PUSH1 0x1 DUP2 EQ PUSH2 0x17AD JUMPI PUSH0 DUP5 ISZERO PUSH2 0x179B JUMPI DUP3 DUP8 ADD MLOAD SWAP1 POP JUMPDEST PUSH2 0x17A5 DUP6 DUP3 PUSH2 0x13DA JUMP JUMPDEST DUP7 SSTORE POP PUSH2 0x180C JUMP JUMPDEST PUSH1 0x1F NOT DUP5 AND PUSH2 0x17BB DUP7 PUSH2 0x1255 JUMP JUMPDEST PUSH0 JUMPDEST DUP3 DUP2 LT ISZERO PUSH2 0x17E2 JUMPI DUP5 DUP10 ADD MLOAD DUP3 SSTORE PUSH1 0x1 DUP3 ADD SWAP2 POP PUSH1 0x20 DUP6 ADD SWAP5 POP PUSH1 0x20 DUP2 ADD SWAP1 POP PUSH2 0x17BD JUMP JUMPDEST DUP7 DUP4 LT ISZERO PUSH2 0x17FF JUMPI DUP5 DUP10 ADD MLOAD PUSH2 0x17FB PUSH1 0x1F DUP10 AND DUP3 PUSH2 0x13BE JUMP JUMPDEST DUP4 SSTORE POP JUMPDEST PUSH1 0x1 PUSH1 0x2 DUP9 MUL ADD DUP9 SSTORE POP POP POP JUMPDEST POP POP POP POP POP POP JUMP JUMPDEST PUSH0 DUP2 SWAP1 POP SWAP3 SWAP2 POP POP JUMP JUMPDEST POP JUMP JUMPDEST PUSH0 PUSH2 0x182C PUSH0 DUP4 PUSH2 0x1814 JUMP JUMPDEST SWAP2 POP PUSH2 0x1837 DUP3 PUSH2 0x181E JUMP JUMPDEST PUSH0 DUP3 ADD SWAP1 POP SWAP2 SWAP1 POP JUMP JUMPDEST PUSH0 PUSH2 0x184B DUP3 PUSH2 0x1821 JUMP JUMPDEST SWAP2 POP DUP2 SWAP1 POP SWAP2 SWAP1 POP JUMP JUMPDEST PUSH32 0x5472616E73666572206661696C65642E00000000000000000000000000000000 PUSH0 DUP3 ADD MSTORE POP JUMP JUMPDEST PUSH0 PUSH2 0x1889 PUSH1 0x10 DUP4 PUSH2 0x1037 JUMP JUMPDEST SWAP2 POP PUSH2 0x1894 DUP3 PUSH2 0x1855 JUMP JUMPDEST PUSH1 0x20 DUP3 ADD SWAP1 POP SWAP2 SWAP1 POP JUMP JUMPDEST PUSH0 PUSH1 0x20 DUP3 ADD SWAP1 POP DUP2 DUP2 SUB PUSH0 DUP4 ADD MSTORE PUSH2 0x18B6 DUP2 PUSH2 0x187D JUMP JUMPDEST SWAP1 POP SWAP2 SWAP1 POP JUMP INVALID LOG2 PUSH5 0x6970667358 0x22 SLT KECCAK256 PUSH30 0x2AA1C8725C7514F5837E6DA1DF4BCB65911408BB63C08F4C1E59D48E635F DUPN 0x64 PUSH20 0x6F6C634300081F00330000000000000000000000 "
				},
				"gasEstimates": {
					"creation": {
						"codeDepositCost": "1277400",
						"executionCost": "25591",
						"totalCost": "1302991"
					},
					"external": {
						"addWaitress(address,string,uint256)": "infinite",
						"addtips()": "186",
						"distributeBalance()": "infinite",
						"getTotalPercent()": "infinite",
						"removeWaitress(address)": "infinite",
						"viewWaitress()": "infinite",
						"viewtips()": "335",
						"waitress(uint256)": "infinite"
					},
					"internal": {
						"_transferFunds(address payable,uint256)": "infinite"
					}
				},
				"methodIdentifiers": {
					"addWaitress(address,string,uint256)": "b499b79a",
					"addtips()": "6e7301fd",
					"distributeBalance()": "7943da69",
					"getTotalPercent()": "3c8e3b52",
					"removeWaitress(address)": "369a489d",
					"viewWaitress()": "e83a1b00",
					"viewtips()": "2a08deda",
					"waitress(uint256)": "ec066e3a"
				}
			},
			"storageLayout": {
				"storage": [
					{
						"astId": 3,
						"contract": "tipjar.sol:tips",
						"label": "owner",
						"offset": 0,
						"slot": "0",
						"type": "t_address"
					},
					{
						"astId": 14,
						"contract": "tipjar.sol:tips",
						"label": "waitress",
						"offset": 0,
						"slot": "1",
						"type": "t_array(t_struct(Waitress)10_storage)dyn_storage"
					}
				],
				"types": {
					"t_address": {
						"encoding": "inplace",
						"label": "address",
						"numberOfBytes": "20"
					},
					"t_address_payable": {
						"encoding": "inplace",
						"label": "address payable",
						"numberOfBytes": "20"
					},
					"t_array(t_struct(Waitress)10_storage)dyn_storage": {
						"base": "t_struct(Waitress)10_storage",
						"encoding": "dynamic_array",
						"label": "struct tips.Waitress[]",
						"numberOfBytes": "32"
					},
					"t_string_storage": {
						"encoding": "bytes",
						"label": "string",
						"numberOfBytes": "32"
					},
					"t_struct(Waitress)10_storage": {
						"encoding": "inplace",
						"label": "struct tips.Waitress",
						"members": [
							{
								"astId": 5,
								"contract": "tipjar.sol:tips",
								"label": "walletAddress",
								"offset": 0,
								"slot": "0",
								"type": "t_address_payable"
							},
							{
								"astId": 7,
								"contract": "tipjar.sol:tips",
								"label": "name",
								"offset": 0,
								"slot": "1",
								"type": "t_string_storage"
							},
							{
								"astId": 9,
								"contract": "tipjar.sol:tips",
								"label": "percent",
								"offset": 0,
								"slot": "2",
								"type": "t_uint256"
							}
						],
						"numberOfBytes": "96"
					},
					"t_uint256": {
						"encoding": "inplace",
						"label": "uint256",
						"numberOfBytes": "32"
					}
				}
			},
			"userdoc": {
				"kind": "user",
				"methods": {},
				"version": 1
			}
		}
	}
}